:1000000003308A00EC2B0000551ABD12B01964169B
:10001000A02AB31E251833328A2AB21E251833327D
:100020000036C3204D10C2244527A02A3405D41E13
:10003000251833320000C3204D10C2244527A02AC2
:100040003305D41E251833320000C3204D10C224BE
:100050004527A02A3205D41E2518333200002F3040
:10006000840083130008031942280630F800F701C2
:10007000F70B3828F80B37287B30F700F70B3E28B2
:10008000800B35280800361847280712482807161D
:1000900020122008831687008312B6185128871271
:1000A00052288716A012200883168700831236195B
:1000B0005B2807135C280717201320088316870086
:1000C0008312B6196528871366288717A01320089E
:1000D000831687000000831207152011200883165D
:1000E00087000330F700F70B7328831207112011E4
:1000F00020088316870083120800B7012016200805
:100100008316870000308312071A0130B704A01647
:1001100020088316870000308312871A0130F70009
:100120000310F70D7708B7042017200883168700FF
:1001300000308312071B0130F700F70DF70DFC307C
:10014000F7057708B704A01720088316870000304A
:100150008312871B0130F700F70DF70DF70DF8300C
:10016000F7057708B7043708F800080020112008C1
:1001700083168700831220102008831687008312BD
:10018000A010200883168700831207102010200873
:100190008316870007168716071787178312871499
:1001A000A010200883168700000083120715201175
:1001B000200883168700000083127D207808B6008F
:1001C00007112011200883168700000083120715ED
:1001D0002011200883168700ED28EE2800008312E6
:1001E0007D207808B50007112011200883168700AC
:1001F000831220122008831687008312A012200881
:100200008316870083122013200883168700831229
:10021000A0132008831687008312360EF700F030F3
:10022000F70577083504F8007808B500B51F1A29D6
:100230008316CA28B308031D1F2907102029071495
:100240002010200883168700000083128710A0105A
:100250002008831687000000831207112011200850
:10026000831687008312340EB5000F30B5053508AC
:10027000B600432034080F39B500B600432008000B
:100280002830A6000C30A7000130A8000630A900D5
:1002900007112011200883168700831207102010F1
:1002A00020088316870083128710A0102008831669
:1002B0008700831220122008831687008312A01261
:1002C00020088316870083122013200883168700D6
:1002D0008312A013200883168700831220112008A0
:1002E000831687008312201020088316870083124C
:1002F000A0102008831687000F308312AF002F2034
:100300000130A5002508033C031C8E290330B600EC
:1003100043200530AF002F20A50A82290230B60005
:1003200043200530AF002F20A5012508033C031C06
:10033000A52926302507840083130008AA00B301ED
:100340002A08B400B620A50A95298A110A120C2C95
:10035000003021180130A5008316081700308312E1
:10036000081B013025020319C029831608178312C0
:100370002110081B21142118C0290130F800C229BE
:100380000030F8008A110A12192C300BC829CB2929
:100390004030B100CC29B10101302F02B107310842
:1003A0008038B200B3013208B400B62008002E082D
:1003B000073A0319E5290B3A0319EA29063A031902
:1003C000F229023A0319F829FD290130AF00B000E3
:1003D000C521022AB3010130B400B6200230AF00BB
:1003E0002F20022A0130AF000230B000C521022ABE
:1003F000B3011030B400B620022A0130B3002E0839
:10040000B400B62008002808003A03190E2A013A61
:100410000319152A033A03191C2A232A0030F8006D
:100420001F08C73978049F00262A0830F8001F08E3
:10043000C73978049F00262A1830F8001F08C739EA
:1004400078049F00262A0030F800972A2130F70010
:10045000F70B282A1F151F192B2A1E08F9008316CF
:100460007908FA001E08F7007908F800F901FA0186
:10047000F81F3C2AF903FA037A088312AC007908C2
:10048000AB007808AA007708A9002C08B0002B0858
:10049000AF002A08AE002908AD00B401B301013055
:1004A000B200F430B1002030B900B501B601B70197
:1004B000B8013008FA002F08F9002E08F8002D08BE
:1004C000F7000310771C722A3108B50732080318A9
:1004D000320FB60733080318330FB7073408031871
:1004E000340FB807B80CB70CB60CB50CFA0CF90CF5
:1004F000F80CF70CB90B612A7A08AC007908AB004C
:100500007808AA007708A9002A08A9002B08AA00E1
:100510002C08AB00AC01AC0CAB0CAA0CA90CAC0CBD
:10052000AB0CAA0CA90C3F30AC052908F800080058
:100530002F08F8012E020318A02A2E08F700AC2A73
:10054000F7010830B000AE0DF70D2F087702031841
:10055000F700F80DB00BA32A08002030291E303018
:10056000AA002808F700A81FBD2AF709F70A77088C
:10057000A8002D30AA00A91729142808AE0064305D
:10058000AF0098227708A80030307807AB00280821
:10059000AE000A30AF00982230307707AD0030301F
:1005A0007807AC002A08F70030302B020319DC2A48
:1005B000A914A91B2915F02A2919F02A2A08AB0029
:1005C000A918E72A30302C020319EA2A2914A91B9A
:1005D000A914F02A031D2914031DF02A2B08AC00CE
:1005E0002919F72AA918FA2A2918FD2A002B2A08FE
:1005F000AE00D7212B08AE00D7212C08AE00D721A2
:100600002D08AE00D72108000B08A9008B13831614
:1006100003178C170C140000000083120313A91B8E
:100620008B1703183B2B03170C087F390313A90002
:1006300003170D080313AA0003170F080313AB00D9
:100640002908AE00D7212A0803178D0003132B08B1
:1006500003178F0003130B08AC008B1383160317CB
:100660008C170C140000000083120313AC1B8B17B3
:10067000A80B3B2B5A2B03170C0D0E0D7F390313C0
:10068000A90003170D080313AA0003170F0803138B
:10069000AB002908AE00D7212A0803178D000313E9
:1006A0002B0803178F008D0A03198F0A03100313F9
:1006B000A80B042B0800A80103227808A50001302C
:1006C000A80003227808A6000230A80003227808B8
:1006D000A7000130AF00B000C5215530AE00D721D2
:1006E0003430AE00D7213D30AE00D7212508A80018
:1006F0000330A900AD22073003178D0000308F00B2
:10070000031405300313A80004232608A8000330AF
:10071000A900AD220C3003178D0000308F000310AC
:1007200004300313A80004232708A8000330A900FD
:10073000AD228A110A123F2CA80103227808A500D5
:100740000130AF00B000C521113003178D0000301B
:100750008F0003100E300313A80004232508A800FF
:100760000330A900AD228A110A123F2C0130A800E3
:1007700003227808A5000130AF00B000C5211B306E
:1007800003178D0000308F0003100E300313A800F4
:1007900004232508A8000330A900AD228A110A12FB
:1007A0003F2C0230A80003227808A5000130AF00DA
:1007B000B000C521253003178D0000308F000310D5
:1007C0000E300313A80004232508A8000330A90055
:1007D000AD228A110A123F2C03081F398300FF3013
:1007E000A00083161F149F141F159F1107309C0033
:1007F000831383122114A201A401A30183161F10E5
:100800009F101F159F111F1383121F179F17831609
:100810009F1783121F144029A30A0319A40AA408CE
:10082000031D162C2308643C0318182CA401A301F3
:10083000A829F8080319262C0C30AE00D721A20AEB
:100840002208033C031CA201A401A301A308031D69
:100850003F2CA408031D3F2C22080319382C013A11
:1008600003193A2C033A03193C2C013A03193E2C84
:100870005B2B3F2C9C2B3F2CB62B3F2CD12B0C2CD5
:02088000630013
:02400E00723FFF
:00000001FF
;PIC16F877A
;CRC=37D7  CREATED="04-Oct-21 22:42"
