:100000000A128A111028FF3FFE00030EF0000A08B2
:10001000F100831203137F08F2000A128A11E72B02
:100020000A128A1113280A128A1138240A128A1114
:10003000F8000A128A113924F900D001D101830194
:100040000A128A11C4282328FF0000308A007F0882
:10005000820729280A128A11312CF600482802301A
:10006000A0002008F9000830442802303828043065
:10007000A0002008F9001030442802304028043045
:10008000A0002008F9001430A0002008F8005C2827
:100090007608003A03192F28013A03192F28033A4A
:1000A00003193528013A03193728073A03193D285F
:1000B000013A03193F28C328023083120313A20018
:1000C0000430A100B930A000A00B6428A10B642863
:1000D000A20B64286B2803300A128A1145230A12E6
:1000E0008A110A128A11FA230A128A112130831204
:1000F0000313A1007530A000A00B7C28A10B7C2865
:1001000081280A128A11FA230A128A11A530831251
:100110000313A000A00B8A288D280A128A11FA2343
:100120000A128A1102300A128A1145230A128A1110
:100130000A128A11FA230A128A1128300A128A1125
:1001400065230A128A110C300A128A1165230A12D9
:100150008A1106300A128A1165230A128A110130A7
:100160000A128A1165230A128A11033083120313BB
:10017000A2008A30A1005530A000A00BBD28A10B21
:10018000BD28A20BBD2808000A128A1121240A12D8
:100190008A110A128A112A240A128A11C901C90A6B
:1001A00002300A128A112D200A128A110430831299
:1001B0000313B4003408A2003630A3008030A4003A
:1001C000A50100300A128A114D220A128A118B17DA
:1001D0000B17C801FA30A9000030AA0049300A12F2
:1001E0008A1152210A128A11003A0319EA280530AD
:1001F0000A128A119F230A128A117308B400740824
:10020000B50048083402B6003608C700113047026E
:10021000031C0E291030B4003408C7000030F3006E
:10022000F4001030F5000030F60037300A128A1161
:1002300083230A128A114808053EB4003408F300EB
:100240004708B500B6013508F4003608F500373028
:100250000A128A11CE220A128A11A2013730A30093
:100260000030A4001030B4003408A50001300A1298
:100270008A114D220A128A1105300A128A119F230F
:100280000A128A110130B4003408C8074808B500C2
:10029000B60174083602031D4F297308350203188E
:1002A000E928EA28F7007708840083130003031D78
:1002B00088290A128A1199220A128A11770A84005F
:1002C00073088000840A74088000840A750880001E
:1002D0002A08F4002908F3001330F5000030F60076
:1002E0000A128A1124230A128A117308AB007408B7
:1002F000AC00AD017708043E84002B088000840A1E
:100300002C088000840A2D08800077088400800172
:100310007708043E84000008AB00840A0008AC00A3
:10032000840A0008AD00770A84000008AE00840A41
:100330000008AF00840A0008B0000A128A1199224E
:100340000A128A117308B1007408B2007508B3006C
:100350002E08B1022F08031C2F0FAF29B029B202BB
:100360003008031C300FB529B629B3022D0833021B
:10037000031DC0292C083202031DC0292B0831029D
:10038000031CC629770884008001800A770884004E
:1003900000080800FF3FFF3FFF3FFF3FFF3FFF3FD9
:10040000FF1B0A2A83137F1883170008840A031925
:10041000FF0A080002308A000408840A82070034B8
:100420008034C0349034D0346834743474347034CC
:1004300073343A342F342F34673469347434683465
:10044000753462342E3463346F346D342F34733426
:1004500061346D34703469346434653476346B34AB
:10046000693474342F340034203420342034203460
:1004700020342034203420342034203420342034DC
:10048000203420342034203400344C344334443479
:1004900031343634303432340034A7002208A60018
:1004A0002608F60027080A128A11FC220A128A116D
:1004B0008312031325080319722A952A2408FF00C2
:1004C000230884000A128A1100220A128A110A12D1
:1004D0008A1117240A128A110130A3070318A40AEB
:1004E0000030A4072408FF00230884000A128A11A0
:1004F00000220A128A11003A031908005E2A240811
:10050000FF00230884000A128A1100220A128A11AD
:100510000A128A1117240A128A110130A30703183C
:10052000A40A0030A4070130A50225080319080019
:100530007F2A5008A6005108A700A8012608A3009A
:100540002708A4002808A50008300310A30DA40D57
:10055000A50DFF3E031DA52A0108A000A101A201CF
:100560002008A3042108A4042208A5045008A00020
:100570005108A100A20128082206031DC52A270848
:100580002106031DC52A26082006031D992A2308D3
:10059000F3002408F4002508F5000800A100730802
:1005A000F6007608A3002108F6007608A2000130C4
:1005B000F4020030031CF503F502740A0319750AEE
:1005C00003190800230884000A128A110A220A1259
:1005D0008A11F6007608A0000130F6007608A3071D
:1005E0002008F6002208840076088313800001307A
:1005F000F6007608A207D72AA1002108790203187D
:10060000052B7908F7007708A1007608780203180F
:100610000D2B7808F7007708F6002108013E8400CA
:100620000A128A110A220A128A117607F70077083D
:10063000A00020080A128A1165230A128A11533079
:10064000F700F70B212B0800A001A101731C2E2B32
:100650007508A0070318A10A7608A1070130031046
:10066000F50DF60DFF3E031D2F2B01300310F40C8A
:10067000F30CFF3E031D362B73087404031D262B59
:100680002108F4002008F3000800F300731C4C2B31
:100690008312031308154F2B831203130811031041
:1006A000F30C731C552B8815562B88110310F30C73
:1006B000731C5C2B08165D2B08120310F30C731CC3
:1006C000632B8816080088120800F5007508F400EE
:1006D00004300310F40CFF3E031D692B74080A124A
:1006E0008A1145230A128A110A128A11FA230A1260
:1006F0008A1175080A128A1145230A128A110A12F0
:100700008A11FA230800A0002008F7007708A1004A
:100710000130F5020030031CF603F602750A0319D6
:10072000760A031908007308F70021088400770887
:10073000831380000130F7007708A107882BF700AA
:100740007708F5007508F600760884000A128A1109
:100750000A220A128A11003A0319B32B0130F5005C
:100760007508F607A42B77087602F300F401F31B53
:10077000F403080085018601870188018901FF30A3
:1007800083168500FF308600FF308700C030880068
:100790000730890083129F01063083169F0081175E
:1007A00008000108C039F3007308FA000730F300AD
:1007B0007308FA047A0881003D30831281003D30CD
:1007C000F3007308FA00D2010B118B1608008B1A84
:1007D0000B1DEF2B0A128A110A240A128A117208C1
:1007E00083120313FF0071088A00700E8300FE0E4F
:1007F0007E0E09008312031388140430F300F30BF8
:10080000FF2B022C8312031388105330F300F30BD9
:10081000072C08000B117A08831203138100520879
:100820000319080052080A128A1124200800F60051
:10083000081476080A128A1165238312031308101C
:1008400008000A128A11BA230A128A110A128A119E
:10085000D1230800D001D1010130F3007308D20088
:1008600008000130D0070318D10A0030D107080072
:1008700008340234FF3FFF3FFF3FFF3FFF3FFF3F92
:02400E003A3F37
:00000001FF
