:100000000A128A1110280800FE00030EF2000A08E6
:10001000F300831203137F08F4000A128A11AA2F37
:100020000A128A1113280A128A11FE270A128A114B
:10003000F8000A128A11FF270A128A11F9008313A5
:100040004630840065300A128A15A327F501F601AF
:10005000F70183010A128A113F2B2D28FF0000307F
:100060008A007F08820733280A128A158D2F0A1208
:100070008A158C2F0030B3000030B2000030B10080
:100080000030B0004A08103E84000A128A110A2685
:100090000A128A110A128A1166250A128A11200888
:1000A000B4002108B500B601B7014A080F3E84002C
:1000B0000A128A110A260A128A11FF3A03197328B2
:1000C0004A080F3E84000A128A110A260A128A116F
:1000D0000A128A1166250A128A112008B000210826
:1000E000B100B201B3013008B4023108031C310F72
:1000F000B5023208031C320FB6023308031C330F5B
:10010000B7020030A3000030A2001330A1008830F5
:10011000A0003708A7003608A6003508A500340857
:10012000A4000A128A11AA250A128A112308B7000C
:100130002208B6002108B5002008B4000030A30052
:100140000030A2000430A1000030A0003708A70052
:100150003608A6003508A5003408A4000A128A1142
:10016000D2230A128A112308B7002208B6002108F8
:10017000B5002008B4000030A3000030A200003019
:10018000A1000A30A0003708A7003608A6003508ED
:10019000A5003408A4000A128A115F240A128A11E9
:1001A0002308B3002208B2002108B1002008B000E3
:1001B000B31BF9283308031DE9283208031DE92879
:1001C0003108031DE92805303002031DE728031C10
:1001D000F928053083120313B407003003180130E7
:1001E000B507003003180130B6070030031801309E
:1001F0001B2983120313B31F1C29FF303302031D75
:100200000D29FF303202031D0D29FF303102031D7D
:100210000D29FC303002031D0D2903181C29FB3069
:1002200083120313B407FF30031CB507FF30031C10
:10023000B607FF30031CB707003083120313A30077
:100240000030A2000030A1000A30A0003708A7004B
:100250003608A6003508A5003408A4000A128A1141
:10026000D2230A128A114A08AF002F07483E8400A1
:10027000200883138000840A210880000130AF0029
:100280002F08CA0703190800CA010800B9002F3057
:10029000B1003108B4000130AE07FF302E078400F2
:1002A0000A128A110A260A128A11B1003108BA000C
:1002B0003A0803190D2A25303A0603196B293A0822
:1002C000B100390884003108831380000130B10087
:1002D0003108B9074B29B5010130AE07FF302E07B1
:1002E00084000A128A110A260A128A11BA00003AF8
:1002F00003190D2A643A031981290D3A031981293A
:100300004B293408840083130008B700840A0008CE
:10031000B8000230B1003108B407B81F9829033083
:10032000B1003108B504B709B809B70A0319B80A0A
:10033000BA01BA0A3A08B1003107013E84000A1234
:100340008A110A260A128A11B2000A128A110A2692
:100350000A128A11B30033083802031DB12932088A
:100360003702031CBB290130B1003108BA07053040
:100370003A06031D9A29350803390319CA292D3075
:10038000B100390884003108831380000130B100C6
:100390003108B9073A08B1003108B600FF30B100A2
:1003A0003108B607360A03194B290A30A800003075
:1003B000A9003608B1003107013E84000A128A11F3
:1003C0000A260A128A11A0000A128A110A260A12A3
:1003D0008A11A1003808A3003708A2000A128A1166
:1003E0003E260A128A112108AB002008AA000A1230
:1003F0008A11B5260A128A112808303EB200320846
:10040000BA003A08B100390884003108831380002B
:100410000130B1003108B907CE29390884008313AF
:1004200080010800A6002D2A0230A3002308F9004D
:100430000830292A02301D2A0430A3002308F900BD
:100440001030292A0230252A0430A3002308F9009D
:100450001430A3002308F800412A2608003A0319A3
:10046000142A013A0319142A033A03191A2A013AE1
:1004700003191C2A073A0319222A013A0319242ACC
:10048000A82A023083120313A5000430A400B93057
:10049000A300A30B492AA40B492AA50B492A502AD9
:1004A00003300A128A1155270A128A110A128A1178
:1004B000C2270A128A11213083120313A400753057
:1004C000A300A30B612AA40B612A662A0A128A11CF
:1004D000C2270A128A11A53083120313A300A30BAB
:1004E0006F2A722A0A128A11C2270A128A1102304E
:1004F0000A128A1155270A128A110A128A11C22772
:100500000A128A1128300A128A1112270A128A1135
:100510000C300A128A1112270A128A1106300A12A6
:100520008A1112270A128A1101300A128A1112271F
:100530000A128A11033083120313A5008A30A40023
:100540005530A300A30BA22AA40BA22AA50BA22A12
:100550000800C00040088400831300080319E92A3A
:100560004008840080013308A3003208A20031084B
:10057000A1003008A0000030A7000030A600023023
:10058000A5007130A4000A128A11AA250A128A1144
:100590004008053E8400200883138000840A210857
:1005A0008000840A22088000840A230880000A123E
:1005B0008A1122250A128A11400A8400200880002C
:1005C000840A21088000840A22088000840A230803
:1005D00080004008053E84000008B400840A00083A
:1005E000B500840A0008B600840A0008B700400A73
:1005F00084000008B800840A0008B900840A0008D2
:10060000BA00840A0008BB000A128A1122250A12C5
:100610008A112008BC002108BD002208BE00230862
:10062000BF003808BC023908031C390F182B192BDE
:10063000BD023A08031C3A0F1E2B1F2BBE023B08BB
:10064000031C3B0F242B252BBF0237083F02031D41
:10065000332B36083E02031D332B35083D02031DA4
:10066000332B34083C02031C3D2B0130B4004008FE
:1006700084003408800001300800003008000A12AD
:100680008A1173270A128A110A128A1594270A12EC
:100690008A110A128A11EA270A128A1102300A12F2
:1006A0008A1112220A128A11013083120313C10027
:1006B0004108DC000B178B170030B3000030B2008C
:1006C0000130B100F430B0005C300A128A11A92266
:1006D0000A128A11003A0319CC2B4908C3004808B2
:1006E000C2004308A9004208A8000A128A117A260B
:1006F0000A128A112908C5002808C4000708013910
:10070000C1000130C10607084106FE3941068700D5
:100710000A128A11E9250A128A112A308312031358
:10072000C1004108AE004308B0004208AF004B30A2
:100730000A128A1146210A128A11A7014B30A80019
:100740000030A900AA0100300A128A11D6240A1228
:100750008A112230C1004108AE004508B0004408AB
:10076000AF004B300A128A1146210A128A11A701E2
:100770004B30A8000030A900AA0101300A128A11EA
:10078000D6240A128A114508A1004408A0000A12C2
:100790008A1190270A128A110A128A113A200A1223
:1007A0008A115C2BAA01A31FE22BA009A109A209AF
:1007B000A309A00A0319A10A0319A20A0319A30A8B
:1007C000AA01AA0AA71FF32BA409A509A609A7092C
:1007D000A40A0319A50A0319A60A0319A70A0130D6
:1007E000A8002808AA060030AE000030AD00003096
:1007F000AC000030AB0023082204210420040319BC
:10080000482CA901A90AA31B132C0130A80003102E
:10081000A00DA10DA20DA30DA80B072C0130A8005F
:100820002808A907032C0130A8000310AB0DAC0D5C
:10083000AD0DAE0DA80B152C23082702031D2A2C85
:1008400022082602031D2A2C21082502031D2A2C1A
:1008500020082402031C3B2C2008A4022108031CAE
:10086000210FA5022208031C220FA6022308031C45
:10087000230FA7022B1401300310A30CA20CA10C10
:10088000A00CFF3E031D3C2C0130A902031D132CBC
:100890002A080319562CAB09AC09AD09AE09AB0AFD
:1008A0000319AC0A0319AD0A0319AE0A2E08A300F6
:1008B0002D08A2002C08A1002B08A0000800AA0106
:1008C000A71F6F2CA409A509A609A709A40A031943
:1008D000A50A0319A60A0319A70AAA01AA0AA31FAF
:1008E0007C2CA009A109A209A309A00A0319A10A45
:1008F0000319A20A0319A30A2308220421042004CD
:100900000319BF2CA901A90AA31B942C0130A8002C
:100910000310A00DA10DA20DA30DA80B882C013072
:10092000A8002808A907842C23082702031DA22C4D
:1009300022082602031DA22C21082502031DA22C39
:1009400020082402031CB22C2008A4022108031C46
:10095000210FA5022208031C220FA6022308031C54
:10096000230FA70201300310A30CA20CA10CA00CB2
:10097000FF3E031DB32C0130A902031D942C2A084D
:100980000319CD2CA409A509A609A709A40A0319CE
:10099000A50A0319A60A0319A70A2708A30026080F
:1009A000A2002508A1002408A0000800AC00270828
:1009B000AB002B08A3002C080A128A11E7260A12A2
:1009C0008A11831203132A080319FB2C1E2D2908F0
:1009D000FF00280884000A128A1100260A128A11D0
:1009E0000A128A15B5270A128A110130A8070318BE
:1009F000A90A0030A9072908FF00280884000A1264
:100A00008A1100260A128A11003A03190800E72CFD
:100A10002908FF00280884000A128A1100260A12F9
:100A20008A110A128A15B5270A128A110130A807FD
:100A30000318A90A0030A9070130AA022A080319DD
:100A40000800082D7508AC007608AD00AE01AF01B6
:100A50002F08AB002E08AA002D08A9002C08A8001A
:100A60001030A4000310A80DA90DAA0DAB0DA40B06
:100A7000322D0E08A4000F08A500A601A701240826
:100A8000A8042508A9042608AA042708AB047508A9
:100A9000A4007608A500A601A7012F082706031DBC
:100AA0005B2D2E082606031D5B2D2D082506031D34
:100AB0005B2D2C082406031D222D2B08A3002A08D9
:100AC000A2002908A1002808A0000800A3007708B8
:100AD000230603198F2D1F102308A200A20DA20DBB
:100AE000A20D1F082206C73922069F001F142030BE
:100AF00083120313A200A20B7B2D000083120313A9
:100B00001F152308A2002208F7001F19852D523057
:100B100083120313A200A20B8B2D0000982D1F1926
:100B2000A52D523083120313A200A20B952D0000B5
:100B3000831203131E08C70083161E088312C60003
:100B4000FF30C6050330C7051F154708A10046083A
:100B5000A00008000030AC000030AB000030AA005C
:100B60000030A900201CC82D2408A907250803115E
:100B70000318013E031DAA07260803110318013EAE
:100B8000031DAB07270803110318013E031DAC0723
:100B90000130A8000310A40DA50DA60DA70DA80BEC
:100BA000CA2D01300310A30CA20CA10CA00CFF3E17
:100BB000031DD22D2308220421042004031DB22D7D
:100BC0002C08A3002B08A2002A08A1002908A000D5
:100BD000080001300A128A1112270A128A110D30F8
:100BE00083120313A400FB30A300A30BF52DA40B69
:100BF000F52D0800A1002108A0002008E70008004A
:100C0000FF1B0A2E83137F1883170008840A031919
:100C1000FF0A080006308A000408840A82070034AC
:100C2000013400340A34003464340034E8340334CA
:100C3000103427348034C0349034D034FF3400343E
:100C40002034203420342034203420342034203404
:100C500020342034203420342034203420342034F4
:100C6000003464347534743479343D342534643458
:100C7000003454343D34253464340034A601A701D3
:100C8000200821040319752EA501A50AA11B542EC5
:100C900001300310A00DA10DFF3E031D492E0130B0
:100CA000A4002408A507462E01300310A60DA70DA9
:100CB000FF3E031D552E21082302031D612E20082F
:100CC0002202031C6A2E2008A2022108031CA3038F
:100CD000A302261401300310A10CA00CFF3E031D3B
:100CE0006B2E0130A502031D542E2708A1002608F3
:100CF000A0000800003029020A3003192802031856
:100D0000832E0A308B2E003029023330031928023B
:100D1000031C8E2E3230A8000030A9000A30A80231
:100D20000030031CA903A902FF30A0000330A1007A
:100D30002908A3002808A2000A128A1134270A12DF
:100D40008A112108A9002008A8002830A00000303E
:100D5000A1002908A3002808A2000A128A113E2631
:100D60002108A9002008A800080028082904031960
:100D7000E22EAD01AD0AA91BC92E01300310A80D4A
:100D8000A90DFF3E031DBE2E0130AC002C08AD079F
:100D9000BB2E29082B02031DCF2E28082A02031C74
:100DA000D72E2808AA022908031CAB03AB02013086
:100DB0000310A90CA80CFF3E031DD82E0130AD0274
:100DC000031DC92E2B08A9002A08A8000800A600A8
:100DD000260879020318F02E7908A4002408A6003A
:100DE000230878020318F82E7808A4002408A3002A
:100DF00026080B3E84000A128A110A260A128A115A
:100E00002307A4002408A50025080A128A11122726
:100E10000A128A11523083120313A400A40B0E2F5E
:100E20000000080083120313A2002208A10004306E
:100E30000310A10CFF3E031D182F21080A128A116E
:100E400055270A128A110A128A11C2270A128A1118
:100E50008312031322080A128A1155270A128A11D3
:100E60000A128A11C2270800A401A501201C3E2FE6
:100E70002208A4070318A50A2308A50701300310B8
:100E8000A20DA30DFF3E031D3F2F01300310A10C47
:100E9000A00CFF3E031D462F20082104031D362F02
:100EA0002508A1002408A000080083120313A00055
:100EB000201C5C2F08155D2F08110310A00C201CAE
:100EC000632F8815642F88110310A00C201C6A2F33
:100ED00008166B2F08120310A00C201C712F881607
:100EE0000800881208000A128A15F2270A128A11CD
:100EF0000A128A1103200A128A110A128A11D627AD
:100F00000A128A110A128A15CA270A128A110A12AB
:100F10008A15AB270A128A110A128A15BF27080000
:100F20002108A3002008A2000310A30CA20C0310A8
:100F3000A30CA20C2208950020080339A20004305B
:100F40000310A20DFF3E031DA02F1708CF39220466
:100F5000970008000B1FB72F83160C1CB72F8312A6
:100F60000C1CB72F0A128A15E4270A128A1174087A
:100F700083120313FF0073088A00720E8300FE0EB3
:100F80007E0E0900831203138814043083120313A6
:100F9000A000A00BC92F83120313881052308312B4
:100FA0000313A000A00BD22F000008008312101022
:100FB0008F018E01343090000F08E6000E08E50026
:100FC00004300A128A11FA250C1083160C148312AD
:100FD00010140800CA014A08031DFC2F4A08A0008B
:100FE0002007483E840083138001840A8001013079
:100FF000A0002008CA07EB2FCA01080008340234F9
:101F180008000130F5070318F60A0030F607080034
:101F2800F501F60101300A128A11FA25080067083E
:101F38000319080067080A128A112E200800640095
:101F48008001840A0406031900340406A42FC03053
:101F58009F00CE3083169F009E0183129E011F149E
:101F68000800A300081423080A128A1112278312F2
:101F78000313081008000C309700950196010030F3
:101F8800A000A1000A128A1190270800FF308316CA
:101F98009200831291018C1083168C1007308312E3
:101FA80092000800101DDF2F101071088F007008B4
:101FB8008E001014080071088F0070088E00080049
:101FC8000C106608F1006508F0000A128A15D62779
:101FD8000A128A150A128A159B270800FF30850005
:101FE800FA308700C0308800FF3083168500FA3049
:081FF8008700C03088000800DA
:02400E003A3F37
:00000001FF
