:08000000803102288731F32F43
:100398001630970008008230220097000800710884
:1003A800A7007008A60008007108A9007008A80036
:1003B8000800F10071088131EE2108007108210060
:1003C800AB007008AA000800640080010131890BA5
:1003D800E9290034F000111EEF29700823009A0063
:1003E8000800A33021009E009F019B019C01013061
:1003F8009D0008007030210099009A0198012200A0
:10040800960121001A1B0800052A6830EA006A08CC
:10041800EB006708DF006608DE006B30EA006A0858
:10042800E00000308231DC2208008231B7228231BC
:100438008131FE2182318131CC2182318131CF213C
:1004480082318131F52182318231722208007408AB
:10045800803AF50080307502031D342A013073029A
:10046800031808007309F5007409F600F50A031962
:10047800F60A7508F3007608F4000800F40074081A
:10048800F2007208F3007408860087010108031956
:10049800522A0130F2007208F407472A73087402DE
:1004A800F000F101F01BF1030800F3007308F200FB
:1004B800F20DF20D21001D087206833972069D00A7
:1004C8001D148530890B662A000021009D149D1893
:1004D8006B2A1C08F1001B08F000080008302300F4
:1004E8009F0080309D0024309E0040309B000330E8
:1004F8009C000030F0000030F1008131E2218231AF
:100508000030F0000030F1008131D8218231003014
:10051800F0000030F1008131D321AE010800A300C2
:10052800A101A20121082307FB007B08860087019F
:100538000108FC007C08A000200803190800200816
:10054800FB00FC017B08F2007C08F3007A08FD0040
:100558007D08F40083313823823101302000A1075F
:100568000030A23D962AFF3022008C00FF308E001A
:10057800353021008C003F308E003F3023008E0044
:1005880015308C0024008C018E0121009517250060
:100598008C018E01373026008C003F308E003F30B2
:1005A80027008C003F308E0014303D009100080079
:1005B800E3005F08E5005E08E4002100A001A10156
:1005C8002000640884006508850012000319002BC8
:1005D8006430E1006108CE006008E2006208CF00E4
:1005E800630884310D2482314E082100A0072000C1
:1005F8004F082100A13DE42A210021082000DF0046
:10060800210020082000DE0008000030FB00003038
:10061800FA000030F9000030F800701C1B2B740839
:10062800F8077508F93D7608FA3D7708FB3D013073
:10063800F435F50DF60DF70D890B1C2B0130F3364B
:10064800F20CF10CF00C890B232B73087204710463
:100658007004031D112B7B08F3007A08F200790857
:10066800F1007808F00008007408031D7408031DE1
:10067800412B72088131DD2108007408083E86008C
:100688008701160001040319652B7408083E8600CB
:100698008701403FF500413FF6007408023E86009E
:1006A8008701403FF700413FF8007808803AF90099
:1006B8007608803A7902031D632B750877020318C0
:1006C80008007408023E8600870101308107413125
:1006D8000318810A0800AC006E1C7A2B2C08A700AE
:1006E8002708FA002408823193228331A61B812B24
:1006F8002608AB002508AA00832BAA01AB01A80194
:10070800A9012908803AA7002B08803A2702031D6F
:100718008F2B2A0828020318A32B2030F200003060
:10072800F30020002C08A7002708F40083313823A1
:10073800833101302000A8070030A93D852B200017
:100748006E18AE2B2C08A7002708FA00240882315F
:10075800932283312408823142222A087007A40098
:100768002B08713DA500080082311922833123002E
:100778008C018E018E1421001D10A0309E000530C2
:100788008231592283317008CF007108D000D1011D
:10079800D2010030F3000030F2000930F100AB3034
:1007A800F0005208F7005108F6005008F5004F080D
:1007B800F4008331092383317308D2007208D10011
:1007C8007108D0007008CF000730D236D10CD00C99
:1007D800CF0C890BE92B00302000E6008830E700B9
:1007E800210050082000E90021004F082000E800FF
:1007F80082310922833115302000ED004B30EC00A6
:10080800BE30890B052CEC0B052CED0B052C0000DC
:10081800C32BDD004E0886008701403FD000413FD2
:10082800D10050088400510885001200253A031DA4
:10083800BA2C4E0886008701013081074131031820
:10084800810A2100A201A3012000EE01EF01FF307F
:100858002100A400FF30A50020004E088600870173
:10086800403FD000413FD100500884005108850026
:100878001200643A03194F2C4E0886008701403F46
:10088800D000413FD1005008840051088500120073
:10089800693A031D882C4E088600870101308107BC
:1008A80041310318810A4F08860087010108840036
:1008B800850102308107003FD000013FD100500878
:1008C800D5005108D600890D893B8909D700D80081
:1008D800D900DA00DB00DC005508B0005608B1008A
:1008E8005708B2005808B3005908B4005A08B500B0
:1008F8005B08B6005C08B7005D088631AC26310895
:10090800CF003008CE0008004E0886008701403F1F
:10091800D000413FD10050088400510885001200E2
:10092800253A031DAF2C4E08860087010130810748
:1009380041310318810A2530F2000030F3005D08C8
:10094800D0005008F4008331382301302000CE0055
:100958000030CF0008004E0886008701013081076B
:1009680041310318810ACE01CF0108004E088600E4
:100978008701403FD000413FD10050088400510812
:1009880085000008D200D3015208F2005308F30092
:100998005D08D4005408F4008331382384312000E2
:1009A8004E08860087010130810741310318810A0A
:1009B800A92CF2012830860000308700473FF0005C
:1009C800F01F072D2000A809A909AA09AB09AC093D
:1009D800AD09AE09AF09A80A031D052DA90A031D13
:1009E800052DAA0A031D052DAB0A031D052DAC0A0A
:1009F800031D052DAD0A031D052DAE0A031D052D8A
:100A0800AF0AF201F20A2030860000308700473F23
:100A1800F000F01F2E2D2000A009A109A209A309AA
:100A2800A409A509A609A709A00A031D2E2DA10A34
:100A3800031D2E2DA20A031D2E2DA30A031D2E2DE4
:100A4800A40A031D2E2DA50A031D2E2DA60A031D7B
:100A58002E2DA70A200020082104220423042404A0
:100A68002504260427040319862DF101F10AA71B82
:100A78004A2DA035A10DA20DA30DA40DA50DA60DFF
:100A8800A70D0130F0007008F1073B2D27082F0251
:100A9800031D682D26082E02031D682D25082D022A
:100AA800031D682D24082C02031D682D23082B0222
:100AB800031D682D22082A02031D682D210829021A
:100AC800031D682D20082802031C7A2D2008A8027F
:100AD8002108A93B2208AA3B2308AB3B2408AC3BCE
:100AE8002508AD3B2608AE3B2708AF3BA736A60C2A
:100AF800A50CA40CA30CA20CA10CA00C0130F102B3
:100B0800031D4A2D72080319A72DA809A909AA09C6
:100B1800AB09AC09AD09AE09AF09A80A031DA72D99
:100B2800A90A031DA72DAA0A031DA72DAB0A031D99
:100B3800A72DAC0A031DA72DAD0A031DA72DAE0ACC
:100B4800031DA72DAF0A20002808A0002908A1002E
:100B58002A08A2002B08A3002C08A4002D08A50031
:100B68002E08A6002F08A7000800F20120308600F2
:100B780000308700473FF000F01FE32D2000A00958
:100B8800A109A209A309A409A509A609A709A00AF8
:100B9800031DE12DA10A031DE12DA20A031DE12D6C
:100BA800A30A031DE12DA40A031DE12DA50A031DB7
:100BB800E12DA60A031DE12DA70AF201F20A283049
:100BC800860000308700473FF000F01F0E2E2000FF
:100BD800A809A909AA09AB09AC09AD09AE09AF0969
:100BE800A80A031D0A2EA90A031D0A2EAA0A031D14
:100BF8000A2EAB0A031D0A2EAC0A031D0A2EAD0AE3
:100C0800031D0A2EAE0A031D0A2EAF0A0130F0009A
:100C18007008F20673308600003087000830F00054
:100C280000301E00F00B152E20002008210422049D
:100C3800230424042504260427040319792EF1012A
:100C4800F10AA71B342EA035A10DA20DA30DA40DEA
:100C5800A50DA60DA70D0130F0007008F107252E8F
:100C6800F335F40DF50DF60DF70DF80DF90DFA0D38
:100C780027082F02031D5A2E26082E02031D5A2E5E
:100C880025082D02031D5A2E24082C02031D5A2E56
:100C980023082B02031D5A2E22082A02031D5A2E4E
:100CA80021082902031D5A2E20082802031C6D2E34
:100CB8002008A8022108A93B2208AA3B2308AB3B2D
:100CC8002408AC3B2508AD3B2608AE3B2708AF3BC4
:100CD8007314A736A60CA50CA40CA30CA20CA10C8B
:100CE800A00C0130F102031D342E720803199A2E4C
:100CF800F309F409F509F609F709F809F909FA09F0
:100D0800F30A031D9A2EF40A031D9A2EF50A031DF1
:100D18009A2EF60A031D9A2EF70A031D9A2EF80A30
:100D2800031D9A2EF90A031D9A2EFA0A7308200049
:100D3800A0007408A1007508A2007608A30077082F
:100D4800A4007808A5007908A6007A08A70008007A
:100D5800BF003008C4003108C5003208C600330897
:100D6800C7003408C8003508C9003608CA00370863
:100D7800CB004430860000308700473FB800B81FDA
:100D8800C72E0130C82E00302000B900BA0139083A
:100D9800C2003A08C300420843040319F12EC409EB
:100DA800C509C609C709C809C909CA09CB09C40AB6
:100DB800031DF12EC50A031DF12EC60A031DF12ECF
:100DC800C70A031DF12EC80A031DF12EC90A031D07
:100DD800F12ECA0A031DF12ECB0A2100A51BF92EFC
:100DE800FD302000EE05FF30EF0521002508803A90
:100DF8002000B80080303802031D052F0130210083
:100E0800240203180D2F01302000BD000030BE0061
:100E1800152F210025082000BE00210024082000ED
:100E2800BD00210023082000C10021002208200065
:100E3800C00042084304031D232F6E1D272FFF30D7
:100E4800C007FF30C13D1F30CC000030CD0021006D
:100E5800CE01B92F2000440845044604470448043D
:100E680049044A044B04031D532F3E08803AB80036
:100E780080303802031D422F01303D020318532FE2
:100E880020004108803AB80080303802031D4E2FF8
:100E980001304002031CC52F2000EE1CC52FFF3077
:100EA8002000CC07FF30CD3D0A30A000A101A201EF
:100EB800A301A401A501A601A7014408A8004508AB
:100EC800A9004608AA004708AB004808AC00490832
:100ED800AD004A08AE004B08AF008431DD248631EE
:100EE8002108F4002008F30082312B228631730890
:100EF800303E2000B8004C08AF3E86008701380815
:100F08008100FF30BD07FF30BE3DFF30C007FF3016
:100F1800C13D0A30A000A101A201A301A401A501BD
:100F2800A601A7014408A8004508A9004608AA0088
:100F38004708AB004808AC004908AD004A08AE00B5
:100F48004B08AF008531B92586312008C400210837
:100F5800C5002208C6002308C7002408C8002508C1
:100F6800C9002608CA002708CB0020004D08803A8F
:100F7800B80080303802031DC32F01304C0203181B
:100F88002E2F200042084304031DCC2F6E1DE22F94
:100F9800FF30CC07FF30CD3D42084304031DD62F58
:100FA8002B30D72F2D30BB000030BC003B08B800D9
:100FB8004C08AF3E86008701380881004C08AF3ED8
:100FC800B8003808A4004108A6004008A5003F085A
:100FD80083316F232508B1002408B00008002000E1
:100FE800EE01EF01A0308400003085002F30813100
:100FF800E82120008331B82B0A34563469346E3422
:101008003D342534643420346D3456340D34003482
:020000040001F9
:08000000FF3FFF3FFF3FFF3F00
:04000E00E43FFF3F8D
:00000001FF
