:1000000002308A007C2A0000FF00030E8301A10059
:100010000A08A0008A010408A2007708A300780853
:10002000A4007908A5007A08A600831383128C30F7
:100030008400001C1D280C182E2822088400230888
:10004000F7002408F8002508F9002608FA0020081F
:100050008A00210E8300FF0E7F0E09008A110A120A
:100060004A280A108A100A118207C034F934A434CD
:10007000B034993492348234D83480349034883413
:100080008334C634A13486348E347F34BF34B734DD
:10009000FF3400348E01D8308F00EF308E00F03006
:1000A000831688008312880183168601FF3083122D
:1000B00086002708033C031CA701B40A3408633CEC
:1000C00003189728D9015908033C031C96282C30A3
:1000D0005907840083130008DB003030590784007F
:1000E000831300085B02031994282C3059078400FD
:1000F00083130008DA002C305907F800FA010318BE
:10010000FA0A30305907840083130008DD007808AC
:10011000840083137A1883175D08800030305907F4
:10012000840083135A088000D90A6328B401283058
:100130002707840083130008DB002C302707840086
:1001400083130008DB048316860183125B08860094
:100150002708A70AF8000130F700F8080319B428A7
:100160000310F70DF80BB0287708FF3ADB00F030EA
:100170008316880083125B0888000C108A110A120B
:100180001D2878080319C92877088000840AF80B0D
:10019000C4280800283084008313FF30F70004309F
:1001A000F800C1202C3084008313F7010430F800DC
:1001B000C120303084008313F7010430F800C120DF
:1001C000A701B4018A110A12A22A8318EA2854301E
:1001D00084008313F701F801F901FA01D401D50174
:1001E000D601D70153085204510450040319282999
:1001F0002030D8000310CC0DCD0DCE0DCF0DD40D79
:10020000D50DD60DD70D53085702031D11295208DD
:100210005602031D112951085502031D11295008CA
:100220005402031C22295008D4025108031C510F08
:10023000D5025208031C520FD6025308031C530F59
:10024000D7020314F70DF80DF90DFA0DD80BFA28A3
:1002500054088000840A55088000840A56088000EB
:10026000840A5708800008000330C300C201420816
:10027000033C031C8E2928304307F800FA010318B9
:10028000FA0A7808C4007A08C500C7010408C60045
:100290004710831B4714831448308400831341089C
:1002A000CF004008CE003F08CD003E08CC00D3016F
:1002B000D201D1010A30D000E5204808F7004908F2
:1002C000F8004A08F9004B08FA0046088400831336
:1002D0004718831748083120F80044088400831326
:1002E000451883177808800083104108CF00400824
:1002F000CE003F08CD003E08CC00D301D201D10191
:100300000A30D000E5207A08C1007908C0007808DA
:10031000BF007708BE00C303C20A3729C2014208E2
:10032000033C031CA92928304207840083130008DA
:10033000C03C031DA6294208023C031CA529283005
:10034000420784008313FF308000A729A929C20A2D
:100350008F2908003E08033C031CB42928303E07BF
:10036000840083133F08800008003F30840083131B
:1003700000080319C8290630F800F701F70BBE2959
:10038000F80BBD297B30F700F70BC429800BBB2984
:100390008A110A12D22A43080739F700430CF800E1
:1003A000F80CF80C1F30F805780845078400831313
:1003B00046188317F801F80AF70ADF29F80DF70B3A
:1003C000DE29C4080319E72978088004EA29F80916
:1003D000780880058A110A121C2A43080739F70099
:1003E000430CF800F80CF80C1F30F80578084407A7
:1003F00084008313451883170008F800F70A012AC0
:10040000F80CF70B002A0130F8058A110A12212A8C
:100410003E08F8003F08FA007808840083137A1831
:100420008317C2010018C20A4008C3000130C4008B
:10043000C6018030C500CB294008C300C501C401F6
:10044000ED2900307818013042020319522A3E0883
:10045000F8003F08FA007808840083137A1883179D
:10046000003000180130013C031D4B2A01303E07CB
:10047000840083133F188317800A00080A3C03187E
:100480004A2A3E08840083133F1883170010013066
:10049000F800642A512A3E08840083133F1883170A
:1004A0000014622A01303E07840083133F1883172B
:1004B00080080319622A01303E07840083133F1825
:1004C000831780010030F80008002C303E078400BC
:1004D0008313800130303E078400831380010800BD
:1004E0002C303E0784008313FF30800030303E07FD
:1004F000840083138001080003081F3983008316DA
:100500001F149F141F159F1107309C008313831223
:10051000A701A801A901AA01AB01AC01AD01AE017F
:10052000AF01B001B101B201B301B401B50127308F
:10053000B7000B30B6003814B9013A14BB013C14B3
:10054000BD01CA28C101C0013708BF003608BE007E
:10055000BF1FAC2AC003C1033421853090008E0137
:10056000D8308F00EF308E0083160C1483120B17D7
:10057000C0308B04BE018C30BF00AA210130BE0008
:10058000CF30BF00AA210230BE00C630BF00AA2172
:100590000330BE00C630BF00AA210430BE00FA30CE
:1005A000BF00B529BE0BCF2AC101C0013708BF006B
:1005B0003608BE00BF1FDE2AC003C1033421BF01BD
:1005C0003830BE00C1014530C0000822F8080319C8
:1005D000062BB60A0319B70AB71BFB2A3708263CB5
:1005E0000318FB2AFF3A031DF92A36080F3C0318AB
:1005F000FB2AB701B601C101C0013708BF003608A8
:10060000BE00BF1F052BC003C1033421BF013A3018
:10061000BE00C1014630C0000822F8080319252B8E
:1006200036080319B703B603B71F1A2B2730B700D4
:100630000F30B600C101C0013708BF003608BE0048
:10064000BF1F242BC003C1033421BF013C30BE00B7
:10065000C1014730C0000822F80803195D2BB50A14
:100660003508043C031CB50135080319432B013A36
:100670000319472B033A03194A2B013A0319502B4C
:10068000073A0319572B0330BE0065225D2BBE01CC
:1006900070225D2BBE0165220130BE0070225D2BF1
:1006A0000130BE0065220230BE0070225D2B023098
:0E06B000BE0065220330BE007022DF2A630008
:02400E00723FFF
:00000001FF
;PIC16F877A
;CRC=D545  CREATED="23-Aug-21 08:42"
