:0400000080311E2805
:1000060008007E1480310B1F1C284E01191A0F1E82
:10001600132842016D088A006C080A0080311C28EA
:10002600991A8F1E1C2842016B088A006A080A006A
:1000360080317E10090080312028FC014101EF014A
:10004600203084000130850044309C31F324803117
:10005600A03084000130850050309C31F3247E109E
:10006600400193313D2BB600B401B501400157085C
:100076004101CA00400156084101C9004001550826
:100086004101C800400154084101C7004A08400127
:10009600BD00410149084001BC004101480840013A
:1000A600BB00410147084001BA000030C1000030E2
:1000B600C0000030BF000030BE0092313C228031CB
:1000C60003187D2801304101B4000030B5004A080C
:1000D600F4004908F3004808F2004708F1009D3192
:1000E6000A2580317408CA007308C9007208C8005E
:1000F6007108C7004101CD01CE0142015B084101F3
:10010600BA0042015A084101B90034083504031DFA
:100116008F2842015E1DA928410134083504031DBC
:1001260096282B3097282D30A0000030A1002008FB
:100136004001D90059084301A00001304101CD0713
:100146000030CE3DFF30B907FF30BA3D41014A08C5
:10015600F4004908F3004808F2004708F10091311D
:10016600C421803171037204031DEF285808BF3E75
:10017600D900FF3003180030DA0000305A021A3076
:10018600031959020318CB281830F100A030CE28E5
:100196002030F100A030F20041014D08A03E9E3112
:1001A6005A268031FD30B907FF30BA3DA0304001F4
:1001B600D9005908A80041013A084001AA004101A6
:1001C60039084001A900410136089031BF202908AD
:1001D600D5002808D400080041014A08F40049085F
:1001E600F3004808F2004708F1009131C42180313C
:1001F60071087204031D35295808BF3ED900FF3027
:1002060003180030DA0000305A021A300319590276
:10021600031811291C30F100A03014292430F100F4
:10022600A030F20041014D08A03E9E315A26803191
:10023600FD30B907FF30BA3DA0304001D90059085A
:10024600A80041013A084001AA00410139084001CD
:10025600A900410136089031BF202908D500280899
:10026600D40008003F304101D2008030D100003078
:10027600D0000030CF00CB01CC014A08F400490879
:10028600F3004808F2004708F1000030F80000309B
:10029600F7000030F6000030F5009031282080315C
:1002A600031C8429102A4130A3002030A20000300C
:1002B600A1000030A000410152084001A700410101
:1002C60051084001A600410150084001A500410126
:1002D6004F084001A4008B312823803123084101B7
:1002E600D200400122084101D1004001210841010C
:1002F600D000400120084101CF000130CB0700307B
:10030600CC3D41014A084001BD0041014908400178
:10031600BC00410148084001BB00410147084001BB
:10032600BA004130A3002030A2000030A100003006
:10033600A000410152084001A700410151084001B7
:10034600A600410150084001A50041014F084001A7
:10035600A4008B31282380312308C1002208C00065
:100366002108BF002008BE0092313C228031031CC8
:10037600EB2956294130A9002030A8000030A700FB
:100386000030A600410152084001AD00410151086C
:100396004001AC00410150084001AB0041014F084B
:1003A6004001AA0096318726803129084101D200F2
:1003B600400128084101D100400127084101D00031
:1003C600400126084101CF00FF30CB07FF30CC3D6E
:1003D60041014A084001BD00410149084001BC00F5
:1003E600410148084001BB00410147084001BA00ED
:1003F600410152084001C100410151084001C000BD
:10040600410150084001BF0041014F084001BE00B4
:1004160092313C228031031CBD295808D900DA01EB
:100426005908F7005A08F8009D31332580317708BE
:10043600DB005B084101BC003C084001D9005908BB
:100446004101BB0067303C06031D452A42015C089A
:100456005D04031D322A0130DC000030DD005D083A
:10046600803A4001D90080305902031D3D2A0130EF
:1004760042015C020318482A06304101B7000030E9
:10048600B800502A4201DD1B3F2A42015D084101A6
:10049600B80042015C084101B70067303C06031D05
:1004A600832A4C08803A4001D9007F305902031D47
:1004B6005F2AFC3041014B02031C7D2A41013708AB
:1004C600FF3E4001D900FF304101383D4001DA00CE
:1004D6005A08803ADB0041014C08803A40015B0231
:1004E600031D792A41014B0840015902031C7D2A4C
:1004F60066307E2A65304001D90059084101BB00AB
:100506003808AD003708AC0067303C06031D902A5A
:1005160066303B060319CC1F942A0130AC07003025
:10052600AD3D66303B06031DAC2ACC1FA42A3F30E6
:10053600D2008030D1000030D0000030CF00CB0197
:10054600CC0167303C060319AC2A4B08AC074C08B3
:10055600AD3DC501C6014A08C0004908BF004808AC
:10056600BE004708BD005208B1005108B00050084F
:10057600AF004F08AE004608803A4001D90041015D
:100586002D08803A40015902031DCC2A41012C084E
:1005960045020318972B410152084001A900410169
:1005A60051084001A800410150084001A70041013F
:1005B6004F084001A600410140084001AD0041013D
:1005C6003F084001AC0041013E084001AB0041013B
:1005D6003D084001AA009631872680312908C300CC
:1005E6002808C2002708C1002608C00094316724E5
:1005F6008031400143084101C400400142084101E5
:10060600C300400141084101C200400140084101C8
:10061600C1004408F4004308F3004208F200410810
:10062600F10091315F2180317208B3007108B20088
:1006360044084001A700410143084001A6004101CA
:1006460042084001A500410141084001A4004101C2
:1006560052084001A300410151084001A200410196
:1006660050084001A10041014F084001A0008B3114
:10067600282380312308BD002208BC002108BB00C6
:100686002008BA00410140084001C10041013F086D
:100696004001C00041013E084001BF0041013D0844
:1006A6004001BE009E311E2680313D084101C0003A
:1006B60040013C084101BF0040013B084101BE002A
:1006C60040013A084101BD0041304001A9002030F7
:1006D600A8000030A7000030A600410152084001E2
:1006E600AD00410151084001AC00410150084001F4
:1006F600AB0041014F084001AA00963187268031A0
:1007060029084101D200400128084101D1004001D9
:1007160027084101D000400126084101CF000130E1
:10072600C5070030C63DBE2A40304001A300A030B8
:10073600A2000030A1000030A00041015208400193
:10074600A700410151084001A6004101500840019F
:10075600A50041014F084001A4008B3128238031B8
:1007660023084101C400400122084101C3004001A1
:1007760021084101C200400120084101C100400892
:100786004001BD0041013F084001BC0041013E0857
:100796004001BB0041013D084001BA004101440847
:1007A6004001C100410143084001C0004101420827
:1007B6004001BF00410141084001BE0092313C2288
:1007C60080310318E92B00304101032C4101400818
:1007D600F4003F08F3003E08F2003D08F10044082B
:1007E600F8004308F7004208F6004108F50090318A
:1007F60028208031031C0A2C410132180A2C0030B3
:10080600C4000030C3000030C2000030C100410106
:100816004408F4004308F3004208F2004108F100DE
:100826004A08F8004908F7004808F6004708F500A6
:1008360089314621803174084101C0007308BF0028
:100846007208BE007108BD0040084001BD004101AC
:100856003F084001BC0041013E084001BB00410188
:100866003D084001BA004130A3002030A20000300C
:10087600A1000030A000410131084001A70041015C
:1008860030084001A60041012F084001A5004101A2
:100896002E084001A4008B31282380312308C10093
:1008A6002208C0002108BF002008BE0092313C2269
:1008B6008031031C962C01304101CB070030CC3D22
:1008C60041304001A3002030A2000030A1000030DA
:1008D600A000410131084001A70041013008400154
:1008E600A60041012F084001A50041012E08400144
:1008F600A4008B312823803123084101B100400137
:1009060022084101B000400121084101AF00400129
:1009160020084101AE0066303B06031D962C0130CF
:10092600AC070030AD3D41013108D2003008D1009E
:100936002F08D0002E08CF0065303B060319A82CDF
:100946004C08AB004B08AA00AA2CAA01AB01A801CF
:10095600A901A601A701C501C601E22D4101520860
:100966004001A900410151084001A8004101500879
:100976004001A70041014F084001A600410140087F
:100986004001AD0041013F084001AC0041013E0875
:100996004001AB0041013D084001AA00963187267F
:1009A60080312908C3002808C2002708C10026088C
:1009B600C000943167248031400143084101C400DE
:1009C600400142084101C300400141084101C20003
:1009D600400140084101C1004408F4004308F30007
:1009E6004208F2004108F10091315F21803172081E
:1009F600B3007108B20042015E1A102D410132089F
:100A06003304031D102D67303C060319AB1F102D50
:100A16000130A6070030A73D632D410128082904AF
:100A26000319AB1F2F2D2E304001D90041014D086F
:100A3600A03E860001308700400159088100013040
:100A46004101CD070030CE3DFF30B907FF30BA3D3A
:100A56000130A8000030A9002608270403194D2DEF
:100A660030304001D90041014D08A03E86000130DA
:100A7600870040015908810001304101CD0700304F
:100A8600CE3DFF30B907FF30BA3DFF30A607FF3035
:100A9600A73D2F2D3208303E4001D90041014D08B7
:100AA600A03E8600013087004001590881000130D0
:100AB6004101CD070030CE3DFF30B907FF30BA3DCA
:100AC60044084001A700410143084001A600410136
:100AD60042084001A500410141084001A40041012E
:100AE60052084001A300410151084001A200410102
:100AF60050084001A10041014F084001A0008B3180
:100B0600282380312308BD002208BC002108BB0031
:100B16002008BA00410140084001C10041013F08D8
:100B26004001C00041013E084001BF0041013D08AF
:100B36004001BE009E311E2680313D084101C000A5
:100B460040013C084101BF0040013B084101BE0095
:100B560040013A084101BD0041304001A900203062
:100B6600A8000030A7000030A6004101520840014D
:100B7600AD00410151084001AC004101500840015F
:100B8600AB0041014F084001AA009631872680310B
:100B960029084101D200400128084101D100400145
:100BA60027084101D000400126084101CF00FF304F
:100BB600AA07FF30AB3D0130C5070030C63D4608E9
:100BC600803A4001D90041012D08803A400159027E
:100BD600031DF02D41012C0845020318002E41018A
:100BE6004E08803A4001D90080305902031DFE2D7F
:100BF6004B3041014D02031CB12C41012808290448
:100C0600031D192E42015E1E192E2E304001D900F9
:100C160041014D08A03E8600013087004001590879
:100C2600810001304101CD070030CE3D41014D0824
:100C3600A03E860001308700810165303B06031D1A
:100C4600DB2E4F30C5000030C6004508A03E8600AA
:100C5600013087008101B401B501CC1F3B2E013064
:100C6600B4000030B500CB09CC09CB0A0319CC0A75
:100C76000230B7000030B8004B084C040319792E37
:100C8600FF304101C507FF30C63D0A30F100003094
:100C9600F2004C08F4004B08F3009F31BB2780316B
:100CA6007108303E4001D90041014508A03E86004A
:100CB600013087004001590881000A30F1000030F8
:100CC600F20041014C08F4004B08F30091310E216B
:100CD60080317208CC007108CB00FF30B707FF30B7
:100CE600B83DFF30B907FF30BA3D3F2E3808803A8D
:100CF6004001D90080305902031D842E0130410184
:100D060037020318432EFF304101C507FF30C63DA9
:100D160034083504031D912E2B30922E2D30A2005F
:100D26000030A30022084001D90041014508A03E39
:100D3600860001308700400159088100FF304101DB
:100D4600B907FF30BA3DFF30C507FF30C63D400149
:100D56005808BF3ED900FF3003180030DA000030D3
:100D66005A021A3003195902031CBB2E6530BC2ED9
:100D760045304101A4000030A50024084001D900F7
:100D860041014508A03E8600013087004001590810
:100D96008100FF304101B907FF30BA3D4508A03E4A
:100DA600F1000130F2004D08A03E9E315A268031F6
:100DB600A0304001D9005908A80041013A08400175
:100DC600AA00410139084001A900410136089031C5
:100DD600BF202908D5002808D4000800F3012030D8
:100DE600860000308700473FF100F11F1B2F4001AE
:100DF600A009A109A209A309A409A509A609A70989
:100E0600A00A031D192FA10A031D192FA20A031DEB
:100E1600192FA30A031D192FA40A031D192FA50AAA
:100E2600031D192FA60A031D192FA70AF301F30A9A
:100E36002830860000308700473FF100F11F462F1B
:100E46004001A809A909AA09AB09AC09AD09AE096F
:100E5600AF09A80A031D422FA90A031D422FAA0A99
:100E6600031D422FAB0A031D422FAC0A031D422F5E
:100E7600AD0A031D422FAE0A031D422FAF0A0130F1
:100E8600F1007108F30674308600003087000830E0
:100E9600F10000301E00F10B4D2F40012008210407
:100EA6002204230424042504260427040319B12F4D
:100EB600F201F20AA71B6C2FA035A10DA20DA30DFE
:100EC600A40DA50DA60DA70D0130F1007108F207BE
:100ED6005D2FF435F50DF60DF70DF80DF90DFA0D3C
:100EE600FB0D27082F02031D922F26082E02031D35
:100EF600922F25082D02031D922F24082C02031D74
:100F0600922F23082B02031D922F22082A02031D6B
:100F1600922F21082902031D922F20082802031C64
:100F2600A52F2008A8022108A93B2208AA3B2308CE
:100F3600AB3B2408AC3B2508AD3B2608AE3B270857
:100F4600AF3B7414A736A60CA50CA40CA30CA20CDC
:100F5600A10CA00C0130F202031D6C2F73080319BB
:100F6600D22FF409F509F609F709F809F909FA097A
:100F7600FB09F40A031DD22FF50A031DD22FF60A28
:100F8600031DD22FF70A031DD22FF80A031DD22FF5
:100F9600F90A031DD22FFA0A031DD22FFB0A740881
:100FA6004001A0007508A1007608A2007708A300FA
:100FB6007808A4007908A5007A08A6007B08A7008F
:100FC6000800F501F50A2030710672040319F82F9E
:100FD6007108F73EF300FF30723DF40000307402F2
:100FE6000530031973020318F5017508F300F401BF
:0A0FF6007308F1007408F20008000F
:101004004001A90042015A085B04031D11285B0832
:101014004001A80042015A084001A7001A285A08B2
:10102400FF3E4001A700FF3042015B3D4001A800A4
:1010340042015E1C2C2840012008A200A3012208C2
:10104400F4002308F5002908A4002408F6009F31C1
:10105400052788314001A81F3128A701A801A5014F
:10106400A6012608803AA2002808803A2202031D1D
:101074003D2827082502031851282030F4000030A9
:10108400F50040012908A2002208F6009F31052737
:10109400883101304001A5070030A63D33284201C4
:1010A4005E18622840012008A200A3012208F4006F
:1010B4002308F5002908A4002408F6009F31052719
:1010C40040012508013EA0000030263DA100080093
:1010D400F3012830860000308700473FF100F11FFC
:1010E40094284001A809A909AA09AB09AC09AD09CA
:1010F400AE09AF09A80A031D9228A90A031D922864
:10110400AA0A031D9228AB0A031D9228AC0A031DE8
:101114009228AD0A031D9228AE0A031D9228AF0A35
:10112400F301F30A2030860000308700473FF100C6
:10113400F11FBB284001A009A109A209A309A40920
:10114400A509A609A709A00A031DBB28A10A031D16
:10115400BB28A20A031DBB28A30A031DBB28A40A9B
:10116400031DBB28A50A031DBB28A60A031DBB2813
:10117400A70A40012008210422042304240425048E
:101184002604270403191329F201F20AA71BD728FE
:10119400A035A10DA20DA30DA40DA50DA60DA70D9F
:1011A4000130F1007108F207C82827082F02031D37
:1011B400F52826082E02031DF52825082D02031DF7
:1011C400F52824082C02031DF52823082B02031DEF
:1011D400F52822082A02031DF52821082902031DE7
:1011E400F52820082802031C07292008A802210842
:1011F400A93B2208AA3B2308AB3B2408AC3B2508A7
:10120400AD3B2608AE3B2708AF3BA736A60CA50C82
:10121400A40CA30CA20CA10CA00C0130F202031D1F
:10122400D728730803193429A809A909AA09AB09FD
:10123400AC09AD09AE09AF09A80A031D3429A90AEE
:10124400031D3429AA0A031D3429AB0A031D3429BA
:10125400AC0A031D3429AD0A031D3429AE0A031D4B
:101264003429AF0A40012808A0002908A1002A084F
:10127400A2002B08A3002C08A4002D08A5002E080A
:10128400A6002F08A7000800740880394001A000B8
:101294002008A8007435A0002008AA00F31B2A1413
:1012A4002A08031963292A0A031D60290030F4005F
:1012B4000030F3000030F2000030F100F317F401C5
:1012C4006B290030F4000030F3000030F2000030ED
:1012D400F10078088039A0002008A9002908280610
:1012E400031D28177835A0002008A900F71B29142E
:1012F400290803198B29290A031D88290030F800BD
:101304000030F7000030F6000030F500F717F80160
:1013140093290030F8000030F7000030F600003068
:10132400F5002A0829020318D929281F9D2980308D
:10133400A0002008A8062A08A0002008AB0029085D
:10134400A0002008AA002B08A0002008A90071080A
:10135400A0002008AB007508A0002008F1002B08AD
:10136400A0002008F5007208A0002008AB00760851
:10137400A0002008F2002B08A0002008F600730843
:10138400A0002008AB007708A0002008F3002B0879
:10139400A0002008F7007408A0002008AB0078081B
:1013A400A0002008F4002B08A0002008F800AB01DE
:1013B4002908A000A1012108A3002A082002A200F4
:1013C400031CA3032308803AA40080302402031DD5
:1013D400ED291A302202031C212A740873047204B2
:1013E40071040319F7290130F82900304001A000E5
:1013F4002008AB000030F4000030F3000030F200AD
:101404000030F1002908A0002008AA00262A2B1C7D
:10141400112A2B360138A0002008AB00132A031030
:10142400AB0C7118AB170130A000F437F30CF20CBD
:10143400F10CA00B172A0130A0002008AA074001D4
:1014440029082A02031C092A281B572A2A08031DD3
:10145400342A0030F4000030F3000030F200003091
:10146400F10008007508F1077608F23D7708F33DAE
:101474007808F43D741CD12A2B1C462A2B360138DB
:10148400A0002008AB00482A0310AB0C7118AB175E
:101494000130A000F437F30CF20CF10CA00B4C2A31
:1014A4000130A0002008AA07D12A7408803AA000BD
:1014B4007808803A2002031D692A77087302031D05
:1014C400692A76087202031D692A750871020318D5
:1014D400A12AFF30A000FF30A100FF30A200FF309E
:1014E400A30071087502A4007208763BA500730876
:1014F400773BA6007408783BA7002408A0072508BA
:10150400A13D2608A23D2708A33D2308F400220894
:10151400F3002108F2002008F1008030A000200828
:10152400A806AB09AB0A2B08031DA92A0130F10751
:101534000030F23D0030F33D0030F43DA92A750837
:10154400F1027608F23B7708F33B7808F43B740821
:10155400730472047104031DCF2A2B08031DCF2AC0
:101564000030F4000030F3000030F2000030F100ED
:1015740008000130F135F20DF30DF40D890BBC2A8E
:10158400AB1B71142B1CC82A0314C92A0310AB0DFE
:101594002A080319CF2A0130AA02F31FBB2AA90182
:1015A400AB1FDC2A2B087F3903197118DA2ADC2ACD
:1015B400A901A90A29080319082B0130F1070030F1
:1015C400F23D0030F33D0030F43D741C082B7108EB
:1015D400A0007208A1007308A2007408A3000130DF
:1015E400A400A337A20CA10CA00CA40BF32A23087B
:1015F400F4002208F3002108F2002008F1002A0A6E
:101604000319082B0130A0002008AA072A0A031D89
:101614002A08031D182B0030F4000030F3000030BA
:10162400F2000030F1002A080319A8012A1C1C2B1F
:10163400F317202B7F30A0002008F3052A36A000E2
:101644002008F400A81F0800F417080023088039B4
:10165400A8002808AD002335A8002808AF00A21B65
:101664002F142F080319432B2F0A031D412B00307D
:10167400A3000030A2000030A1000030A000A21797
:101684004B2B0030A3000030A2000030A10000303A
:10169400A00027088039A8002808AD062735A8002F
:1016A4002808AE00A61B2E142E080319662B2E0A3A
:1016B400031D642B0030A7000030A6000030A500F5
:1016C4000030A400A6176E2B0030A7000030A6003F
:1016D4000030A5000030A4002E08031D2F08031DB0
:1016E4007C2B0030A3000030A2000030A1000030A9
:1016F400A00008002008A8002808F10026089E3150
:101704003B268B317208B9007108B8003808A8006C
:10171400A901AA01AB012B08B3002A08B2002908C9
:10172400B1002808B0003908A800A901AA01AB013A
:101734002B08B7002A08B6002908B5002808B40009
:101744002108A8002808F10025089E313B268B318A
:101754007208B9007108B8003808A800A901AA01E4
:10176400AB012808B0072908B13D2A08B23D2B086F
:10177400B33D3908A800A901AA01AB012808B407A0
:101784002908B53D2A08B63D2B08B73D2208A80014
:101794002808F10024089E313B268B317208B900D9
:1017A4007108B8003808A800A901AA01AB012808EB
:1017B400B0072908B13D2A08B23D2B08B33D3908CA
:1017C400A800A901AA01AB012808B4072908B53D5E
:1017D4002A08B63D2B08B73D0830B035B10DB20D1F
:1017E400B30D890BEF2B2108A8002808F100240869
:1017F4009E313B268B317208B9007108B800380855
:10180400B0073908B13D0030B23DB33D2008A8000F
:101814002808F10025089E313B268B317208B90057
:101824007108B8003808B0073908B13D0030B23D3E
:10183400B33D0830B035B10DB20DB30D890B1C2C7E
:101844002008A8002808F10024089E313B268B318B
:101854007208B9007108B8003808B0073908B13DFA
:101864000030B23DB33D2108A8002808F100260845
:101874009E313B268B317208B9007108B8003808D4
:10188400B4073908B53D0030B63DB73D2208A8007D
:101894002808F10025089E313B268B317208B900D7
:1018A4007108B8003808B4073908B53D0030B63DB2
:1018B400B73D2208A8002808F10026089E313B26DF
:1018C4008B317208B9007108B8003808A8003908CB
:1018D400A900AA01AB010830A835A90DAA0DAB0DCA
:1018E400890B6E2C2808B4072908B53D2A08B63D93
:1018F4002B08B73D3308A800A901AA01AB012808A9
:10190400B4072908B53D2A08B63D2B08B73D083071
:10191400B035B10DB20DB30D890B8A2C2F082E07EB
:10192400A800A901A90D2808823EB800FF30293D6E
:10193400B900B61BB22C0130B435B50DB60DB70DD8
:10194400890B9E2CB31B34140130B035B10DB20D8C
:10195400B30D890BA72CFF30B807FF30B93D9B2C82
:10196400AE01B31FCB2CFF303005A800FF3031058A
:10197400A900FF303205AA007F303305AB002B08E5
:101984002A042904280403193418C92CCB2CAE01C9
:10199400AE0A2E080319F42C0130B4070030B53D0B
:1019A4000030B63D0030B73D371CF42C3408A80095
:1019B4003508A9003608AA003708AB000130AC008E
:1019C400AB37AA0CA90CA80CAC0BE22C2B08B70063
:1019D4002A08B6002908B5002808B4000130B80761
:1019E4000030B93D3908803AA80080302802031D30
:1019F400FD2CFF303802031C092D7F304001B70055
:101A04008030B6000030B5000030B400332D400102
:101A14003908803AA80080302802031D132D0130B4
:101A240038020318202D00304001B7000030B60002
:101A34000030B5000030B400AD01332D400138084A
:101A4400A8002808AF00FF30B405FF30B5057F308B
:101A5400B6050030B7052F18B6172F36A80028088A
:101A6400B7002D08A8002808B7043708A3003608D3
:101A7400A2003508A1003408A00008004101E300D9
:101A840040015C0886008701403FDE00413FDF00E3
:101A94005E0884005F0885001200253A031DDB2FD1
:101AA4005C08860087010130810741310318810AEF
:101AB4004201DA01DB01DE01DF01FF30DC00FF302F
:101AC400DD0040015C0886008701403FDE00413FA5
:101AD400DF005E0884005F08850012002E3A031DB3
:101AE400D62D4201DC01DD0140015C08860087013E
:101AF4000130810741310318810A5C08860087019F
:101B0400403FDE00413FDF005E0884005F0885003F
:101B140012002A3A031DA42D5C08860087010130B7
:101B2400810741310318810A5D0886008701010895
:101B34008400850102308107003F4201DC00013F3F
:101B4400DD00D62D5C0886008701403FF700413F49
:101B5400F8009231B7228D3178084201DD00770810
:101B6400DC0040015C0886008701403FDE00413F05
:101B7400DF005E0884005F0885000008D03EE000B6
:101B8400FF3003180030E100003061020A3003190D
:101B940060020318D62D5C08860087010130810796
:101BA40041310318810AB32D40015C088600870186
:101BB400403FDE00413FDF005E0884005F0885008F
:101BC4000008E000E1016008F7006108F8009D31B9
:101BD40033258D317708E20062084101DF005F0898
:101BE4000319332E40015C0886008701403FDE0064
:101BF400413FDF0001305E0784005F0803185F0A7D
:101C040085000008E000E1016008F7006108F800C1
:101C14009D3133258D317708E20062084101E000EF
:101C240060080319332E40015C0886008701403F99
:101C3400DE00413FDF0002305E0784005F080318C6
:101C44005F0A85000008E000E1016008F700610810
:101C5400F8009D3133258D317708E2006208410197
:101C6400E10040015C0886008701403FDE00413FFF
:101C7400DF005E0884005F0885001200633A031DDC
:101C8400662E5C0886008701013081074131031804
:101C9400810A5D08860087010108840085010230FD
:101CA40081070008DE005E084101E200620840018D
:101CB400DE005E08A000410163088831022021088B
:101CC400DD002008DC0008005C0886008701403F36
:101CD400DE00413FDF005E0884005F0885001200DB
:101CE400643A0319842E5C0886008701403FDE00B5
:101CF400413FDF005E0884005F0885001200693AF6
:101D0400031DD02E5C088600870101308107413114
:101D14000318810A5D088600870101088400850193
:101D240002308107003FDE00013FDF005E08410111
:101D3400D30040015F084101D400890D893B890922
:101D4400D500D600D700D800D900DA0053084001E6
:101D5400B100410154084001B2004101550840015D
:101D6400B300410156084001B40041015708400145
:101D7400B500410158084001B6004101590840012D
:101D8400B70041015A084001B80041016308953188
:101D940039253208DD003108DC00080066304101D5
:101DA4005F06031D1E2F40015C0886008701403F2B
:101DB400DE00413FDF005E0884005F088500000804
:101DC400E00060084101E20040015C0886008701F0
:101DD4000130810741310318810A5D0886008701BB
:101DE40001088400850104308107003F4101DB00C4
:101DF400013FDC00023FDD00033FDE005E084001DE
:101E0400D70041015D084001D60041015C08400152
:101E1400D50041015B084001D40041016208400142
:101E2400DE005E08D8004101630880313620550881
:101E3400DD005408DC0008002830F100A030F20076
:101E44000230F3000030F400DF30903171208D3126
:101E540071087204031DA62F40015C0886008701E7
:101E6400403FDE00413FDF0001305E0784005F0831
:101E740003185F0A85000008E00060084101E200E1
:101E840040015C0886008701403FDE00413FDF00DF
:101E94005E0884005F0885000008BF3EE000FF3054
:101EA40003180030E100003061021A3003196002A7
:101EB40003186D2F5D0886008701010884008501E1
:101EC40004308107003F4101DB00013FDC00023F99
:101ED400DD00033F7D2F5D08860087010108840033
:101EE400850104308107003F4101DB00013FDC0034
:101EF400023FDD00033FDE0040015C0886008701ED
:101F04000230810741310318810A41015E08400112
:101F1400D70041015D084001D60041015C08400141
:101F2400D50041015B084001D40041016208400131
:101F3400DE005E08D8004101630880313620550870
:101F4400DD005408DC00080040015C0886008701BD
:101F5400403FDE00413FDF005E0884005F088500EB
:101F64001200253A031DD02F5C088600870101303A
:101F7400810741310318810A2530F4000030F5004F
:101F8400410163084001DE005E08F6009F31052729
:101F940001304001DC000030DD0008005C088600F0
:101FA40087010130810741310318810ADC01DD0119
:101FB40008005C0886008701403FDE00413FDF00E7
:101FC4005E0884005F0885000008E000E101600805
:101FD400F4006108F500410163084001E200620871
:101FE400F6009F3105278D3140015C08860087018A
:101FF4000130810741310318810ACA2F41011313AB
:102004000800A700A501A60125082707A1002108AB
:102014008600013087000108A2002208A4002408D9
:10202400031908002408A100A2012108F4002208D1
:10203400F5002008A3002308F6009F3105279031FE
:1020440001304001A5070030A63D06280030710587
:102054004001A00000307205A10080307305A20089
:102064007F307405A3002308220421042004031DE7
:1020740043280030F4000030F3000030F200003058
:10208400F10000307505A00000307605A100803015
:102094007705A2007F307805A300230822042104D9
:1020A4002004031D5D280030F8000030F7000030E4
:1020B400F6000030F50078087406031D6B287708D5
:1020C4007306031D6B2876087206031D6B287508BA
:1020D400710603196F280310080003140800F600A2
:1020E4007608F5007508F9007208F8007108F70021
:1020F4000130F3020030F43B730A031DAB28740A69
:10210400031DAB28F101F201080077088400780868
:10211400850012000319B128730874040319B12847
:1021240077088400780885000008F500790886009F
:10213400870101087506031DB1280130F5007508F3
:10214400F9070130F7070030F83D0130F3020030A1
:10215400F43B7908860087010108031D8728790864
:10216400860087017708840078088500000801024A
:10217400F100F201031CF20308004001B000420127
:102184005E1CCD2840013008AB002B08A0002808B5
:102194009031032090314001AA1BD5282A08AF00B2
:1021A4002908AE00D728AE01AF01AC01AD012D085E
:1021B400803AAB002F08803A2B02031DE3282E0837
:1021C4002C020318F7282030F4000030F5004001F9
:1021D4003008AB002B08F6009F3105279031013001
:1021E4004001AC070030AD3DD92842015E180329F7
:1021F40040013008AB002B08A000280890310320D0
:102204009031400128089D31B7252E087107A80098
:102214002F08723DA9000800F701F21F1829F109DF
:10222400F209F10A0319F20AF701F70AF41F232944
:10223400F309F409F30A0319F40A0130F5007508E7
:10224400F706F801F9017108720403195229F6011D
:10225400F60AF21B37290130F135F20D890B2E29CC
:102264000130F5007508F6072B290130F835F90D12
:10227400890B382972087402031D422971087302FC
:10228400031C49297108F3027208F43B78140130E5
:10229400F236F10C890B4A290130F602031D372965
:1022A400770803195A29F809F909F80A0319F90AE8
:1022B4007908F2007808F10008000310730D740D1A
:1022C400F5007508FB007B08031D71290030F4003C
:1022D4000030F3000030F2000030F1000800710813
:1022E400F5007208F6007308F7007408F8001F3050
:1022F400F836F70CF60CF50C890B7A297508F900F9
:102304007908FA00F317FF30F105FF30F205FF30CA
:10231400F3050030F4059630FB02FB1FA4297B086B
:10232400803A973E031C68290130F436F30CF20C12
:10233400F10C890B97290130F5007508FB07031987
:10234400B529962920307B02031868297B080319D4
:10235400B5290130F135F20DF30DF40D890BAC29DB
:102364000130FB02A8297A0803190800F109F209CF
:10237400F309F409F10A0319F20A0319F30A031918
:10238400F40A0800420157084001A500420156081A
:102394004001A400420155084001A3004201540831
:1023A4004001A2007408A5007308A4007208A300E9
:1023B4007108A2002208F5002308F6002408F7009B
:1023C4002508F8001730F836F70CF60CF50C890BD5
:1023D400E529FF307505A00000307605A10020082E
:1023E4002104031D142A2208F5002308F6002408FA
:1023F400F7002508F8000130F535F60DF70DF80D56
:10240400890BFE297808770476047504031D0F2AC6
:102414000230F1000030F20008000330F100003017
:10242400F2000800200A2104031D372A2208F500BF
:102434002308F6002408F7002508F8000930F535CC
:10244400F60DF70DF80D890B212A78087704760428
:102454007504031D2F2A0130302A0030F900FA01D7
:102464007908F1007A08F20008000430F100003025
:10247400F200080000303A05C20000303B05C300FA
:1024840080303C05C4007F303D05C5004508440448
:1024940043044204031D562A0030BD000030BC0032
:1024A4000030BB000030BA0000303E05C2000030EE
:1024B4003F05C30080304005C4007F304105C5009E
:1024C4004508440443044204031D702A0030C1003B
:1024D4000030C0000030BF000030BE00BD1F8A2A9B
:1024E4000030C2000030C3000030C4008030C5009A
:1024F4003A08C2023B08C33B3C08C43B3D08C53B09
:102504004508BD004408BC004308BB004208BA00AB
:10251400C11FA42A0030C2000030C3000030C40030
:102524008030C5003E08C2023F08C33B4008C43B9C
:102534004108C53B4508C1004408C0004308BF002A
:102544004208BE008030BD068030C10641083D020D
:10255400031D080040083C02031D08003F083B021D
:10256400031D08003E083A020800A201A301A001CD
:10257400A10177088400780885001200203A031D21
:10258400C82A0130F7070030F83DBB2A77088400D9
:10259400780885000008F73EF900FF300318003082
:1025A400FA0000307A020530031979020318E02A90
:1025B400C32A0130A0000030A100122B7708840048
:1025C400780885000008F900FA017A08003A03192E
:1025D400EC2A162B79082B3A0319122B063A031905
:1025E400DB2A162B77088400780885000008F90098
:1025F4002308F2002208F1000A30F3000030F4004E
:102604009E31032692317208FB0079087102FA00A8
:10261400031CFB037A08303EA20000307B3DA3007C
:102624000130F7070030F83D77088400780885000A
:102634000008D03EF900FF3003180030FA000030E3
:102644007A020A3003197902031CF42A20082104AF
:10265400031D382B2209F9002309FA00F90A03198A
:10266400FA0A7908F7007A08F80008002308F80045
:102674002208F70008009D31212593319031002074
:1026840093318B170B1719309D3113259331710832
:102694004401A4007208A500A601A7010B30A435CB
:1026A400A50DA60DA70D890B512B0A304001EA0098
:1026B4004401A737A60CA50CA40C4001EA0B5A2B25
:1026C40070304401A407FE30A53DFF30A63DFF3025
:1026D400A73D00304101E700A030E8000030E900E8
:1026E4000830EA009D314725933141304001A9006B
:1026F4009C30A8000030A7000030A6004401270841
:10270400F4002608F3002508F2002408F100013043
:102714009331D12393317408AD007308AC0072086F
:10272400AB007108AA009631872693312908440129
:10273400A300400128084401A200400127084401E5
:10274400A100400126084401A0000E304101E70029
:10275400A030E800440123084101EC0044012208B0
:102764004101EB00440121084101EA004401200831
:102774004101E900B030ED000030EE009D31472505
:10278400933115304001EB004B30EA00BE30890B29
:10279400C92BEA0BC92BEB0BC92B0000452B4001BD
:1027A400A0002008031DF41FE72B7109A200720981
:1027B400A3007309A4007409A500A20A0319A30ABB
:1027C4000319A40A0319A50AEF2B7408A5007308BA
:1027D400A4007208A3007108A200740873047204B0
:1027E4007104031DFE2B0030F4000030F3000030B0
:1027F400F2000030F10008009630F5007508A100E1
:10280400FE3025050319252C0130F5007508A107B4
:102814000130A536A40CA30CA20C890B0B2C022CA2
:102824000130F5007508A1070130A2070030A33D6F
:102834000030A43D0030A53D0130A536A40CA30C06
:10284400A20C890B1F2CFF3025050319372C122CE1
:1028540002302102031C392C0130A1020130A235BF
:10286400A30DA40DA50D890B312CA41F2A2C21180E
:10287400432CFF30A205FF30A3057F30A405FF30B1
:10288400A5050310A10C2108F500F601F701F801D4
:102894001830F535F60DF70DF80D890B4B2C75082E
:1028A400A2047608A3047708A4047808A5042008E1
:1028B400031DF41F5E2CA5172508F4002408F3005B
:1028C4002308F2002208F1000800420153084001E5
:1028D400D300420152084001D20042015108400194
:1028E400D100420150084001D0004308D3004208FF
:1028F400D2004108D1004008D0005008C40051085B
:10290400C5005208C6005308C7001730C736C60CA6
:10291400C50CC40C890B882CFF304405C80000305A
:102924004505C9004808813ECE00FF30493DCF002F
:102934004F08803AC40080304402031DA32C173092
:102944004E02031808004001CF1BFD2CFF30C400C9
:10295400FF30C5007F30C6000030C7004E0AB62CD9
:10296400C737C60CC50CC40C890BB22C4708CD0064
:102974004608CC004508CB004408CA0050084A0564
:10298400C40051084B05C50052084C05C600530845
:102994004D05C700470846044504440403190800CC
:1029A4005008C4005108C5005208C6005308C700A7
:1029B4001F30C736C60CC50CC40C890BDB2C44086D
:1029C4000319EC2C4A08D0074B08D13D4C08D23DE2
:1029D4004D08D33D4A09C4004B09C5004C09C60043
:1029E4004D09C7004408D0054508D1054608D2055D
:1029F4004708D305302D5008C4005108C5005208BB
:102A0400C6005308C7001F30C736C60CC50CC40C1B
:102A1400890B062D4408031D132D0030D30000300C
:102A24002B2D5008C4005108C5005208C600530895
:102A3400C7000130C435C50DC60DC70D890B1C2D4B
:102A440047084604450444040319302DBF30D3001D
:102A54008030D2000030D1000030D0005308C300D1
:102A64005208C2005108C1005008C00008004001CB
:102A7400BE003108C5003208C6003308C700340858
:102A8400C8003508C9003608CA003708CB00380822
:102A9400CC004530860000308700473FB900B91F9D
:102AA400552D0130562D00304001BA00BB013A08C3
:102AB400C3003B08C4004308440403197F2DC5091F
:102AC400C609C709C809C909CA09CB09CC09C50A75
:102AD400031D7F2DC60A031D7F2DC70A031D7F2DED
:102AE400C80A031D7F2DC90A031D7F2DCA0A031DB1
:102AF4007F2DCB0A031D7F2DCC0A4201DD1B862DC1
:102B0400FD30DE05FF30DF055D08803A4001B90085
:102B140080303902031D912D013042015C020318FB
:102B2400992D01304001BF000030C000A12D4201A9
:102B34005D084001C00042015C084001BF00420141
:102B44005B084001C20042015A084001C100430829
:102B54004404031DB02D42015E1DB52DFF3040011C
:102B6400C107FF30C23D4F304001CD000030CE00E0
:102B74004301EF01492E4001450846044704480437
:102B840049044A044B044C04031DE22D4008803AD6
:102B9400B90080303902031DD12D01303F020318E2
:102BA400E22D40014208803AB90080303902031D09
:102BB400DD2D01304102031C552E4201DE1C552E31
:102BC400FF304001CD07FF30CE3D0A30A000A10107
:102BD400A201A301A401A501A601A7014508A8001B
:102BE4004608A9004708AA004808AB004908AC00F9
:102BF4004A08AD004B08AE004C08AF0088316A208B
:102C040095312108F5002008F4009D31892595317E
:102C14007408303E4001B9004D08A03E86000130E2
:102C2400870039088100FF30BF07FF30C03DFF3007
:102C3400C107FF30C23D0A30A000A101A201A301D7
:102C4400A401A501A601A7014508A8004608A900FA
:102C54004708AA004808AB004908AC004A08AD0080
:102C64004B08AE004C08AF008631F12695312008A0
:102C7400C5002108C6002208C7002308C80024088C
:102C8400C9002508CA002608CB002708CC0040014B
:102C94004E08803AB90080303902031D532E0130AA
:102CA4004D020318BD2D400143084404031D5D2E4D
:102CB40042015E1D752EFF304001CD07FF30CE3D31
:102CC40043084404031D682E2B30692E2D30BC00AC
:102CD4000030BD003C08B9004D08A03E860001301C
:102CE40087003908810040014D08A03EB900390829
:102CF400A8004208AA004108A9003E089031BF205C
:102D04002908B2002808B10008002D088039AE0057
:102D14002E08B7002D35AE002E08BE00AC1B3E14A5
:102D24003E080319A32E3E0A031DA02E0030AD0059
:102D34000030AC000030AB000030AA00AC17AD018D
:102D4400AB2E0030AD000030AC000030AB000030E2
:102D5400AA0029088039AE002E08B7062935AE002E
:102D64002E08BF00A81B3F143F080319C72E3F0AB3
:102D7400031DC42E0030A9000030A8000030A700B5
:102D84000030A600A817A901CF2E0030A9000030FA
:102D9400A8000030A7000030A60029082804270452
:102DA4002604031DEE2E0030AD000030AC000030D0
:102DB400AB000030AA008030AC047F30AD0437088B
:102DC400AE002E08AD042D08A9002C08A8002B087D
:102DD400A7002A08A60008003E08031DFA2E0030AA
:102DE400A9000030A8000030A7000030A6000800A9
:102DF4003E08AE00AF012F08B1003F082E02B0001C
:102E0400031CB10330087F3EB8000030313DB900E7
:102E14002D08B6002C08B5002B08B4002A08B3000E
:102E24000030AD000030AC000030AB000030AA0030
:102E34000030BD000030BC000030BB000030BA00E0
:102E4400BF011A303F0203185F2F3F080319412FB7
:102E54000130B335B40DB50DB60D890B2B2F0130F0
:102E6400AA35AB0DAC0DAD0D890B322FBD1B2A1449
:102E74000130BA35BB0DBC0DBD0D890B3B2F2908A4
:102E84003602031D4F2F28083502031D4F2F270834
:102E94003402031D4F2F26083302031C5A2F3D17FB
:102EA4002608B3022708B43B2808B53B2908B63BDB
:102EB4000130AE002E08BF07232F36083504340432
:102EC4003304031D3A14AC1B7C2F0130AA35AB0D1F
:102ED400AC0DAD0D890B682FBD1B2A140130BA351A
:102EE400BB0DBC0DBD0D890B712FFF30B807FF3032
:102EF400B93D652FBF01BD1F952FFF303A05AE00C8
:102F0400FF303B05AF00FF303C05B0007F303D058E
:102F1400B100310830042F042E0403192A18932F0A
:102F2400952FBF01BF0A3F080319BE2F0130AA071E
:102F34000030AB3D0030AC3D0030AD3D2D1CBE2F0C
:102F44002A08AE002B08AF002C08B0002D08B100F1
:102F54000130B200B137B00CAF0CAE0CB20BAC2FD9
:102F64003108AD003008AC002F08AB002E08AA00D1
:102F74000130B8070030B93D3908803AAE008030DE
:102F84002E02031DC72FFF303802031CD62FFF303B
:102F94004001B8000030B9000030AD000030AC0092
:102FA4000030AB000030AA0040013908803AAE007E
:102FB40080302E02031DE02F013038020318EE2F5B
:102FC4004001B801B9010030AD000030AC00003060
:102FD400AB000030AA00B70140013808AE002E084B
:102FE400BE003E1CF72FAC17FB2F7F30AE002E081F
:0C2FF400AC053E36AE002E08AD00E12E0C
:103992009D315B2508001D121D1608008230520160
:1039A2008C0008007208E5007108E4000800720843
:1039B200E9007108E80008007208E7007108E600F3
:1039C2000800F30073089E3179260800720842014C
:1039D200EB007108EA00080072084201ED0071086C
:1039E200EC000800640080010131890BF42C0034E2
:1039F2004F0196019701980199019A019B010800D4
:103A0200603051018D008F019101063093009201C7
:103A120008007408730472047104031908008030EA
:103A2200F4060800F300730841019E009317131374
:103A3200131413181A2D0D08F2000C08F1000800D7
:103A42009C31F9249D319F317A279D319D31012589
:103A52009D319D31CF259D319C31CF249D319F31A8
:103A62003C2708007708BF3EF900FF30783DFA0096
:103A720000307A021A300319790203180800203044
:103A82007704F70000307804F8000800E9304001BC
:103A9200E8006808E90041016808E5006708E400F9
:103AA20069304001E80068084101E60000309E31BB
:103AB200D126080042011908F0007C08483E860021
:103AC20001308700700881000130F0007008FC07A7
:103AD20008307C020318FC010130F0007008E10795
:103AE20008007108D03EF300FF30723DF400003050
:103AF20074020A30031973020318812D0130822DDA
:103B02000030F500F6017508F1007608F2000800B1
:103B12007508803AF60080307602031D922D01303E
:103B22007402031808007409F6007509F700F60A12
:103B32000319F70A7608F4007708F50008007108FF
:103B4200BF3EF300FF30723DF400003074021A30C1
:103B5200031973020318AF2D0130B02D0030F500A8
:103B6200F6017508F1007608F2000800F500750804
:103B7200F3007308F400750886000130870001081D
:103B82000319C82D0130F3007308F507BC2D740822
:103B92007502F100F201F11BF203080042018E01ED
:103BA2008F0190019101920193018D0141019E01CA
:103BB2009B019C01940195019601970103309A00A3
:103BC200990198019430930008309D00080020303C
:103BD2006E020318002E6308203E86000130870023
:103BE20001089A000130F0007008E30720306302F8
:103BF2000318E3010130F0007008EE0708004E01DF
:103C020019120800F501F601711C0B2E7308F50755
:103C12007408F63D0130F335F40D890B0C2E01309A
:103C2200F236F10C890B112E71087204031D052E58
:103C32007608F2007508F10008008030BD064108E0
:103C4200F4004008F3003F08F2003E08F1003D088E
:103C5200F8003C08F7003B08F6003A08F500893105
:103C620046217408BD007308BC007208BB007108CD
:103C7200BA000800F900F501F6017108F300F40139
:103C82007308F7007408F800791C4B2E7708F507C3
:103C92007808F63D0130F735F80D890B4C2E0310EC
:103CA200F90C7908031D452E7608F2007508F1001B
:103CB2000800F8007208F6007108F5007808F300B1
:103CC2007308F7007708860001308700F70A760844
:103CD200F4007508F300F50A0319F60A7308840064
:103CE200740885000008C03F890803190800632E84
:103CF200F20042016E0803197A2E4E01191A852E1E
:103D0200720842019A009B2E19127208F1004101B9
:103D12006F08203E86000130870071088100013063
:103D2200F1007108EF0720306F020318EF01013034
:103D32004201EE024E01191608007C08403E860040
:103D42000130870081011D1DB12E7C08403E860096
:103D520001308700811469088A0068080A009E31D0
:103D620042019D1CBF2E7C08403E86000130870028
:103D7200011567088A0066080A009E317C08403EE9
:103D820086000130870001080319CE2E4201650822
:103D92008A0064080A009E3108009D315B250800F4
:103DA2004001E500410165084001E7004101640866
:103DB2004001E6004201D801D901400166088400B1
:103DC2006708850012000319FC2E6630E3006308C1
:103DD200DC00410166084001E4006408DD0065087A
:103DE2008D3140259E315C084201D80740015D08B3
:103DF2004201D93DDE2E420159084101E50042014E
:103E020058084101E40008007608031D7608031DE6
:103E12000E2F74089C31E22408007608083E8600C2
:103E22008701160001040319322F7608083E860026
:103E32008701403FF700413FF8007608023E8600C6
:103E42008701403FF900413FFA007A08803AFB00BF
:103E52007808803A7B02031D302F77087902031815
:103E620008007608023E8600870101308107413151
:103E72000318810A08004E0199129E30F1001E308B
:103E8200F2009C31E7249F314E011912E830F10013
:103E92001D30F2009C31ED249F3108309F0090309C
:103EA2009D0024309E0044309B009C010330F100B1
:103EB2000030F2009C31D8249F31CC30F1001C300C
:103EC200F2009C31DD249F31C930F1001C30F20038
:103ED2009C31D324E0014101EF014201E301203092
:103EE200F3007308EE00FC01E201E1014E019916B4
:103EF200080040019A01990196012030970098012B
:103F020007309500FF309100DF309200FF309300C0
:103F1200FF309400FF307E01D900FF30CE00CF3059
:103F2200C3000730E400FF30B800DA01E501C40144
:103F3200B901CF01E601BA01C501D001DB01FF30B1
:103F4200BB00FF30C600FF30D100FF30DC0007307D
:103F5200E700FF30BC00FF30C700FF30D200FF3067
:103F6200DD000F30E8000C307D01CB0010307E0107
:103F72009D000800F701F41FC52FF309F409F30AA5
:103F82000319F40AF701F70AF21FCC2FF109F2091B
:103F9200F10A0319F20A710872040319F32FF601E8
:103FA200F60AF21BDE2F0130F135F20D890BD52F07
:103FB2000130F5007508F607D22F72087402031D4E
:103FC200E42F71087302031CEA2F7108F3027208CE
:103FD200F43B0130F236F10C890BEB2F0130F60283
:103FE200031DDE2F77080319FB2FF309F409F30AE7
:103FF2000319F40A7408F2007308F10008000A3485
:1040020056347234653466343D34253464346D3448
:10401200563420342D342034003454343D34253485
:104022002E34313466342534633443340034493415
:104032004E34463400344E3441344E340034693404
:104042006E34663400346E3461346E3400346C3451
:04405200663400349C
:020000040001F9
:08000000FF3FFF3FFF3FFF3F00
:0A000E00EC3FFF3F9F3FFF3FFF3F25
:00000001FF
