:10000000803102288731E22FA201A301A001A101C2
:1000100076088400770885001200203A031D152811
:100020000130F6070030F73D08287608840077088D
:1000300085000008F73EF800FF3003180030F90093
:100040000030790205300319780203182D28102892
:100050000130A0000030A1005F28760884007708F6
:1000600085000008F800F9017908003A03193928D9
:10007000632878082B3A03195F28063A03192828C1
:10008000632876088400770885000008F8002308B4
:10009000F1002208F0000A30F2000030F3008C3149
:1000A000252480317108FA0078087002F900031CD9
:1000B000FA037908303EA20000307A3DA3000130F7
:1000C000F6070030F73D76088400770885000008C1
:1000D000D03EF800FF3003180030F90000307902FC
:1000E0000A3003197802031C412820082104031D4B
:1000F00085282209F8002309F900F80A0319F90AEA
:100100007808F6007908F70008002308F7002208AD
:10011000F6000800B000E33086000030870023308E
:100120008400003085000730A00016001A00A00BE4
:1001300095287B08AF007A08AE002E082F04031D17
:10014000A5282330AE000030AF002F08F1002E08A4
:10015000F0008B31E02380317108B4007008B300E7
:10016000410142084001B200410141084001B10093
:10017000B21BCB283208803AA0003408803A200213
:10018000031DC428330831020318CB28400132086C
:10019000B4003108B30040013408B2003308B100A4
:1001A000410140084001AD0041013F084001AC0061
:1001B0004101431CED28FA282030F2000030F30002
:1001C00040013008A0002008F4008C31EA2480317E
:1001D00001304001B3070030B43D40013408803A9B
:1001E000A0002D08803A2002031DF8282C083302B5
:1001F000031CDC284001AA01AB012B08803AA000B7
:100200003208803A2002031D072931082A02031808
:10021000262940012E0884002F0885000008A00030
:10022000A1012008F2002108F3003008A2002208F2
:10023000F4008C31EA24803101304001AE070030F7
:10024000AF3D0130AA070030AB3DFD284101431806
:100250003B2948292030F2000030F30040013008EB
:10026000A0002008F4008C31EA24803101304001E4
:10027000B3070030B43D40013408803AA0002D0897
:10028000803A2002031D46292C083302031C2A2928
:1002900040013408FB003308FA000800F20128305E
:1002A000860000308700473FF000F01F78294001AA
:1002B000A809A909AA09AB09AC09AD09AE09AF099A
:1002C000A80A031D7629A90A031D7629AA0A031D77
:1002D0007629AB0A031D7629AC0A031D7629AD0ADF
:1002E000031D7629AE0A031D7629AF0AF201F20A30
:1002F0002030860000308700473FF000F01F9F2924
:100300004001A009A109A209A309A409A509A609F8
:10031000A709A00A031D9F29A10A031D9F29A20A5C
:10032000031D9F29A30A031D9F29A40A031D9F29BA
:10033000A50A031D9F29A60A031D9F29A70A40019C
:10034000200821042204230424042504260427046D
:100350000319F729F101F10AA71BBB29A035A10D4B
:10036000A20DA30DA40DA50DA60DA70D0130F00043
:100370007008F107AC2927082F02031DD929260888
:100380002E02031DD92925082D02031DD929240871
:100390002C02031DD92923082B02031DD929220869
:1003A0002A02031DD92921082902031DD929200861
:1003B0002802031CEB292008A8022108A93B2208D7
:1003C000AA3B2308AB3B2408AC3B2508AD3B2608E1
:1003D000AE3B2708AF3BA736A60CA50CA40CA30C7C
:1003E000A20CA10CA00C0130F102031DBB29720864
:1003F0000319182AA809A909AA09AB09AC09AD096A
:10040000AE09AF09A80A031D182AA90A031D182A54
:10041000AA0A031D182AAB0A031D182AAC0A031DD9
:10042000182AAD0A031D182AAE0A031D182AAF0A9E
:1004300040012808A0002908A1002A08A2002B08D2
:10044000A3002C08A4002D08A5002E08A6002F0844
:10045000A7000800F2012030860000308700473FE7
:10046000F000F01F542A4001A009A109A209A30924
:10047000A409A509A609A709A00A031D522AA10AD1
:10048000031D522AA20A031D522AA30A031D522A3F
:10049000A40A031D522AA50A031D522AA60A031DF7
:1004A000522AA70AF201F20A28308600003087009B
:1004B000473FF000F01F7F2A4001A809A909AA09B7
:1004C000AB09AC09AD09AE09AF09A80A031D7B2A27
:1004D000A90A031D7B2AAA0A031D7B2AAB0A031D56
:1004E0007B2AAC0A031D7B2AAD0A031D7B2AAE0AB8
:1004F000031D7B2AAF0A0130F0007008F20673304A
:100500008600003087000830F00000301E00F00B3D
:10051000862A4001200821042204230424042504FF
:10052000260427040319EA2AF101F10AA71BA52AC8
:10053000A035A10DA20DA30DA40DA50DA60DA70D0F
:100540000130F0007008F107962AF335F40DF50D2F
:10055000F60DF70DF80DF90DFA0D27082F02031D02
:10056000CB2A26082E02031DCB2A25082D02031DA7
:10057000CB2A24082C02031DCB2A23082B02031D9F
:10058000CB2A22082A02031DCB2A21082902031D97
:10059000CB2A20082802031CDE2A2008A8022108F2
:1005A000A93B2208AA3B2308AB3B2408AC3B250807
:1005B000AD3B2608AE3B2708AF3B7314A736A60C0D
:1005C000A50CA40CA30CA20CA10CA00C0130F102F0
:1005D000031DA52A720803190B2BF309F409F50969
:1005E000F609F709F809F909FA09F30A031D0B2BB3
:1005F000F40A031D0B2BF50A031D0B2BF60A031D32
:100600000B2BF70A031D0B2BF80A031D0B2BF90A02
:10061000031D0B2BFA0A73084001A0007408A10007
:100620007508A2007608A3007708A4007808A50042
:100630007908A6007A08A7000800C0004101C21B83
:10064000252BFD30C305FF30C4054208803A400128
:10065000B60080303602031D302B013041014102CB
:100660000318382B01304001BE000030BF00402B82
:10067000410142084001BF00410141084001BE0064
:10068000410140084001C20041013F084001C10052
:100690004101431E502BFE304001C107FF30C23DD7
:1006A00040012D08C3002E08C4002F08C5003008E3
:1006B000C6003108C7003208C8003308C900340832
:1006C000CA001F30CB000030CC004201BF01F72B25
:1006D000FF304001CB07FF30CC3D0F304305CD004C
:1006E00000304405CE004E08803AB6008030360215
:1006F000031D7C2B0A304D02031C822B40014D0848
:10070000573E852B40014D08303ECD0000304E3D18
:10071000CE003508BF3EB600FF3003180030B700EA
:10072000003037021A30031936020318B52B203077
:100730004D04B60000304E04B70036089F3EB800A6
:10074000FF30373DB900003039021A300319380242
:100750000318B52B4E08F7004D08F6008B319E2389
:1007600083317708CE007608CD004D08B6004B08DF
:10077000203E86000130870036088100FF30BE072A
:10078000FF30BF3DFF30C107FF30C23D4330860020
:1007900000308700403FB600413FB700423FB800FD
:1007A000433FB900443FBA00453FBB00463FBC0051
:1007B000473FBD0004304001BD36BC0CBB0CBA0C39
:1007C000B90CB80CB70CB60C890BDB2B40013D08FB
:1007D000CA003C08C9003B08C8003A08C7003908ED
:1007E000C6003808C5003708C4003608C3004001F9
:1007F0004C08803AB60080303602031D012C0230CE
:100800004B02031C282C40014308440445044604C1
:100810004704480449044A04031D682B3F08803AF2
:10082000B60080303602031D172C01303E0203183B
:10083000682B40014208803AB60080303602031D22
:10084000232C01304102031C282C4101C318682BC2
:100850004101431E462CFF304001CB07FF30CC3D09
:100860003508B6004B08203E860001308700360868
:100870008100FF30CB07FF30CC3D3030B6004B0855
:10088000203E8600013087003608810040014B0879
:10089000203EB6003608A4004208A6004108A50084
:1008A00040088D3165252508AE002408AD000800FC
:1008B000BF003008C4003108C5003208C600330844
:1008C000C7003408C8003508C9003608CA00370810
:1008D000CB004430860000308700473FB800B81F87
:1008E000732C0130742C00304001B900BA01390872
:1008F000C2003A08C3004208430403199D2CC409EE
:10090000C509C609C709C809C909CA09CB09C40A62
:10091000031D9D2CC50A031D9D2CC60A031D9D2C7D
:10092000C70A031D9D2CC80A031D9D2CC90A031D5F
:100930009D2CCA0A031D9D2CCB0A4101C21BA42C6D
:10094000FD30C305FF30C4054208803A4001B800BD
:1009500080303802031DAF2C0130410141020318E1
:10096000B72C01304001BD000030BE00BF2C41015A
:1009700042084001BE00410141084001BD00410163
:1009800040084001C10041013F084001C000420849
:100990004304031DCE2C4101431DD32CFF304001E5
:1009A000C007FF30C13D1F304001CC000030CD00FA
:1009B0004201BF01672D4001440845044604470435
:1009C000480449044A044B04031D002D3E08803AA4
:1009D000B80080303802031DEF2C01303D020318AF
:1009E000002D40014108803AB80080303802031DD4
:1009F000FB2C01304002031C732D4101C31C732DDD
:100A0000FF304001CC07FF30CD3D0A30A000A101EE
:100A1000A201A301A401A501A601A7014408A80001
:100A20004508A9004608AA004708AB004808AC00E2
:100A30004908AD004A08AE004B08AF0081314E2195
:100A400084312108F4002008F3008B31C92384315C
:100A50007308303E4001B8004C08203E860001304B
:100A6000870038088100FF30BD07FF30BE3DFF30F2
:100A7000C007FF30C13D0A30A000A101A201A301BF
:100A8000A401A501A601A7014408A8004508A900E2
:100A90004608AA004708AB004808AC004908AD006A
:100AA0004A08AE004B08AF0082312A228431200868
:100AB000C4002108C5002208C6002308C700240876
:100AC000C8002508C9002608CA002708CB00400135
:100AD0004D08803AB80080303802031D712D013076
:100AE0004C020318DB2C400142084304031D7B2DFC
:100AF0004101431D932DFF304001CC07FF30CD3D18
:100B000042084304031D862D2B30872D2D30BB005A
:100B10000030BC003B08B8004C08203E8600013085
:100B200087003808810040014C08203EB800380892
:100B3000A4004108A6004008A5003F088D316525A6
:100B40002508B1002408B00008004001ED004F085E
:100B500086008701403FD100413FD2005108840008
:100B6000520885001200253A031DBF2F4F0886004A
:100B700087010130810741310318810A4101BF011A
:100B8000C001C301C401FF30C100FF30C2004001F9
:100B9000E801E901E72D4101431440014F088600B7
:100BA00087010130810741310318810AE72D410196
:100BB000C314CD2D41014315CD2D4101C315CD2DBC
:100BC00041014316CD2D0130E8000030E9006808EE
:100BD0006904031D102E4F0886008701403FD10095
:100BE000413FD20051088400520885000008D3001C
:100BF000D4015408003A0319FE2DE32D5308203A7E
:100C00000319DD2D033A0319E02D083A0319DA2DF3
:100C1000063A0319CB2D1D3A0319D72DE32DE72DE5
:100C20004101431C172EFD30C305FF30C4054001B0
:100C30004F0886008701403FD100413FD200510854
:100C400084005208850012002A3A031D452E4F08E1
:100C5000860087010130810741310318810A50085D
:100C60008600870101088400850102308107003F6A
:100C70004101BF00013FC000C01F772E4314BF09D0
:100C8000C009BF0A0319C00A772E4F0886008701E2
:100C9000403FF600413FF70080310420853177085E
:100CA0004101C0007608BF0040014F08860087015F
:100CB000403FD100413FD2005108840052088500D6
:100CC0000008D03ED300FF3003180030D4000030BD
:100CD00054020A30031953020318772E4F08860076
:100CE00087010130810741310318810A542E4001E8
:100CF0004F0886008701403FD100413FD200510894
:100D00008400520885001200643A0319962E4F0899
:100D100086008701403FD100413FD2005108840046
:100D2000520885001200693A031DCF2E4F08860035
:100D300087010130810741310318810A500886007C
:100D4000870101088400850102308107003FD1003E
:100D5000013FD2005108D6005208D700890D893BC7
:100D60008909D800D900DA00DB00DC00DD00560874
:100D7000B0005708B1005808B2005908B3005A082B
:100D8000B4005B08B5005C08B6005D08B7006D08EC
:100D9000843158243108D0003008CF0008004F08B3
:100DA00086008701403FD100413FD20051088400B6
:100DB000520885001200733A0319F42E4F0886007A
:100DC0008701403FF000413FF1005630F200903083
:100DD000F3000330F4000030F5008D31B625853185
:100DE00070087104031D2A2F4F0886008701403FB9
:100DF000D100413FD2005108840052088500120002
:100E0000733A0319052F0330062F0130EA00003032
:100E1000EB004F08860087016A08810741316B08A3
:100E2000813D7F31500886008701010884008501DB
:100E300002308107003FE600013FE7006708FB0042
:100E40006608FA006D0880318A207B08D0007A0895
:100E5000CF0008004F0886008701403FD100413F86
:100E6000D20051088400520885001200783A031914
:100E7000482F4F0886008701403FD100413FD200F4
:100E800051088400520885001200583A031D8D2F26
:100E90004F0886008701403FD100413FD2005108F2
:100EA0008400520885000008D3005308EC004F0866
:100EB000860087010130810741310318810A5008FB
:100EC0008600870101088400850102308107003F08
:100ED000DE00013FDF00E001E101E201E301E401A6
:100EE000E5015E08AD005F08AE006008AF00610874
:100EF000B0006208B1006308B2006408B30065087E
:100F0000B4006C08D1005108B5006D0883311D2371
:100F10002E08D0002D08CF0008004F08860087015A
:100F2000403FD100413FD200510884005208850063
:100F30001200253A031DB42F4F08860087010130A7
:100F4000810741310318810A2530F2000030F30097
:100F50006D08D1005108F4008C31EA2401304001C1
:100F6000CF000030D00008004F0886008701013014
:100F7000810741310318810ACF01D00108004F08D1
:100F800086008701403FD100413FD20051088400D4
:100F9000520885000008D300D4015308F200540819
:100FA000F3006D08D5005508F4008C31EA24853132
:100FB00040014F0886008701013081074131031845
:100FC000810AAE2F403084008B308500E3308600EC
:100FD0000030870007308B313A238731A0308400FE
:100FE0000030850026308B31342387312030840057
:100FF0000130850020308B31342340018E31082EA2
:1016360042011E0C01390800F10071088B31472365
:1016460008007108EB007008EA0008007108ED0058
:101656007008EC00080071084101EF007008EE0008
:101666000800640080010131890B352B0034FE002F
:1016760012001E00FE0B3B2B003428346E347534EA
:101686006C346C3429340034F0004E010F1E482BA4
:10169600700842019A0008004F01960197019801CF
:1016A60099019A019B010800603051018D008F015C
:1016B600910106309300920108008B311B238B3178
:1016C600003A0319602B40019915630040019911F6
:1016D60008008B314F238B318E315A268B318B315B
:1016E60057238B318B318B238B318C317924080036
:1016F600CE30D0005008D1004D08C7004C08C600B7
:10170600D130D0005008C80000308C31BF2408000A
:1017160081307C0191000330920004309300043044
:1017260094000430950096010230970098019901C3
:1017360087309000080076089F3EF800FF30773D1E
:10174600F900003079021A300319780203180800EC
:101756005F307605F60000307705F7000800700860
:10176600D03EF200FF30713DF300003073020A30C4
:10177600031972020318C12B0130C22B0030F4008A
:10178600F5017408F0007508F10008007408803A45
:10179600F50080307502031DD22B01307302031849
:1017A60008007309F5007409F600F50A0319F60A2C
:1017B6007508F3007608F40008007108F400700854
:1017C600F300700884007108850012000319F02BDD
:1017D6000130F0070030F13DE42B73087002F00091
:1017E6007408713BF10008007008BF3EF200FF303C
:1017F600713DF300003073021A30031972020318A8
:10180600062C0130072C0030F400F5017408F000B6
:101816007508F100080070089F3EF200FF30713D28
:10182600F300003073021A300319720203181D2CDC
:1018360001301E2C0030F400F5017408F000750824
:10184600F1000800F401F501701C2D2C7208F40754
:101856007308F53D0130F235F30D890B2E2C01305E
:10186600F136F00C890B332C70087104031D272CFC
:101876007508F1007408F0000800F401F40A20303D
:10188600700671040319542C7008F73EF200FF30FD
:10189600713DF3000030730205300319720203181C
:1018A600F4017408F200F3017208F0007308F10005
:1018B600080020307004F20000307104F300720852
:1018C6009F3EF400FF30733DF500003075021A307C
:1018D600031974020318712C0130722C0030F600C3
:1018E600F7017608F0007708F10008000830420199
:1018F6009F0080309D0024309E00A0309B00013068
:101906009C000030F0000030F1008B312E238C312A
:101916000030F0000030F1008B3129238C3100308B
:10192600F0000030F1008B312423C5010800A3002C
:10193600A101A20121082307FB007B0886000130D4
:1019460087000108FC007C08A00020080319080095
:101956002008FB00FC017B08F2007C08F3007A08F3
:10196600FD007D08F4008C31EA248C310130400101
:10197600A1070030A23D9D2CC9004708CB004608B0
:10198600CA00BD01BE014A0884004B08850012004A
:101996000319E52CCA304001EE006E08CF00410164
:1019A60048084001EF006F08D00041014908853121
:1019B600A5258C314F084101BD0740015008410162
:1019C600BE3DC62C3E08C7003D08C6000800740888
:1019D600031D7408031DF32C72088B311F230800A6
:1019E6007408083E86008701160001040319172DA6
:1019F6007408083E86008701403FF500413FF60027
:101A06007408023E86008701403FF700413FF80018
:101A16007808803AF9007608803A7902031D152D78
:101A260075087702031808007408023E86008701CD
:101A36000130810741310318810A0800F300F401DF
:101A46004E018F110F1143019A161B144E010F1DE3
:101A5600292D0F11733543019600710803194B2D7B
:101A66004E010F1D332D0F1143011B0E890C890CDE
:101A76000139F2007208F4040130F10270088600A0
:101A86008701010896000130F2007208F007302D38
:101A96004E010F1D4B2D0F1143011B0E890C890C96
:101AA6000139F2007208F4041B154E010F1D582D62
:101AB6000F1143019A127408031D632D01300800AB
:101AC60000300800AC004101431C722D40012C0877
:101AD600A7002708FA0024088C319A248D3140018A
:101AE600A61B7A2D2608AB002508AA007C2DAA0184
:101AF600AB01A801A9012908803AA7002B08803A62
:101B06002702031D882D2A08280203189C2D203041
:101B1600F2000030F30040012C08A7002708F4006B
:101B26008C31EA248D3101304001A8070030A93DEF
:101B36007E2D41014318A82D40012C08A700270837
:101B4600FA0024088C319A248D3140012408F000D3
:101B56000130F1008B31E0232A087007A4002B081E
:101B6600713DA50008007108F8007008F7007308B9
:101B7600FA007208F9000130F4020030F53B740AED
:101B8600031DF02D750A031DF02DF001F10108006B
:101B9600790884007A08850012000319F72D740865
:101BA60075040319F72D790884007A088500000862
:101BB600F600770884007808850000087606031D7D
:101BC600F72D0130F7070030F83D0130F9070030F6
:101BD600FA3D0130F4020030F53B770884007808BE
:101BE60085001200031DCB2D770884007808850038
:101BF6000008F600790884007A0885000008760255
:101C0600F000F101031CF10308008B316C238E31C7
:101C16004001181500304101D5000130D40086304E
:101C2600D300A030D2008F310B278E3164001630DE
:101C36004101DC005C08E100E130DC005C08F000FA
:101C4600F101F10A44308D3121258E31003A031914
:101C5600562EE1304101DC005C08F0000230DD0068
:101C66005D08F10044308E31AD268E31003A0319FD
:101C7600562E44304101CC009030CD006108DC0086
:101C8600DD016208DE00DF015E08DF00DE015C08C0
:101C96005E04CE005D085F04CF008B317B238E315E
:101CA6008B3160238E318B3160238E31192E4001AA
:101CB6009A01083099009601203097000430980068
:101CC60007309500FD309100DF309200F33093002D
:101CD600F7309400F3307E01D900F330CE00D930CE
:101CE600C3000730E400F930B8000830DA00E50137
:101CF6001430C400B901CF01E601BA01C501D00113
:101D06000830DB00FF30BB00FF30C600FF30D100DB
:101D1600FF30DC000730E700FF30BC00FF30C700B3
:101D2600FF30D200FF30DD000F30E8001730AA0088
:101D36001A307D01C90016307E0199000A307D01F6
:101D4600BE0010307E019D000130910009307D01FA
:101D5600C8000800F300F4014E018F110F11430172
:101D66009A161B144E010F1DB52E0F110314730D79
:101D7600430196004E010F1DBD2E0F1143011B0E90
:101D8600890C890C0139F2007208F40402307102E0
:101D9600031CE82E43019B150130F1021608F200E0
:101DA600700886008701720881000130F20072080F
:101DB600F0074E010F1DDC2E0F1143019B121B165F
:101DC6004E010F1DE32E0F11C92E43019B15160858
:101DD600F200700886008701720881004E010F1D0F
:101DE600F12E0F1143019B161B164E010F1DF82EE7
:101DF6000F1143011B154E010F1DFE2E0F1143013E
:101E06009A127408031D092F0130080000300800DB
:101E16005030CC009030CD002030CE009030CF0036
:101E26008B317B238F314F019A12083043019A0080
:101E36009B01990100304101DB007A30DA00123053
:101E4600D9000030D8005508F3005408F2005308B2
:101E5600F1005208F0005B08F7005A08F60059082E
:101E6600F5005808F4008F317E278F317308410141
:101E7600DB007208DA007108D9007008D800FF305C
:101E8600D807FF30D93DFF30DA3DFF30DB3DDB1BA5
:101E96005F2F5B08031D562F5A08031D562F01306E
:101EA6005902031C5F2F00304101DB000030DA00CD
:101EB6000030D900FF30692F4101DB1F6A2F003047
:101EC600DB000030DA000030D9000030D8005808B6
:101ED6004301970036304101CC009030CD004301DC
:101EE60017084101D600D7015608CE005708CF0083
:101EF6008B317B2308004001A101F31F8F2FF009CE
:101F0600F109F209F309F00A0319F10A0319F20AB1
:101F16000319F30AA101A10AF71FA02FF409F50975
:101F2600F609F709F40A0319F50A0319F60A03195B
:101F3600F70A0130F8007808A1060030A500003045
:101F4600A4000030A3000030A200730872047104DC
:101F560070040319E92FA001A00AF31BBE2F01305C
:101F6600F035F10DF20DF30D890BB32F0130F800AA
:101F76007808A007B02F0130A235A30DA40DA50D3A
:101F8600890BBF2F73087702031DD32F72087602C1
:101F9600031DD32F71087502031DD32F7008740219
:101FA600031CDE2F7008F4027108F53B7208F63B3D
:101FB6007308F73B22140130F336F20CF10CF00CE7
:101FC600890BDF2F0130A002031DBE2F2108031944
:101FD600F72FA209A309A409A509A20A0319A30AAE
:101FE6000319A40A0319A50A2508F3002408F20018
:101FF6002308F1002208F000080000340034003401
:10200600003400340034003400340034003400342A
:10201600003400340034003400340034003400341A
:10202600003400340034003400340034003400340A
:10203600003400340034003400344D345334533407
:10204600503432345F344934323443345F344D349F
:10205600613473347434653472345F3449346E34A5
:102066006934743400345334533450343234413484
:10207600443444343D3425343034323458340A340C
:1020860000340A3444346534673472346534653454
:102096003A3420342534643400340A342534733415
:0E20A6003A34203400346C346C34733400341B
:020000040001F9
:08000000FF3FFF3FFF3FFF3F00
:0A000E00EC3FFF3FE907FF3FFF3F13
:00000001FF
