:08000000803102288731E62F50
:10064600FF34FF3442011E0C013908007108DE0038
:100656007008DD0008007108E0007008DF0008007F
:10066600F100710883314423080071084001E2005B
:100676007008E1000800640080010131890B3F2BFE
:100686000034F0004E010F1E452B700842019A00FF
:1006960008004F0196019701980199019A019B0163
:1006A6000800603051018D008F01910106309300E2
:1006B60092010800833125238331003A03195D2B0B
:1006C60040019915630040019911080083314C23BC
:1006D60083318431542483318331542383318331EC
:1006E6008823833183319B2308005530FD007D0824
:1006F600D5005408CC005308CB005530FD007D08CA
:10070600CD0000308331BC23080081307C0191008C
:1007160003309200043093000430940004309500B6
:1007260096010230970098019901873090000800E1
:10073600083042019F0080309D0024309E00A0308A
:100746009B0001309C000030F0000030F100833146
:10075600382383310030F0000030F10083312E233E
:1007660083310030F0000030F10083312923C501C8
:100776000800D0004C08D2004B08D100BD01BE01D4
:10078600510884005208850012000319DC2B5130F1
:10079600CE004E08FA004D08CF004F08FB00500867
:1007A60085316B2583317A084001BD077B08BE3D44
:1007B600C32B3E08CC003D08CB0008007408031D7F
:1007C6007408031DEA2B720883313323080074086A
:1007D600083E860087011600010403190E2C7408D2
:1007E600083E86008701403FF500413FF600740849
:1007F600023E86008701403FF700413FF800780837
:10080600803AF9007608803A7902031D0C2C7508A7
:100816007702031808007408023E8600870101303B
:10082600810741310318810A0800FE3083314423D1
:100836008431F6017608713E860087010108F300CF
:100846007308F500352CFD30833144238431750857
:10085600203A833144238431482C7508833144235C
:100866008431482C7508F300F4017408003A031922
:100876003D2C302C7308FC3A0319262C013A031937
:10088600262C033A0319262C302C0130F30073086A
:10089600F60702307602031C1D2CFC3083314423FC
:1008A600080040019A01083099009601203097000F
:1008B6000430980007309500FD309100DF3092003B
:1008C600F3309300F7309400F3307E01D900F33013
:1008D600CE00D930C3000730E400F930B800083044
:1008E600DA00E5011430C400B901CF01E601BA010E
:1008F600C501D0010830DB00FF30BB00FF30C60069
:10090600FF30D100FF30DC000730E700FF30BC00CD
:10091600FF30C700FF30D200FF30DD000F30E800A7
:100926001730AA001A307D01C90016307E019900E1
:100936000A307D01BE0010307E019D00013091001D
:1009460009307D01C80008004F019A1208304301A2
:100956009A009B0199010030FD007A30FC001230AC
:10096600FB000030FA0040014F08F3004E08F20089
:100976004D08F1004C08F0007D08F7007C08F600F1
:100986007B08F5007A08F4008531DE25843173088A
:10099600FD007208FC007108FB007008FA00FF30C9
:1009A600FA07FF30FB3DFF30FC3DFF30FD3DFD1BF0
:1009B600EE2C7D08031DE62C7C08031DE62C013079
:1009C6007B02031CEE2C0030FD000030FC000030E2
:1009D600FB00FF30F72CFD1FF82C0030FD00003027
:1009E600FC000030FB000030FA007A084301970053
:1009F600FF30F90079084001E400080083316923DB
:100A060085312030D3008830D40083317823853176
:100A160005304001D7000F30D600F130890B112D7B
:100A2600D60B112DD70B112D400118150030CF0014
:100A36000130CE008630CD00A030CC008431A72412
:100A46008531640016304001D6005608DB005B3065
:100A5600D6005608F000F101F10A443086315F26CF
:100A66008531003A0319602D5B30D6005608F00038
:100A76000230D7005708F10044308631F926853117
:100A8600003A03195C2D5B08D600D7015C08D80034
:100A9600D9015808D900D80156085804F10057085A
:100AA6005904F20084311824853183315D23853160
:100AB600672D3F30D3008830632D3230D300883025
:100AC600D40083317823853183315D238531242D0C
:100AD600FC007A0886008701403FC600413FC700F8
:100AE60046088400470885001200253A031DBC2DE0
:100AF6007A08860087010130810741310318810A8F
:100B0600BF01C001C301C401FF30C100FF30C200F4
:100B16007A0886008701403FC600413FC700460865
:100B26008400470885001200253A031DB12D7A0876
:100B3600860087010130810741310318810A25307B
:100B4600F2000030F3007C08C6004608F40083314A
:100B5600E1230130FA000030FB0008007A08860025
:100B660087010130810741310318810AFA01FB012F
:100B760008007A0886008701403FC600413FC7004B
:100B860046088400470885000008C800C9014808CF
:100B9600F2004908F3007C08CA004A08F4008331D1
:100BA600E12385317A0886008701013081074131CA
:100BB6000318810AAC2DC701F31FEE2DF009F109C8
:100BC600F209F309F00A0319F10A0319F20A0319E3
:100BD600F30AC701C70AF71FFF2DF409F509F6093D
:100BE600F709F40A0319F50A0319F60A0319F70AAD
:100BF6000130F8007808C7060030CB000030CA0084
:100C06000030C9000030C800730872047104700413
:100C16000319482EC601C60AF31B1D2E0130F035F6
:100C2600F10DF20DF30D890B122E0130F800780844
:100C3600C6070F2E0130C835C90DCA0DCB0D890B5D
:100C46001E2E73087702031D322E72087602031DCC
:100C5600322E71087502031D322E70087402031CB1
:100C66003D2E7008F4027108F53B7208F63B7308D6
:100C7600F73B48140130F336F20CF10CF00C890BFB
:100C86003E2E0130C602031D1D2E47080319562E9F
:100C9600C809C909CA09CB09C80A0319C90A031927
:100CA600CA0A0319CB0A4B08F3004A08F20049089E
:100CB600F1004808F0000800F300F401FF30F200EC
:100CC6007208E4004E018F110F1143019A161B148E
:100CD600400164080319802EFF30F2007208E40018
:100CE6007D2E01304001E4020319802E0D30890B60
:100CF6007A2E00004E010F1D742E4E010F11733512
:100D06004301960071080319B32E400164080319C4
:100D16009D2EFF30F2007208E4009A2E0130400149
:100D2600E40203199D2E0D30890B972E00004E010B
:100D36000F1D912E4E010F1143011B0E890C890CBC
:100D46000139F2007208F4040130F10270088600DD
:100D56008701010896000130F2007208F007852E1F
:100D6600400164080319C82EFF30F2007208E4003F
:100D7600C52E01304001E4020319C82E0D30890B3F
:100D8600C22E00004E010F1DBC2E4E010F11430155
:100D96001B0E890C890C0139F2007208F4041B152C
:100DA600400164080319E82EFF30F2007208E400DF
:100DB600E52E01304001E4020319E82E0D30890BBF
:100DC600E22E00004E010F1DDC2E4E010F114301D5
:100DD6009A12400164080319F72E7408031DF52EB4
:100DE600013008000030080000300800F300F4016C
:100DF600FF30F2007208E4004E018F110F1143011B
:100E06009A161B144001640803191A2FFF30F200CA
:100E16007208E400172F01304001E40203191A2F6B
:100E26000D30890B142F00004E010F1D0E2F4E01A1
:100E36000F110314730D4301960040016408031952
:100E4600352FFF30F2007208E400322F01304001E6
:100E5600E4020319352F0D30890B2F2F00004E01A8
:100E66000F1D292F4E010F1143011B0E890C890CF2
:100E76000139F2007208F40402307102031C842F57
:100E860043019B150130F1021608F2007008860036
:100E96008701720881000130F2007208F0074001F4
:100EA60064080319672FFF30F2007208E400642F0C
:100EB60001304001E4020319672F0D30890B612FC1
:100EC60000004E010F1D5B2F4E010F1143019B12B7
:100ED6001B16400164080319812FFF30F2007208C7
:100EE600E4007E2F01304001E4020319812F0D300A
:100EF600890B7B2F00004E010F1D752F4E010F1120
:100F06003F2F43019B151608F200700886008701E3
:100F160072088100400164080319A22FFF30F20015
:100F26007208E4009F2F01304001E4020319A22F4A
:100F36000D30890B9C2F00004E010F1D962F4E0180
:100F46000F1143019B161B16400164080319BC2FA1
:100F5600FF30F2007208E400B92F01304001E402CC
:100F66000319BC2F0D30890BB62F00004E010F1D43
:100F7600B02F4E010F1143011B15400164080319E0
:100F8600D52FFF30F2007208E400D22F0130400165
:100F9600E4020319D52F0D30890BCF2F00004E0127
:100FA6000F1DC92F4E010F1143019A12400164080B
:100FB6000319E42F7408031DE22F013008000030E6
:100FC600080000300800833123238731E300833192
:100FD60024238731E4002030840000308500263049
:100FE60083313E238731A0308400003085002030D5
:100FF60083313E2340018531012D00340034003415
:10100600003400340034003400340034003400343A
:10101600003400340034003400340034003400342A
:10102600003400340034003400340034003400341A
:10103600003400340034003400340A345034493467
:101046004334313436344634313438343834373432
:10105600373420344934323443340A3400340A34C1
:1010660057347234693474346534203465347234D8
:1010760072346F34723400340A3452346534613455
:10108600643420346534723472346F34723400340C
:020000040001F9
:08000000FF3FFF3FFF3FFF3F00
:0A000E00EC3FFF3FE907FF3FFF3F13
:00000001FF
