:10000000803102288731E22FA201A301A001A101C2
:1000100076088400770885001200203A031D152811
:100020000130F6070030F73D08287608840077088D
:1000300085000008F73EF800FF3003180030F90093
:100040000030790205300319780203182D28102892
:100050000130A0000030A1005F28760884007708F6
:1000600085000008F800F9017908003A03193928D9
:10007000632878082B3A03195F28063A03192828C1
:10008000632876088400770885000008F8002308B4
:10009000F1002208F0000A30F2000030F3008C3149
:1000A000D32480317108FA0078087002F900031C2B
:1000B000FA037908303EA20000307A3DA3000130F7
:1000C000F6070030F73D76088400770885000008C1
:1000D000D03EF800FF3003180030F90000307902FC
:1000E0000A3003197802031C412820082104031D4B
:1000F00085282209F8002309F900F80A0319F90AEA
:100100007808F6007908F70008002308F7002208AD
:10011000F6000800B000E33086000030870023308E
:100120008400003085000730A00016001A00A00BE4
:1001300095287B08AF007A08AE002E082F04031D17
:10014000A5282330AE000030AF002F08F1002E08A4
:10015000F0008C318E2480317108B4007008B30037
:10016000410142084001B200410141084001B10093
:10017000B21BCB283208803AA0003408803A200213
:10018000031DC428330831020318CB28400132086C
:10019000B4003108B30040013408B2003308B100A4
:1001A000410140084001AD0041013F084001AC0061
:1001B0004101431CED28FA282030F2000030F30002
:1001C00040013008A0002008F4008D3198258031CE
:1001D00001304001B3070030B43D40013408803A9B
:1001E000A0002D08803A2002031DF8282C083302B5
:1001F000031CDC284001AA01AB012B08803AA000B7
:100200003208803A2002031D072931082A02031808
:10021000262940012E0884002F0885000008A00030
:10022000A1012008F2002108F3003008A2002208F2
:10023000F4008D319825803101304001AE07003047
:10024000AF3D0130AA070030AB3DFD284101431806
:100250003B2948292030F2000030F30040013008EB
:10026000A0002008F4008D31982580310130400134
:10027000B3070030B43D40013408803AA0002D0897
:10028000803A2002031D46292C083302031C2A2928
:1002900040013408FB003308FA000800F20128305E
:1002A000860000308700473FF000F01F78294001AA
:1002B000A809A909AA09AB09AC09AD09AE09AF099A
:1002C000A80A031D7629A90A031D7629AA0A031D77
:1002D0007629AB0A031D7629AC0A031D7629AD0ADF
:1002E000031D7629AE0A031D7629AF0AF201F20A30
:1002F0002030860000308700473FF000F01F9F2924
:100300004001A009A109A209A309A409A509A609F8
:10031000A709A00A031D9F29A10A031D9F29A20A5C
:10032000031D9F29A30A031D9F29A40A031D9F29BA
:10033000A50A031D9F29A60A031D9F29A70A40019C
:10034000200821042204230424042504260427046D
:100350000319F729F101F10AA71BBB29A035A10D4B
:10036000A20DA30DA40DA50DA60DA70D0130F00043
:100370007008F107AC2927082F02031DD929260888
:100380002E02031DD92925082D02031DD929240871
:100390002C02031DD92923082B02031DD929220869
:1003A0002A02031DD92921082902031DD929200861
:1003B0002802031CEB292008A8022108A93B2208D7
:1003C000AA3B2308AB3B2408AC3B2508AD3B2608E1
:1003D000AE3B2708AF3BA736A60CA50CA40CA30C7C
:1003E000A20CA10CA00C0130F102031DBB29720864
:1003F0000319182AA809A909AA09AB09AC09AD096A
:10040000AE09AF09A80A031D182AA90A031D182A54
:10041000AA0A031D182AAB0A031D182AAC0A031DD9
:10042000182AAD0A031D182AAE0A031D182AAF0A9E
:1004300040012808A0002908A1002A08A2002B08D2
:10044000A3002C08A4002D08A5002E08A6002F0844
:10045000A7000800F2012030860000308700473FE7
:10046000F000F01F542A4001A009A109A209A30924
:10047000A409A509A609A709A00A031D522AA10AD1
:10048000031D522AA20A031D522AA30A031D522A3F
:10049000A40A031D522AA50A031D522AA60A031DF7
:1004A000522AA70AF201F20A28308600003087009B
:1004B000473FF000F01F7F2A4001A809A909AA09B7
:1004C000AB09AC09AD09AE09AF09A80A031D7B2A27
:1004D000A90A031D7B2AAA0A031D7B2AAB0A031D56
:1004E0007B2AAC0A031D7B2AAD0A031D7B2AAE0AB8
:1004F000031D7B2AAF0A0130F0007008F20673304A
:100500008600003087000830F00000301E00F00B3D
:10051000862A4001200821042204230424042504FF
:10052000260427040319EA2AF101F10AA71BA52AC8
:10053000A035A10DA20DA30DA40DA50DA60DA70D0F
:100540000130F0007008F107962AF335F40DF50D2F
:10055000F60DF70DF80DF90DFA0D27082F02031D02
:10056000CB2A26082E02031DCB2A25082D02031DA7
:10057000CB2A24082C02031DCB2A23082B02031D9F
:10058000CB2A22082A02031DCB2A21082902031D97
:10059000CB2A20082802031CDE2A2008A8022108F2
:1005A000A93B2208AA3B2308AB3B2408AC3B250807
:1005B000AD3B2608AE3B2708AF3B7314A736A60C0D
:1005C000A50CA40CA30CA20CA10CA00C0130F102F0
:1005D000031DA52A720803190B2BF309F409F50969
:1005E000F609F709F809F909FA09F30A031D0B2BB3
:1005F000F40A031D0B2BF50A031D0B2BF60A031D32
:100600000B2BF70A031D0B2BF80A031D0B2BF90A02
:10061000031D0B2BFA0A73084001A0007408A10007
:100620007508A2007608A3007708A4007808A50042
:100630007908A6007A08A7000800C0004101C21B83
:10064000252BFD30C305FF30C4054208803A400128
:10065000B60080303602031D302B013041014102CB
:100660000318382B01304001BE000030BF00402B82
:10067000410142084001BF00410141084001BE0064
:10068000410140084001C20041013F084001C10052
:100690004101431E502BFE304001C107FF30C23DD7
:1006A00040012D08C3002E08C4002F08C5003008E3
:1006B000C6003108C7003208C8003308C900340832
:1006C000CA001F30CB000030CC004201BF01F72B25
:1006D000FF304001CB07FF30CC3D0F304305CD004C
:1006E00000304405CE004E08803AB6008030360215
:1006F000031D7C2B0A304D02031C822B40014D0848
:10070000573E852B40014D08303ECD0000304E3D18
:10071000CE003508BF3EB600FF3003180030B700EA
:10072000003037021A30031936020318B52B203077
:100730004D04B60000304E04B70036089F3EB800A6
:10074000FF30373DB900003039021A300319380242
:100750000318B52B4E08F7004D08F6008C314C24D9
:1007600083317708CE007608CD004D08B6004B08DF
:10077000203E86000130870036088100FF30BE072A
:10078000FF30BF3DFF30C107FF30C23D4330860020
:1007900000308700403FB600413FB700423FB800FD
:1007A000433FB900443FBA00453FBB00463FBC0051
:1007B000473FBD0004304001BD36BC0CBB0CBA0C39
:1007C000B90CB80CB70CB60C890BDB2B40013D08FB
:1007D000CA003C08C9003B08C8003A08C7003908ED
:1007E000C6003808C5003708C4003608C3004001F9
:1007F0004C08803AB60080303602031D012C0230CE
:100800004B02031C282C40014308440445044604C1
:100810004704480449044A04031D682B3F08803AF2
:10082000B60080303602031D172C01303E0203183B
:10083000682B40014208803AB60080303602031D22
:10084000232C01304102031C282C4101C318682BC2
:100850004101431E462CFF304001CB07FF30CC3D09
:100860003508B6004B08203E860001308700360868
:100870008100FF30CB07FF30CC3D3030B6004B0855
:10088000203E8600013087003608810040014B0879
:10089000203EB6003608A4004208A6004108A50084
:1008A00040088E3168262508AE002408AD000800F7
:1008B000BF003008C4003108C5003208C600330844
:1008C000C7003408C8003508C9003608CA00370810
:1008D000CB004430860000308700473FB800B81F87
:1008E000732C0130742C00304001B900BA01390872
:1008F000C2003A08C3004208430403199D2CC409EE
:10090000C509C609C709C809C909CA09CB09C40A62
:10091000031D9D2CC50A031D9D2CC60A031D9D2C7D
:10092000C70A031D9D2CC80A031D9D2CC90A031D5F
:100930009D2CCA0A031D9D2CCB0A4101C21BA42C6D
:10094000FD30C305FF30C4054208803A4001B800BD
:1009500080303802031DAF2C0130410141020318E1
:10096000B72C01304001BD000030BE00BF2C41015A
:1009700042084001BE00410141084001BD00410163
:1009800040084001C10041013F084001C000420849
:100990004304031DCE2C4101431DD32CFF304001E5
:1009A000C007FF30C13D1F304001CC000030CD00FA
:1009B0004201BF01672D4001440845044604470435
:1009C000480449044A044B04031D002D3E08803AA4
:1009D000B80080303802031DEF2C01303D020318AF
:1009E000002D40014108803AB80080303802031DD4
:1009F000FB2C01304002031C732D4101C31C732DDD
:100A0000FF304001CC07FF30CD3D0A30A000A101EE
:100A1000A201A301A401A501A601A7014408A80001
:100A20004508A9004608AA004708AB004808AC00E2
:100A30004908AD004A08AE004B08AF0081314E2195
:100A400084312108F4002008F3008C3177248431AC
:100A50007308303E4001B8004C08203E860001304B
:100A6000870038088100FF30BD07FF30BE3DFF30F2
:100A7000C007FF30C13D0A30A000A101A201A301BF
:100A8000A401A501A601A7014408A8004508A900E2
:100A90004608AA004708AB004808AC004908AD006A
:100AA0004A08AE004B08AF0082312A228431200868
:100AB000C4002108C5002208C6002308C700240876
:100AC000C8002508C9002608CA002708CB00400135
:100AD0004D08803AB80080303802031D712D013076
:100AE0004C020318DB2C400142084304031D7B2DFC
:100AF0004101431D932DFF304001CC07FF30CD3D18
:100B000042084304031D862D2B30872D2D30BB005A
:100B10000030BC003B08B8004C08203E8600013085
:100B200087003808810040014C08203EB800380892
:100B3000A4004108A6004008A5003F088E316826A1
:100B40002508B1002408B00008004001ED004F085E
:100B500086008701403FD100413FD2005108840008
:100B6000520885001200253A031DBF2F4F0886004A
:100B700087010130810741310318810A4101BF011A
:100B8000C001C301C401FF30C100FF30C2004001F9
:100B9000E801E901E72D4101431440014F088600B7
:100BA00087010130810741310318810AE72D410196
:100BB000C314CD2D41014315CD2D4101C315CD2DBC
:100BC00041014316CD2D0130E8000030E9006808EE
:100BD0006904031D102E4F0886008701403FD10095
:100BE000413FD20051088400520885000008D3001C
:100BF000D4015408003A0319FE2DE32D5308203A7E
:100C00000319DD2D033A0319E02D083A0319DA2DF3
:100C1000063A0319CB2D1D3A0319D72DE32DE72DE5
:100C20004101431C172EFD30C305FF30C4054001B0
:100C30004F0886008701403FD100413FD200510854
:100C400084005208850012002A3A031D452E4F08E1
:100C5000860087010130810741310318810A50085D
:100C60008600870101088400850102308107003F6A
:100C70004101BF00013FC000C01F772E4314BF09D0
:100C8000C009BF0A0319C00A772E4F0886008701E2
:100C9000403FF600413FF70080310420853177085E
:100CA0004101C0007608BF0040014F08860087015F
:100CB000403FD100413FD2005108840052088500D6
:100CC0000008D03ED300FF3003180030D4000030BD
:100CD00054020A30031953020318772E4F08860076
:100CE00087010130810741310318810A542E4001E8
:100CF0004F0886008701403FD100413FD200510894
:100D00008400520885001200643A0319962E4F0899
:100D100086008701403FD100413FD2005108840046
:100D2000520885001200693A031DCF2E4F08860035
:100D300087010130810741310318810A500886007C
:100D4000870101088400850102308107003FD1003E
:100D5000013FD2005108D6005208D700890D893BC7
:100D60008909D800D900DA00DB00DC00DD00560874
:100D7000B0005708B1005808B2005908B3005A082B
:100D8000B4005B08B5005C08B6005D08B7006D08EC
:100D9000843158243108D0003008CF0008004F08B3
:100DA00086008701403FD100413FD20051088400B6
:100DB000520885001200733A0319F42E4F0886007A
:100DC0008701403FF000413FF1005630F200903083
:100DD000F3000330F4000030F5008E31B926853180
:100DE00070087104031D2A2F4F0886008701403FB9
:100DF000D100413FD2005108840052088500120002
:100E0000733A0319052F0330062F0130EA00003032
:100E1000EB004F08860087016A08810741316B08A3
:100E2000813D7F31500886008701010884008501DB
:100E300002308107003FE600013FE7006708FB0042
:100E40006608FA006D0880318A207B08D0007A0895
:100E5000CF0008004F0886008701403FD100413F86
:100E6000D20051088400520885001200783A031914
:100E7000482F4F0886008701403FD100413FD200F4
:100E800051088400520885001200583A031D8D2F26
:100E90004F0886008701403FD100413FD2005108F2
:100EA0008400520885000008D3005308EC004F0866
:100EB000860087010130810741310318810A5008FB
:100EC0008600870101088400850102308107003F08
:100ED000DE00013FDF00E001E101E201E301E401A6
:100EE000E5015E08AD005F08AE006008AF00610874
:100EF000B0006208B1006308B2006408B30065087E
:100F0000B4006C08D1005108B5006D0883311D2371
:100F10002E08D0002D08CF0008004F08860087015A
:100F2000403FD100413FD200510884005208850063
:100F30001200253A031DB42F4F08860087010130A7
:100F4000810741310318810A2530F2000030F30097
:100F50006D08D1005108F4008D3198250130400111
:100F6000CF000030D00008004F0886008701013014
:100F7000810741310318810ACF01D00108004F08D1
:100F800086008701403FD100413FD20051088400D4
:100F9000520885000008D300D4015308F200540819
:100FA000F3006D08D5005508F4008D319825853182
:100FB00040014F0886008701013081074131031845
:100FC000810AAE2FF83084008B308500E330860034
:100FD0000030870007308B31F2238731A030840046
:100FE0000030850026308B31EC238731203084009F
:100FF0000130850020308B31EC2340018E31182EDA
:10179E00013008000130080042011E0C013908001A
:1017AE00F10071088B31FF2308007108EB007008FF
:1017BE00EA0008007108ED007008EC0008007108DE
:1017CE004101EF007008EE00080064008001013155
:1017DE00890BED2B0034FE0012001E00FE0BF32BC6
:1017EE00003428346E3475346C346C34293400343F
:1017FE00F0004E010F1E002C700842019A000800E6
:10180E004F0196019701980199019A019B010800D9
:10181E004301990108309A009B014F3097009A12AC
:10182E000800603051018D008F0191010630930048
:10183E00920108008B31D3238C31003A0319212CED
:10184E004001961063004001961408008C31072465
:10185E008C318C310F248C318D31CF258C318C31E4
:10186E0018248C318D3127250800CE30D000500839
:10187E00D1004D08C7004C08C600D130D00050082A
:10188E00C80000308D316D25080076089F3EF800A7
:10189E00FF30773DF900003079021A3003197802D3
:1018AE00031808005F307605F60000307705F70064
:1018BE0008007008D03EF200FF30713DF30000309A
:1018CE0073020A300319720203186F2C0130702C48
:1018DE000030F400F5017408F0007508F1000800FE
:1018EE007408803AF50080307502031D802C01309B
:1018FE007302031808007309F5007409F600F50A5F
:10190E000319F60A7508F3007608F400080071084A
:10191E00F4007008F300700884007108850012004E
:10192E0003199E2C0130F0070030F13D922C730804
:10193E007002F0007408713BF10008007008BF3EA1
:10194E00F200FF30713DF300003073021A300319BC
:10195E0072020318B42C0130B52C0030F400F501DE
:10196E007408F0007508F100080070089F3EF20040
:10197E00FF30713DF300003073021A30031972020A
:10198E000318CB2C0130CC2C0030F400F501740878
:10199E00F0007508F1000800F401F501701CDB2C55
:1019AE007208F4077308F53D0130F235F30D890B1B
:1019BE00DC2C0130F136F00C890BE12C700871042F
:1019CE00031DD52C7508F1007408F0000800F40111
:1019DE00F40A2030700671040319022D7008F73EC8
:1019EE00F200FF30713DF300003073020530031931
:1019FE0072020318F4017408F200F3017208F00089
:101A0E007308F100080020307004F20000307104F9
:101A1E00F30072089F3EF400FF30733DF500003076
:101A2E0075021A300319740203181F2D0130202D70
:101A3E000030F600F7017608F0007708F100080094
:101A4E00083042019F0080309D0024309E00A0305F
:101A5E009B0001309C000030F0000030F1008B3113
:101A6E00E6238D310030F0000030F1008B31E123A0
:101A7E008D310030F0000030F1008B31DC23C501D8
:101A8E000800A300A101A20121082307FB007B0887
:101A9E008600013087000108FC007C08A0002008A9
:101AAE00031908002008FB00FC017B08F2007C08EB
:101ABE00F3007A08FD007D08F4008D3198258D31F4
:101ACE0001304001A1070030A23D4B2DC90047084F
:101ADE00CB004608CA00BD01BE014A0884004B086F
:101AEE00850012000319932DCA304001EE006E08D6
:101AFE00CF00410148084001EF006F08D0004101BE
:101B0E0049088531A5258D314F084101BD0740019A
:101B1E0050084101BE3D742D3E08C7003D08C60069
:101B2E0008007408031D7408031DA12D72088B3163
:101B3E00D72308007408083E8600870116000104AA
:101B4E000319C52D7408083E86008701403FF50035
:101B5E00413FF6007408023E86008701403FF700C1
:101B6E00413FF8007808803AF9007608803A790209
:101B7E00031DC32D75087702031808007408023E72
:101B8E00860087010130810741310318810A080060
:101B9E0040019A0199019601203097009801073073
:101BAE009500F9309100DF309200FF309300FF3046
:101BBE0094003F307E01D900FF30CE00D730C300F5
:101BCE000730E400F930B800DA01E5011030C40046
:101BDE00B901CF01E601BA01C501D001DB01FF3029
:101BEE00BB00FF30C600FF30D100FF30DC000730F5
:101BFE00E700FF30BC00FF30C700FF30D200FF30DF
:101C0E00DD000F30E8001E307D01C90010307E016E
:101C1E009D0016309B001730AE000B307D01C800C2
:101C2E0008008C312D248E314001161500304101F3
:101C3E00D5000130D4008630D300A030D2008F31D1
:101C4E000B278E31640016304101DC005C08E10088
:101C5E00E130DC005C08F000F101F10A44308B3118
:101C6E00D1238E31003A0319642EE130DC005C087A
:101C7E00F0000230DD005D08F10044308B31CF23DF
:101C8E008E31003A0319642E4430CC009030CD00D2
:101C9E006108DC00DD016208DE00DF015E08DF00A6
:101CAE00DE015C085E04CE005D085F04CF008C315F
:101CBE003C248E318C3121248E318C3121248E3175
:101CCE00292EAC004101431C752E40012C08A700A3
:101CDE002708FA0024088D3148258E314001A61BB5
:101CEE007D2E2608AB002508AA007F2EAA01AB0187
:101CFE00A801A9012908803AA7002B08803A2702DB
:101D0E00031D8B2E2A08280203189F2E2030F20066
:101D1E000030F30040012C08A7002708F4008D3195
:101D2E0098258E3101304001A8070030A93D812E43
:101D3E0041014318AB2E40012C08A7002708FA00DA
:101D4E0024088D3148258E3140012408F0000130E1
:101D5E00F1008C318E242A087007A4002B08713DE7
:101D6E00A50008007108F8007008F7007308FA0063
:101D7E007208F9000130F4020030F53B740A031DBD
:101D8E00F32E750A031DF32EF001F10108007908F8
:101D9E0084007A08850012000319FA2E740875045F
:101DAE000319FA2E790884007A0885000008F600D7
:101DBE00770884007808850000087606031DFA2E41
:101DCE000130F7070030F83D0130F9070030FA3DD9
:101DDE000130F4020030F53B770884007808850066
:101DEE001200031DCE2E77088400780885000008A7
:101DFE00F600790884007A08850000087602F00063
:101E0E00F101031CF10308005030CC009030CD00DE
:101E1E002030CE009030CF008C313C248F310830F2
:101E2E0043019A0000304101DB007A30DA001230B3
:101E3E00D9000030D8005508F3005408F2005308BA
:101E4E00F1005208F0005B08F7005A08F600590836
:101E5E00F5005808F4008F317E278F317308410149
:101E6E00DB007208DA007108D9007008D800FF3064
:101E7E00D807FF30D93DFF30DA3DFF30DB3DDB1BAD
:101E8E005B2F5B08031D522F5A08031D522F013082
:101E9E005902031C5B2F00304101DB000030DA00D9
:101EAE000030D900FF30652F4101DB1F662F003057
:101EBE00DB000030DA000030D9000030D8005808BE
:101ECE004301970099019B0128309A003630410159
:101EDE00CC009030CD00430117084101D600D70148
:101EEE005608CE005708CF008C313C240800400124
:101EFE00A101F31F8F2FF009F109F209F309F00A7E
:101F0E000319F10A0319F20A0319F30AA101A10A2E
:101F1E00F71FA02FF409F509F609F709F40A0319BA
:101F2E00F50A0319F60A0319F70A0130F8007808C2
:101F3E00A1060030A5000030A4000030A300003040
:101F4E00A20073087204710470040319E92FA00132
:101F5E00A00AF31BBE2F0130F035F10DF20DF30D7B
:101F6E00890BB32F0130F8007808A007B02F01308D
:101F7E00A235A30DA40DA50D890BBF2F73087702F3
:101F8E00031DD32F72087602031DD32F710875021D
:101F9E00031DD32F70087402031CDE2F7008F40289
:101FAE007108F53B7208F63B7308F73B22140130BB
:101FBE00F336F20CF10CF00C890BDF2F0130A0027E
:101FCE00031DBE2F21080319F72FA209A309A40987
:101FDE00A509A20A0319A30A0319A40A0319A50A3B
:101FEE002508F3002408F2002308F1002208F0006F
:101FFE00080000340034003400340034003400345F
:10200E000034003400340034003400340034003422
:10201E000034003400340034003400340034003412
:10202E000034003400340034003400340034003402
:10203E0000344D3453345334503431345F344934D6
:10204E00323443345F344D34613473347434653414
:10205E0072345F3449346E3469347434003453341A
:10206E005334503432344134443444343D342534C2
:10207E003034323458340A3400340A34443465343B
:10208E0067347234653465343A342034253464341C
:10209E0000340A34253473343A34203400346C342A
:0620AE006C3473340034B1
:020000040001F9
:08000000FF3FFF3FFF3FFF3F00
:0A000E00EC3FFF3FE907FF3FFF3F13
:00000001FF
