:100000000A128A110C28FF3FFE00030EF0000A08B6
:10001000F1000A128A11B12B0A128A110F280A1252
:100020008A11BF230A128A11C1000A128A11BE2343
:10003000FB00B701B801B901BA01BB01BC01BD01A8
:10004000BE01BF01C001FA0183010A128A11C4294D
:10005000B428B901BA01831689140915831209104D
:1000600002303F28831609140915831289100430C1
:100070003F28831609148914831209110630F600EB
:100080007608FA00BF2802307A06031D51280A12AA
:100090008A119C220A128A11F60039087606F03974
:1000A0005F2804307A06031D62280A128A119C22F6
:1000B0000A128A11F600F60E390876060F3976060E
:1000C000B900A62806307A06031DA628FA010A12EE
:1000D0008A119C220A128A11F6003A087606F03933
:1000E0007606BA0039083A04031999283B083C04FB
:1000F000031D8028C0013A08BC003908BB009D28B8
:100100003C083A06031D86283B08390603198B284C
:10011000BB01BC019D2864304002031894280130C3
:10012000F6007608C0079D283C08BE003B08BD00CD
:100130009D28BB01BC01BD01BE012130F700763016
:10014000F600F60BA128F70BA12800008312031379
:100150000914891409158316091089100911013031
:10016000F6007608FA07BF287A08013A0319292809
:10017000023A03193228063A031939284328831210
:100180003E08F5003D08F4000800F800E1280230C0
:10019000F5007508FB000830DC280230D028043058
:1001A000F5007508FB001030DC280230D828043038
:1001B000F5007508FB001430F50075088312C100C6
:1001C000F5287808003A0319C728013A0319C72807
:1001D000033A0319CD28013A0319CF28073A031926
:1001E000D528013A0319D72855290230F7000430E1
:1001F000F600BA30F500F50BFB28F60BFB28F70BE1
:10020000FB28000003300A128A1118230A128A11EF
:100210000A128A118B230A128A112130F6007630D5
:10022000F500F50B1129F60B112900000A128A11AD
:100230008B230A128A11A630F500F50B1D29000048
:100240000A128A118B230A128A1102300A128A11A9
:1002500018230A128A110A128A118B230A128A1190
:1002600028300A128A1138230A128A110C300A1215
:100270008A1138230A128A1106300A128A11382389
:100280000A128A1101300A128A1138230A128A11BD
:100290000330F7008A30F6005530F500F50B4E2993
:1002A000F60B4E29F70B4E2955290800A4000A1217
:1002B0008A1128200A128A117508A3007408A20066
:1002C000220823040319C02923083806031D6A29BC
:1002D000220837060319C2292308B8002208B700EC
:1002E0002308F3002208F2000A128A11C6220A1219
:1002F0008A11A0003F082407A100210884002008DB
:10030000831380003F082407A000200884002A30BF
:100310000006031D9E293F082407A0002008840032
:1003200080013F08031996290130BF023F082407C6
:10033000A000200884008001013008003F08240745
:10034000A0002008840023300006031DB729BF0148
:10035000B701B8010030F200F3001030F4000030B3
:10036000F50024080A128A115623023008001030C2
:100370003F020318A7290130A0002008BF079C29CD
:10038000B701B801003008000A128A11B8230A1216
:100390008A110A128A11BC230A128A1102300A1227
:1003A0008A11C5200A128A1183120313A001A00A20
:1003B0002330A1008030A200A30100300A128A116C
:1003C00011220A128A118B170B170030F200F3006A
:1003D0001030F4000030F50027300A128A1156233D
:1003E0000A128A1127300A128A1156210A128A111A
:1003F000003A0319F22901300A128A119B230A12CA
:100400008A11A0012730A1000030A2001030A60000
:100410002608A30001300A128A1111220A128A1139
:10042000F229A4002008F9007908F50024080A122E
:100430008A11F0220A128A11831203132308031966
:10044000362A592A2208FF00210884000A128A113C
:100450005D220A128A110A128A11A7230A128A112E
:100460000130A1070318A20A0030A2072208FF00EA
:10047000210884000A128A115D220A128A11003AA8
:1004800003190800222A2208FF00210884000A120A
:100490008A115D220A128A110A128A11A7230A12EE
:1004A0008A110130A1070318A20A0030A207013007
:1004B000A302230803190800432AFF1B672A83139A
:1004C0007F1883170008840A0319FF0A0800023006
:1004D0008A000408840A8207003431343434373403
:1004E0002A343234353438343034333436343934D1
:1004F000233400348034C0349034D0342034203459
:10050000203420342034203420342034203420344B
:100510002034203420342034203420340034543427
:1005200079347034653420347334743472346934FB
:100530006E3467343A3400340310861D03140030DF
:1005400003180130F3000310F30D0310061D03140C
:10055000003003180130F2007208F3040310F30DA9
:100560000310861C0314003003180130F2007208D7
:10057000F3040310F30D0310061C031400300318DA
:100580000130F2007208F30473080800F501FF302F
:10059000F4007408F600721CD72A760A031DD52AC7
:1005A0007508F4007408F600D72A003008000130FE
:1005B0000310F30CF20CFF3E031DD82A0130F400A7
:1005C0007408F5070C307502031CCB2A760A031950
:1005D000D52A7608013E84000A128A116722080093
:1005E000F80078087B020318F92A7B08F6007608E1
:1005F000F800750841020318012B4108F60076083F
:10060000F50078080E3E84000A128A1167220A1249
:100610008A117507F6007608F70077080A128A1122
:1006200038230A128A115330F600F60B152B0800F6
:10063000F200721C1F2B831203130815222B831246
:10064000031308110310F20C721C282B8815292B98
:1006500088110310F20C721C2F2B0816302B081275
:100660000310F20C721C362B881608008812080042
:10067000F4007408F30004300310F30CFF3E031D74
:100680003C2B73080A128A1118230A128A110A12C3
:100690008A118B230A128A1174080A128A111823EC
:1006A0000A128A110A128A118B230800F8007808AE
:1006B000F6007608F7000130F4020030031CF50361
:1006C000F502740A0319750A031908007208F60086
:1006D000770884007608831380000130F6007608DE
:1006E000F7075B2B85018601870188018901FF30AF
:1006F00083168500FF308600FF308700C0308800F9
:10070000890183129F01063083169F007F30F2001B
:100710007208810508008312031388140430F20064
:10072000F20B902B932B8312031388105330F2009B
:10073000F20B982B0800A500A0011230A100803018
:10074000A200A30125080A128A1111220800F5004F
:10075000081475080A128A1138238312031308102B
:10076000080071088A00700E8300FE0E7E0E0900DC
:100770000A128A1172230800FA01080002340834B0
:02400E003A3F37
:00000001FF
