:04000000803114280F
:100008007E1480312E00961E0A280B2812288C1E7A
:100018000E280F2812288031AE2080317E1009006A
:10002800803116287E1020008031682820009A012F
:10003800990196019701980107309500FD309100CC
:10004800FF309200FF309300FF309400FF303E00F5
:10005800D900FF30CE00FF30C3000730E400FD3088
:10006800B800DA01E501C401B901CF01E601BA011E
:10007800C501D001DB01FF30BB00FF30C600FF30F7
:10008800D100FF30DC000730E700FF30BC00FF3054
:10009800C700FF30D200FF30DD000F30E800080055
:1000A800863020009F00FF309D009C012E008C129E
:1000B8009616B930F1000030F2008031B42080315A
:1000C800803020009E000800803177208031843005
:1000D800F1000030F2008031B42080318B170B170B
:1000E8007428803114288031A620803180311A206C
:1000F800803180319D20803180315420803108004A
:100108002000160C0139F0000130F006F00D160839
:100118007006FD3970069600080073087404031908
:10012800962897289C2874088A0073080A0080314A
:100138000800603031008D008F0191010630930076
:10014800920108002F0096019701980199019A01E0
:100158009B0108002E008C1280319120803108000C
:0C0168007208F4007108F30008000800A1
:020000040001F9
:0A000E00EC3FFF3F9F3FFF3FFF3F25
:00000001FF
