:1000000080312B28080001347E1480314E01161AED
:100010000C1E0E288F314127803129280B1F2928DB
:10002000191A0F1E1A2841015B088A005A080A0093
:1000300080312928991A8F1E2428410159088A00E5
:1000400058080A00803129289A18901C29288F31D5
:1000500049277E10090080312D284101803103207D
:100060008031DE00FA01FB01A03084000030850001
:100070001F308F317427803120308400013085009B
:1000800040308F3174277E1040018231CD2AC90063
:100090003A08CE003B08CF003C08D0003D08D10014
:1000A0003E08D2003F08D3004008D4004108D500E4
:1000B0004E30860000308700473FC200C21F6228D2
:1000C0000130632800304001C300C4014308CC0064
:1000D0004408CD004C084D0403198C28CE09CF09E3
:1000E000D009D109D209D309D409D509CE0A031DF3
:1000F0008C28CF0A031D8C28D00A031D8C28D10A16
:10010000031D8C28D20A031D8C28D30A031D8C28BA
:10011000D40A031D8C28D50A4101B51B9328FD3054
:10012000B605FF30B7053508803A4001C20080307F
:100130004202031D9E280130410134020318A62803
:1001400001304001C7000030C800AE284101350829
:100150004001C800410134084001C7004101330893
:100160004001CB00410132084001CA004C084D0457
:10017000031DBD284101361DC228FF304001CA07BA
:10018000FF30CB3D1F304001D6000030D700420188
:10019000DF01562940014E084F0450045104520417
:1001A000530454045504031DEF284808803AC20044
:1001B00080304202031DDE28013047020318EF2879
:1001C00040014B08803AC20080304202031DEA28F9
:1001D00001304A02031C62294101B61C6229FF302A
:1001E0004001D607FF30D73D0A30A000A101A2018F
:1001F000A301A401A501A601A7014E08A8004F086C
:10020000A9005008AA005108AB005208AC005308DE
:10021000AD005408AE005508AF008431B7248031DA
:100220002108F6002008F5008F31D12780317508AC
:10023000303E4001C2005608403E86000130870033
:1002400042088100FF30C707FF30C83DFF30CA07B2
:10025000FF30CB3D0A30A000A101A201A301A401FF
:10026000A501A601A7014E08A8004F08A900500843
:10027000AA005108AB005208AC005308AD00540866
:10028000AE005508AF008331C22380312008CE0074
:100290002108CF002208D0002308D1002408D20072
:1002A0002508D3002608D4002708D50040015708A8
:1002B000803AC20080304202031D6029013056029C
:1002C0000318CA2840014C084D04031D6A29410146
:1002D000361D8229FF304001D607FF30D73D4C083C
:1002E0004D04031D75292B3076292D30C5000030B3
:1002F000C6004508C2005608403E8600013087000F
:100300004208810040015608403EC2004208AC004D
:100310004B08AE004A08AD0049088531E5252D0897
:10032000BB002C08BA000800E700580886008701C7
:10033000403FDA00413FDB005A0884005B0885003B
:100340001200253A031DAA2A5808860087010130A9
:10035000810741310318810A4101B201B301B6019D
:10036000B701FF30B400FF30B500400158088600E7
:100370008701403FDA00413FDB005A0884005B08F8
:1003800085001200643A0319D429580886008701B1
:10039000403FDA00413FDB005A0884005B088500DB
:1003A0001200693A031D0D2A5808860087010130A2
:1003B000810741310318810A590886008701010825
:1003C0008400850102308107003FDA00013FDB0035
:1003D0005A08DF005B08E000890D893B8909E100CC
:1003E000E200E300E400E500E6005F08BA00600810
:1003F000BB006108BC006208BD006308BE00640861
:10040000BF006508C0006608C1006708803147204A
:100410003B08D9003A08D800080058088600870130
:10042000403FF200413FF3003330F4009030F500DC
:100430000230F6000030F7008531932581317208D3
:1004400073040319392A580886008701403FF200D7
:10045000413FF3003630F4009030F5000230F600F2
:100460000030F70085319325813172087304031D34
:10047000782A580886008701023081074131031825
:10048000810A59088600870101088400850104302B
:100490008107003FDA00013FDB00023FDC00033F41
:1004A000DD005A08DF005B08E0005C08E1005D0841
:1004B000E2000030E21BFF30E300E400E500E6006C
:1004C0005F08BA006008BB006108BC006208BD009C
:1004D0006308BE006408BF006508C0006608C1006C
:1004E0006708803147203B08D9003A08D800080047
:1004F000580886008701403FDA00413FDB005A0878
:1005000084005B0885001200253A031D9F2A5808C5
:10051000860087010130810741310318810A2530A7
:10052000F5000030F6006708DA005A08F700863157
:10053000B92601304001D8000030D9000800580821
:10054000860087010130810741310318810AD801F3
:10055000D9010800580886008701403FDA00413F72
:10056000DB005A0884005B0885000008DC00DD0120
:100570005C08F5005D08F6006708DE005E08F7001D
:100580008631B92681314001580886008701013043
:10059000810741310318810A992A4101CF01C9011C
:1005A000CA010030CE000030CD000030CC00003059
:1005B000CB008F31962782314101B801B901BA01D0
:1005C00045018C019830F2000730F3008F316E271F
:1005D00082318B170B1745010C084101C7004708F2
:1005E000DC00152BBA011830BF009030C0008731F5
:1005F000EB27823127304101BF009030C00039081D
:10060000C2003808C1008731EB2782312E3041010A
:10061000BF009030C0005C08C700C8014708C10097
:100620004808C2008731EB27823141013A030319A0
:10063000F22A8731D2278231003A0319A72B4F08BB
:10064000031D362BCF01CF0A0030CE000030CD0085
:100650000030CC000030CB00B801B9011030BF0031
:100660009030C0008731EB278231A72BCF0120309B
:10067000BF009030C0008731EB278231A72B0130BB
:10068000C9070030CA3D03304A02E8300319490265
:10069000031CB82B4001981102304101C7004708E4
:1006A000CF000130CB070030CC3D0030CD3D0030D5
:1006B000CE3D0030BF009030C0004E08C4004D0851
:1006C000C3004C08C2004B08C1008731EB278231C0
:1006D000B82B400198154101CF01CF0AC901CA01C9
:1006E00045010C084101C700C8014708B807480880
:1006F000B93D5C08C700C8014708B8024808B93BC3
:1007000045018C01000000000000000045010C08BC
:100710004101C7004708DC002730BF009030C0000F
:100720003908C2003808C1008731EB2782312E30EA
:100730004101BF009030C0005C08C700C8014708F5
:10074000C1004808C2008731EB278231B82B410134
:100750004F08C700C8014808003A0319B02BB82B4E
:100760004708013A03193F2B033A0319692BB82BA9
:100770000B304101C7006230890BBC2BC70BBC2B6F
:100780000000152BB1012030860000308700473F64
:10079000F200F21FED2B4001A009A109A209A30953
:1007A000A409A509A609A709A00A031DEA2BA10A05
:1007B000031DEA2BA20A031DEA2BA30A031DEA2B41
:1007C000A40A031DEA2BA50A031DEA2BA60A031D92
:1007D000EA2BA70A4001B101B10A28308600003097
:1007E0008700473FF200F21F192C4001A809A90910
:1007F000AA09AB09AC09AD09AE09AF09A80A031DE6
:10080000142CA90A031D142CAA0A031D142CAB0ACC
:10081000031D142CAC0A031D142CAD0A031D142C4B
:10082000AE0A031D142CAF0A0130F2007208400119
:10083000B10632308600003087000830F200003008
:100840001E00F20B202C4001200821042204230466
:1008500024042504260427040319842CB001B00ABB
:10086000A71B3F2CA035A10DA20DA30DA40DA50D16
:10087000A60DA70D0130F2007208B007302CB2357A
:10088000B30DB40DB50DB60DB70DB80DB90D2708E4
:100890002F02031D652C26082E02031D652C25083A
:1008A0002D02031D652C24082C02031D652C230832
:1008B0002B02031D652C22082A02031D652C21082A
:1008C0002902031D652C20082802031C782C20080F
:1008D000A8022108A93B2208AA3B2308AB3B240815
:1008E000AC3B2508AD3B2608AE3B2708AF3B321496
:1008F000A736A60CA50CA40CA30CA20CA10CA00C52
:100900000130B002031D3F2C31080319A52CB20998
:10091000B309B409B509B609B709B809B909B20AE2
:10092000031DA52CB30A031DA52CB40A031DA52C79
:10093000B50A031DA52CB60A031DA52CB70A031D75
:10094000A52CB80A031DA52CB90A40013208A00045
:100950003308A1003408A2003508A3003608A4001B
:100960003708A5003808A6003908A7000800F401D8
:100970002830860000308700473FF200F21FE12C4C
:100980004001A809A909AA09AB09AC09AD09AE093A
:10099000AF09A80A031DDF2CA90A031DDF2CAA0A30
:1009A000031DDF2CAB0A031DDF2CAC0A031DDF2C5B
:1009B000AD0A031DDF2CAE0A031DDF2CAF0AF401C4
:1009C000F40A2030860000308700473FF200F21F13
:1009D000082D4001A009A109A209A309A409A5099C
:1009E000A609A709A00A031D082DA10A031D082DA9
:1009F000A20A031D082DA30A031D082DA40A031D26
:100A0000082DA50A031D082DA60A031D082DA70AF7
:100A10004001200821042204230424042504260480
:100A200027040319602DF301F30AA71B242DA03519
:100A3000A10DA20DA30DA40DA50DA60DA70D0130AE
:100A4000F2007208F307152D27082F02031D422D0F
:100A500026082E02031D422D25082D02031D422DBE
:100A600024082C02031D422D23082B02031D422DB6
:100A700022082A02031D422D21082902031D422DAE
:100A800020082802031C542D2008A8022108A93B95
:100A90002208AA3B2308AB3B2408AC3B2508AD3B0E
:100AA0002608AE3B2708AF3BA736A60CA50CA40C26
:100AB000A30CA20CA10CA00C0130F302031D242DE9
:100AC00074080319812DA809A909AA09AB09AC0961
:100AD000AD09AE09AF09A80A031D812DA90A031D9E
:100AE000812DAA0A031D812DAB0A031D812DAC0A9D
:100AF000031D812DAD0A031D812DAE0A031D812D1D
:100B0000AF0A40012808A0002908A1002A08A20075
:100B10002B08A3002C08A4002D08A5002E08A60071
:100B20002F08A70008007308A1007208A00075082C
:100B3000A3007408A2000130F6020030F73B760AE9
:100B4000031DCD2D770A031DCD2DF201F301080001
:100B5000220884002308850012000319D42D76088A
:100B600077040319D42D2208840023088500000887
:100B7000F800200884002108850000087806031D7D
:100B8000D42D0130A0070030A13D0130A207003074
:100B9000A33D0130F6020030F73B20088400210815
:100BA00085001200031DA82D20088400210885005F
:100BB0000008F80022088400230885000008780255
:100BC000F200F301031CF3030800B3004101361CDB
:100BD000F22D40013308F9007908F8002C0887311C
:100BE0004F2785314001AE1BFA2D2E08B2002D088B
:100BF000B100FC2DB101B201AF01B0013008803A63
:100C0000F9003208803A7902031D082E31082F02BC
:100C100003181C2E2030F5000030F6004001330888
:100C2000F9007908F7008631B92685310130400195
:100C3000AF070030B03DFE2D41013618282E40018F
:100C40003308F9007908F8002C0887314F278531DF
:100C500040012C088F31E82731087207AC003208B8
:100C6000733DAD00080040019A019901960197017A
:100C70000830980007309500FF309100DF30920077
:100C8000F7309300FF309400F7307E01D900F33045
:100C9000CE00CF30C3000730E400FF30B80008308A
:100CA000DA00E501C401B9010430CF00E601BA0160
:100CB000C5010830D000DB01FF30BB00FF30C600AB
:100CC000FF30D100FF30DC000730E700FF30BC0010
:100CD000FF30C700FF30D200FF30DD000F30E800EA
:100CE0004E0116160C307D01CB0012309C001030E6
:100CF0007E019D0008004E019912F030F20006308E
:100D0000F3008F31622786314E011912B530F2009F
:100D10000730F3008F3168278631083042019F0089
:100D200090309D0024309E0040309B0003309C009A
:100D30004030F2000F30F3008F315C2786314530B0
:100D4000F2000F30F3008F31522786314230F2002B
:100D50000F30F3008F314D27BB01FB01BE01203066
:100D6000F4007408DD00FA01BD01BC014E019916C2
:100D700008007708031D7708031DC22E75088F3100
:100D8000572708007708083E8600870116000104EF
:100D90000319E62E7708083E86008701403FA00031
:100DA000413FA1007708023E86008701403FA20034
:100DB000413FA3002308803AA4002108803A24027E
:100DC000031DE42E20082202031808007708023EC3
:100DD000860087010130810741310318810A08002C
:100DE0007A08A03E86008701810142011D1D032F64
:100DF0007A08A03E860087018114410157088A00C5
:100E000056080A00873142019D1C112F7A08A03E26
:100E1000860087010115410155088A0054080A001F
:100E200087317A08A03E86008701010803191F2F29
:100E3000410153088A0052080A00873108008F31A7
:100E4000BA270800ED006908EF006808EE004101CC
:100E5000B001B10140016E0884006F0885001200E6
:100E60000319462F6E30EB006B08D8006A08EC00BF
:100E70006C08D9006D0881319421873158084101EF
:100E8000B007400159084101B13D2A2F4101310805
:100E90004001E900410130084001E8000800AB00D2
:100EA000A901AA0129082B07A50025088600013001
:100EB00087000108A6002608A800280803190800D2
:100EC0002808A500A6012508F5002608F6007808E0
:100ED000A7002708F7008631B92687310130400185
:100EE000A9070030AA3D522FF30041015D08031904
:100EF000752F4E01191A802F730842019A00952F01
:100F000019127308F2007B08203E8600013087002A
:100F1000720881000130F2007208FB0720307B026A
:100F20000318FB0101304101DD024E0119160800D2
:100F300045018C010000000000000000003041016C
:100F4000B8070130B93D5C08F000F1017008B80243
:100F50007108B93B0130F0007008BA0045010C0877
:100F6000F00070084101DC00080020305D02031829
:100F7000CF2F3E08203E8600013087000108420145
:100F80009A000130F00070084101BE0720303E0297
:100F90000318BE010130F0007008DD0708004E01A3
:100FA0001912080040010F0CF200F20C720C01390A
:100FB00041015E060319E92F003040018F1901300D
:100FC0004101DE005E08031DE72F013008000030FC
:100FD000080000300800C130C5004508C6004008C0
:100FE0004001E90041013F084001E800C6304101ED
:100FF000C50045084001EA0000308731222708007B
:101E8000080008008F31BA27080042011D121D16F4
:101E9000080090108F318B2708007308D300720858
:101EA000D20008007308D5007208D4000800F400BE
:101EB000740887317427080073084101D70072083D
:101EC000D600080073084101D9007208D800080044
:101ED00073084101DB007208DA0008007308410151
:101EE000D1007208D0000800640080010131890B24
:101EF000752F00344F0196019701980199019A01BD
:101F00009B010800603051018D008F019101063066
:101F10009300920108004101500851040319080080
:101F200051088A0050080A008F3108008F317A2743
:101F30008F31863133268F318F3182278F318F3128
:101F4000A5278F3186317B2608004501900140305E
:101F50008F009101FF308D008C014E0190109A147A
:101F60000230F2000030F3008F316E2780304501DF
:101F70008E00080042011908F0007A08A83E860089
:101F80008701700881000130F0007008FA070830FE
:101F90007A020318FA010130F00070084101BC0711
:101FA00008007608803AF70080307702031DDA2FA8
:101FB00001307502031808007509F7007609F8006A
:101FC000F70A0319F80A7708F5007808F600080000
:101FD000F6007608F4007408F500760886000130F3
:101FE000870001080319F92F0130F4007408F6077F
:101FF000ED2F75087602F200F301F21BF3030800DF
:102000000A340A344C344F344F3450343A34203488
:1020100050343D3425346C3464342C342034003452
:102020000A34533474346134723474340A340034EE
:102030000A340A344934533452343A3420340034A4
:102040000A34533474346F3470340A3400344334F3
:102050003D34253464342C342034003449343D3448
:102060002534643400346C34643400346C346934A2
:0220700000343A
:020000040001F9
:08000000FF3FFF3FFF3FFF3F00
:0A000E00EC3FFF3F9F3FFF3FFF3F25
:00000001FF
