:100000008031A3290000FF34EE34EE34DD340034B7
:10001000A4264328B91BB018202AE832F2366136EC
:10002000A023F23070342C2AE536F032F230F43A64
:10003000F232AC29E1367036E53900002618AC18EA
:1000400030163016311631002318AC1830182C1821
:10005000AC182C1800012C002C002C002C002C00BB
:100060002C002C002C002C002C002C002C0020300C
:10007000850003308400000803194B280230F80083
:10008000F701F70B4128F80B40289730F700F70BE2
:100090004728800B3E288031E3294E010F1E4E2851
:1000A00042019A00400108000D304E010F1E5628F3
:1000B00042019A000A304E010F1E5C2842019A004C
:1000C000400108000B088B1350011E131E14000082
:1000D0000000891B8B171C087F390319B2284001C7
:1000E000A20050011A084001A30050011B08400162
:1000F000A40022084E010F1E7B2842019A004001F5
:10010000230850019A004001240850019B000B086D
:100110008B131E131E1400000000891B8B171C0D6F
:100120001D0D7F390319B2284001A20050011A08A1
:100130004001A30050011B084001A40022084E0109
:100140000F1EA02842019A004001230850019A0086
:100150004001240850019B009A0A03199B0A4001A0
:10016000622850014001080003308501840080307E
:10017000850080080319CD280508A3000408A20003
:1001800000084E010F1EC22842019A0040012308B8
:100190008500220884000131B92800304D20542008
:1001A000083050019A0000309B004001622054202A
:1001B0001E3050019A0000309B0040016220542004
:1001C000243050019A0000309B00400162205420EE
:1001D0008031E6290C304D2080310F2A8318F42815
:1001E0002030850023308400F701F801F901FA017D
:1001F000C301C401C501C6013F083E043D043C04DF
:10020000031932292030C7000310B80DB90DBA0DFB
:10021000BB0DC30DC40DC50DC60D3F084602031D21
:100220001B293E084502031D1B293D084402031DEE
:100230001B293C084302031C2C293C08C3023D082F
:10024000031C3D0FC4023E08031C3E0FC5023F08BD
:10025000031C3F0FC6020314F70DF80DF90DFA0D3C
:10026000C70B0429430880004408813F4508823FAA
:100270004608833F0800413084002708AB00260869
:10028000AA002508A9002408A8000408B0003B30F3
:10029000B7009A30B600CA30B500B4010A30B200D7
:1002A000831420308500083084002B08BB002A0806
:1002B000BA002908B9002808B8003708BF00360876
:1002C000BE003508BD003408BC00EE207808F708F1
:1002D000031D7D293208013A03197D2930080319CD
:1002E0007E290F3932020319772903188729B01B99
:1002F0008729301B7E2920307F29B0013030F70755
:1003000077084E010F1E822942019A004001831096
:100310003708BB003608BA003508B9003408B80001
:10032000BF01BE01BD010A30BC00EE207A08B70053
:100330007908B6007808B5007708B400B20B5029E8
:1003400054208031252A55307D018F00AA308F003E
:100350000F100C30CB0010307E019D0055307D0118
:100360008F00AA308F000F14510192018F0191016B
:100370000330930060308D0042019F110C309B00D0
:10038000A2309E0090309D004001A101A0017E019D
:10039000B801C301CE01D901E401530191019201D9
:1003A000930190019501960197019401FE3040015F
:1003B00094001910823052018C0004304001A200D8
:1003C000FA30A3003728A20BE029B4284501910197
:1003D0008F0101309000FF308D00FE308E0088309C
:1003E00041019500073096009801FF309D004201C1
:1003F0008D0194304101930000309A007E01B800D5
:10040000C300CE000230D9000030E40003304101C7
:100410009A0002309E00043099004001EA284E0103
:100420008D1C2C2AFD3040019100961441010D08CD
:10043000FA000C084001A2007A08A300A701A60157
:100440007A08A5002208A4003B294E018D10FD303A
:0C0450004001910096104E01102A63003C
:020000040001F9
:0A000E00EC3FFD3F9F3FFF1FFF3F47
:00000001FF
