:0400000080312828FB
:100008007E14803100308600003087000B1F0D28D9
:100018000E28262841019B1D122813281B28911DF4
:10002800162817281B2889310521803126281B1DF1
:100038001E281F282628111D222823282628893112
:10004800092180317E10090080312A28F801F90140
:10005800FA014001E501C5308400003085001B30FD
:1000680089313F21803120308400013085002030E3
:1000780089313F2180317E1040018E31102E4001A0
:1000880028088039B2002835B800A71F4C284D2809
:100098004E28381438080319522853286228380A79
:1000A800031D5728582860280030A8000030A700F2
:1000B8000030A6000030A500A7176A280030A80065
:1000C8000030A7000030A6000030A5002C088039B9
:1000D800B2062C35B300AB1F72287328742833146A
:1000E80033080319782879288828330A031D7D28BE
:1000F8007E2886280030AC000030AB000030AA0013
:100108000030A900AB1790280030AC000030AB00DD
:100118000030AA000030A900330803199428952854
:100128009A283808031D99289A28A3280030A8007F
:100138000030A7000030A6000030A5007D2A250861
:10014800F3002B088A31CD22803174084001BE00AB
:100158007308BD003D08AD00AE01AF01B001300825
:10016800B7002F08B6002E08B5002D08B4003E08C9
:10017800AD00AE01AF01B0013008BC002F08BB00D4
:100188002E08BA002D08B9002608F3002A088A317B
:10019800CD22803174084001BE007308BD003D08BF
:1001A800AD00AE01AF01B0012D08B4072E08B53D72
:1001B8002F08B63D3008B73D3E08AD00AE01AF018F
:1001C800B0012D08B9072E08BA3D2F08BB3D3008ED
:1001D800BC3D2708F30029088A31CD2280317408F4
:1001E8004001BE007308BD003D08AD00AE01AF017F
:1001F800B0012D08B4072E08B53D2F08B63D3008CC
:10020800B73D3E08AD00AE01AF01B0012D08B907FA
:100218002E08BA3D2F08BB3D3008BC3D0830B43528
:10022800B50DB60DB70D890B13292608F30029085B
:100238008A31CD22803174084001BE007308BD00A8
:100248003D08B4073E08B53D0030B63DB73D25082A
:10025800F3002A088A31CD22803174084001BE009B
:100268007308BD003D08B4073E08B53D0030B63DF3
:10027800B73D0830B435B50DB60DB70D890B3E291D
:100288002508F30029088A31CD22803174084001FD
:10029800BE007308BD003D08B4073E08B53D0030F8
:1002A800B63DB73D2608F3002B088A31CD228031B0
:1002B80074084001BE007308BD003D08B9073E0838
:1002C800BA3D0030BB3DBC3D2708F3002A088A31FF
:1002D800CD22803174084001BE007308BD003D087E
:1002E800B9073E08BA3D0030BB3DBC3D2708F300C6
:1002F8002B088A31CD22803174084001BE00730872
:10030800BD003D08AD003E08AE00AF01B0010830A9
:10031800AD35AE0DAF0DB00D890B8C292D08B90781
:100328002E08BA3D2F08BB3D3008BC3D3408AD004F
:100338003508AE003608AF003708B0001830B036C0
:10034800AF0CAE0CAD0C890BA3292D08B9072E08EC
:10035800BA3D2F08BB3D3008BC3D0830B435B50D5B
:10036800B60DB70D890BB22938083307AD00AE01B9
:10037800AE0D2D08823EBD00FF302E3DBE00DB29AC
:100388000130B935BA0DBB0DBC0D890BC529B71F96
:10039800CE29CF29D02939140130B435B50DB60D81
:1003A800B70D890BD129FF30BD07FF30BE3DBB1FFC
:1003B800DE29DF29C429B301B71FE329E429002A6C
:1003C800FF303405AD00FF303505AE00FF3036058F
:1003D800AF007F303705B00030082F042E042D04FD
:1003E8000319F729F829FB290130B300002A391C21
:1003F800FE29FF29002AF82933080319042A052AA7
:100408002B2A0130B9070030BA3DBB3DBC3D3C1C2E
:100418000E2A0F2A2B2A3908AD003A08AE003B08ED
:10042800AF003C08B0000130B100B037AF0CAE0CE3
:10043800AD0CB10B192A3008BC002F08BB002E08E0
:10044800BA002D08B9000130BD070030BE3D3E0896
:10045800803AAD0080302D02031D342AFF303D0262
:10046800031C372A382A422A7F304001BC008030DA
:10047800BB000030BA000030B900732A40013E08C2
:10048800803AAD0080302D02031D4C2A01303D0218
:1004980003184F2A502A5B2A00304001BC00003064
:1004A800BB000030BA000030B900B201732A400125
:1004B8003D08B800FF30B905FF30BA057F30BB05ED
:1004C8000030BC05381C692A6A2A6B2ABB17380811
:1004D800AD000130AD36890B6E2A2D08BC003208FC
:1004E800BC043C08A8003B08A7003A08A600390845
:1004F800A5000800400123088039F3002335F500E2
:10050800A21F872A882A892A7514750803198D2A33
:100518008E2A9E2A750A031D922A932A9B2A003046
:10052800A3000030A2000030A1000030A000A217F4
:10053800A301A62A0030A3000030A2000030A100C9
:100548000030A00027088039F400740873060319E6
:10055800AE2AAF2AB02A73172735F400A61FB52A8A
:10056800B62AB72A741474080319BB2ABC2ACC2AE1
:10057800740A031DC02AC12AC92A0030A700003006
:10058800A6000030A5000030A400A617A701D42AB1
:100598000030A7000030A6000030A5000030A400FD
:1005A800750874020318D92ADA2AFE2A731FDD2A6D
:1005B800DE2AE02A8030F3067508F6007408F50094
:1005C8007608F4002008F6002408A0007608A400A5
:1005D8002108F6002508A1007608A5002208F600E3
:1005E8002608A2007608A6002308F6002708A3001C
:1005F8007608A700F6017408A800A9012908AB002D
:1006080075082802AA00031CAB032B08803AAC002B
:1006180080302C02031D122B1A302A02031C152BC2
:10062800162B4E2B40012308220421042004031D0D
:100638001E2B202B0130212B0030F6000030A300A8
:100648000030A2000030A1000030A0007408F500BE
:10065800542B761C302B312B3C2B76084001A800FC
:100668000130A836890B352B28080138F6003E2BB7
:100678000310F60C4001201C422B432B442BF61789
:100688000130A800A337A20CA10CA00CA80B462B84
:100698000130F50774087502031C532B542B2D2BBE
:1006A800731B572B582B942B7508031D5C2B5D2B44
:1006B800672B00304001A3000030A2000030A100E9
:1006C8000030A0008D2C40012408A0072508A13D7A
:1006D8002608A23D2708A33D231C732B742B1F2C2F
:1006E800761C772B782B822B7608A8000130A83649
:1006F800890B7B2B28080138F600842B0310F60C95
:10070800201C872B882B892BF6170130A800A337CC
:10071800A20CA10CA00CA80B8B2B0130F5071F2CE9
:1007280040012308803AA8002708803A2802031DC0
:10073800A72B26082202031DA72B25082102031D2B
:10074800A72B240820020318AA2BAB2BE02BFF3081
:10075800A800FF30A900FF30AA00FF30AB00200836
:100768002402AC002108253BAD002208263BAE0040
:100778002308273BAF002C08A8072D08A93D2E0801
:10078800AA3D2F08AB3D2B08A3002A08A200290880
:10079800A1002808A0008030F3067603FF3AF6008F
:1007A8007608031DD82BD92BE82B0130A007003081
:1007B800A13DA23DA33DE82B2408A0022508A13BAA
:1007C8002608A23B2708A33B23082204210420046F
:1007D800031DEF2BF02B1B2C7608031DF42BF52B98
:1007E8001B2C0030A3000030A2000030A100003014
:1007F800A0008D2C0130A035A10DA20DA30D890BF1
:10080800FF2BF61F082C092C0A2C2014761C0D2C03
:100818000E2C122C0314760DF600142C0310F60D72
:1008280075080319182C192C1B2C0130F502A21F6E
:100838001E2C1F2CFE2BF401F61F232C242C322CEB
:1008480076087F390319292C2A2C2D2C0130F40025
:10085800322C201C302C312C322C2A2C74080319F1
:10086800362C372C602C0130A0070030A13DA23D6A
:10087800A33D231C402C412C602C2008A8002108F3
:10088800A9002208AA002308AB000130AC00AB374E
:10089800AA0CA90CA80CAC0B4B2C2B08A3002A08FB
:1008A800A2002908A1002808A000750A03195D2CD8
:1008B8005E2C602C0130F507750A0319642C652C31
:1008C8006A2C7508031D692C6A2C782C0030A3004B
:1008D8000030A2000030A1000030A0007508031D00
:1008E800762C772C782CF301751C7B2C7C2C7E2C99
:1008F800A217802C7F30A2057508A8000130A83601
:10090800890B832C2808A300F31F8B2C8C2C8D2C8F
:10091800A31708004101B6004B303606031D952C7D
:10092800962C992C6530B700FC2D4F303606031DE8
:100938009E2C9F2CFC2DDF30B700FC2D0130A00031
:100948000130A100A201A0304001A0000330A100A5
:10095800410136088B31E8238431003A031DB52C58
:10096800B62CC82C7F304001DA009030DB00410102
:1009780036084001E000E1016008DC006108DD00A4
:100988008931B32184310D2E410137088600870152
:100998003708840085010008013E81000D2E0130D2
:1009A800A000FE30A100A201A0304001A000033049
:1009B800A100410136088B31E8238431003A031D38
:1009C800E62CE72CC82C41013708860087018101F5
:1009D8000D2E0130A0000230A100A201A03040017C
:1009E800A0000330A100410136088B31E82384318F
:1009F800003A031D002D012D022DE72C4101370877
:100A0800860087013708840085010008013E8100BF
:100A180062304001DA009030DB00410136084001C5
:100A2800E000E1016008DC006108DD008931B321E4
:100A380084310D2EA001A0304001A000A101A10A1F
:100A4800410136088B31E8238431003A031D2D2DEE
:100A58002E2D2F2DE72CA0304001A0000230A10040
:100A6800410136088B31AD238431003A031D3D2DF9
:100A78003E2D3F2DE72C410120084001E000E10117
:100A880060084101B400400161084101B500083027
:100A9800B435B50D890B4C2D21084001E000E1016A
:100AA80060084101B404400161084101B504B51F63
:100AB8005E2D5F2DA42D0730B536B40C890B602D43
:100AC8003408F3003508F400F501F60100308F31E1
:100AD8005B27843176084101B3007508B2007408B9
:100AE800B1007308B00044304001B3000030B200D8
:100AF8000030B1000030B000410133084001B700B8
:100B0800410132084001B600410131084001B500F9
:100B1800410130084001B4008A318B228431400100
:100B280033084101B300400132084101B2004001DD
:100B380031084101B100400130084101B000BC2D2D
:100B48000730B536B40C890BA52D3408F3003508E9
:100B5800F400F501F60100308F315B278431760807
:100B68004101B3007508B2007408B1007308B00001
:100B78003F304001A8000030A7000030A600003038
:100B8800A500410133084001AC0041013208400191
:100B9800AB00410131084001AA0041013008400181
:100BA800A900803143208431400128084101B30065
:100BB800400127084101B200400126084101B10067
:100BC800400125084101B0003308F6003208F5005D
:100BD8003108F4003008F3008E317B26843140015F
:100BE8005F08860087017308C03F7408C13F0D2E57
:100BF8003708860087010108003A0319A22C013A38
:100C08000319D32C033A0319ED2C013A03191E2DAD
:100C18000D2E08004001450886008701403FC700A7
:100C2800413FC80047088400480885001200253A5B
:100C3800031D1F2E202EEF2E450886008701013048
:100C4800810741310318810AF801F9010030FA00DF
:100C5800FF304101D300FF30D4004001CB01512EB9
:100C6800FA144508860087010130810741310318CD
:100C7800810A512E0130CB00512E4508860087018C
:100C8800403FC700413FC800470884004808850026
:100C98000008303A0319342E3E2E4B080319552EFE
:100CA800562E412E4508A2004608A3008D31562530
:100CB800863140012308F9002208F800F91F652E43
:100CC800662E6C2E7A14F809F909F80A0319F90A3C
:100CD800450886008701403FD000413FD1005008B9
:100CE8008400510885001200643A03197C2E7D2E79
:100CF800872E50088400510885001200693A031DA8
:100D0800862E872EAC2E46088600870101088400AF
:100D1800850102308107003FCC00013FCD0050081B
:100D2800013EC7000030513DC800450886008701D4
:100D38004708C03F4808C13F4408B7004308B60009
:100D48004D08B9004C08B80087310A278631092FA9
:100D580050088400510885001200583A031DB52E2A
:100D6800B62EE52E46088600870101088400850115
:100D780002308107003FCC00013FCD005008013E02
:100D8800C7000030513DC800450886008701470864
:100D9800C03F4808C13FDC2E4408B7004308B600EE
:100DA8004D08B9004C08B8008E31EA268631092F63
:100DB80050088400510885000008583A0319D02EBD
:100DC800E52E400145088600870101308107413141
:100DD8000318810A092F450886008701403FC7008C
:100DE800413FC80047088400480885000008C9003A
:100DF800CA014908A0004A08A1004408A300430802
:100E0800A2008D31B2258631E52E0800013040015F
:100E1800BD00B91B102F122F0130132F0030C00056
:100E28007908BF007808BE00400803191C2F1D2F41
:100E3800312FFF30BE07FF30BF3D4008031D252F6F
:100E4800262F2B2F2B30BB000030BC002F2F2D302E
:100E5800BB000030BC003B08C0001F30C1000030A0
:100E6800C2004201BF016E2FFF304001C107FF30B1
:100E7800C23D4108203E8600013087000A30F30059
:100E88000030F4003908F6003808F5008C31A82441
:100E9800873174084001A3007308A2008931E42156
:100EA800873140012208303E8100BD01FF30BE0776
:100EB800FF30BF3D0A30F3000030F4003908F60077
:100EC8003808F5008C31FA24873174084001B900DC
:100ED8007308B80040014208803ABA0080303A02EC
:100EE800031D782F01304102031C7B2F7C2F992F83
:100EF800400138083904031D822F832F382F3D08FD
:100F0800031D872F882F382F3F08803ABA0080307A
:100F18003A02031D912F01303E02031C942F952F96
:100F2800992FFA18982F992F382F40014008031944
:100F38009E2F9F2FAA2FFF30C107FF30C23D4108C7
:100F4800203E860001308700400881003708B00045
:100F58003608AF004108203EB1003F08B3003E0804
:100F6800B2008731B927873108007A1CBC2FBD2F02
:100F7800C72F40013108A9003008AB002F08AA008C
:100F88008A31F12287314001B31FCB2FCC2FCE2FCE
:100F9800B201B301B401B501E22F20304001A00035
:100FA8000030A1003008A3002F08A2008D31B2251F
:100FB800873101304001B4070030B53D3508803A2B
:100FC800F7003308803A7702031DEC2F3208340209
:100FD800031CEF2FF02FD12F7A18F32FF42FFE2FA9
:100FE80040013108A9003008AB002F08AA008A3157
:060FF800F1228731080020
:1011FC004101450808004101C5010830080089314A
:10120C00F621893108008B3172238931080073086B
:10121C004E018D0008004E01110C013908004101EE
:10122C0046354F018C000330080089314C2189313F
:10123C00F00070080800893153218931F0007008E2
:10124C00080041015108F300D101730808004F0157
:10125C00111401304101D20008004F011114023069
:10126C004101D200080074084101DC007308DB0066
:10127C000800640080010131890B402900340314FB
:10128C004101460D4F018C00043008004F0111152F
:10129C008931D3218931003008004F01901290160A
:1012AC004101C50100300800603045018D008F01FF
:1012BC009101053093009201080041010C100B14B0
:1012CC000030F3000030F4008931392189310800F5
:1012DC00730874040319732974297929740841015A
:1012EC00D8007308D70008007308740403197F2909
:1012FC008029852974084101D6007308D50008009F
:10130C00F3014101101F8B298C2993294E01911E49
:10131C009029912993290130F30073080800F400F7
:10132C00893186218931003A03199D299E299629F4
:10133C007408F30089310D218931080080304F0188
:10134C008F0008309000910192014F308D004101C7
:10135C001B159B154F01901608005C304001DE00F8
:10136C000030D200D3005B08D5005A08D4005E30A0
:10137C00D6008A312D228931080089315A218931D0
:10138C008C31652489318931A42189318A3110222B
:10139C00893189316321893108004101C50100304F
:1013AC00C700FF30C600C801C901CC01CD01D20174
:1013BC00111191114F019013101308004001A31B40
:1013CC00E829E929EA29F5292209A4002309A5001D
:1013DC00A40A0319A50A2408A2002508A3000800E2
:1013EC0006304101D2000330D10091115208F100B6
:1013FC00F201F135F20D0030710784001030723DAE
:10140C0080388500013F8A00003F0A008A31410183
:10141C00D200080048304E019200903090002630E7
:10142C00910040308E0003308F000030F30000300C
:10143C00F40089316E218A310030F3000030F40061
:10144C0089317A218A314101D901DA010800400140
:10145C005508D9005408D8003E2A5308C400520835
:10146C00C3005830C5005608C60086310E268A3196
:10147C00400158088400590885001200031D472AB2
:10148C00482A332AD201D30108008831FE208A3140
:10149C00003A031D522A532A6A2A01304101C50021
:1014AC007408C7007308C600D0017508CC00CD01C4
:1014BC007708CF007608CE00C801C901CA01CB015C
:1014CC00D10189312D218A3108008831FE208A31E1
:1014DC00003A031D722A732A8A2A01304101C50081
:1014EC007408C7007308C600D0017508C800C9018C
:1014FC007708CB007608CA00CC01CD01CE01CF0114
:10150C00D101893133218A31080080304001B30682
:10151C003708A3003608A2003508A1003408A00043
:10152C003308A7003208A6003108A5003008A40033
:10153C0082317E228A3140012308B3002208B20096
:10154C002108B1002008B00008004001A001A10151
:10155C00731CB12AB22AB72A75084001A007760875
:10156C00A13D0130F535F60D890BB82A0130F43662
:10157C00F30C890BBD2A73087404031DC62AC72AF1
:10158C00AE2A40012108F4002008F30008004001B5
:10159C00A400A001A1017308F500F6017508A200D2
:1015AC007608A300241CDB2ADC2AE02A2208A007E8
:1015BC002308A13D0130A235A30D890BE12A0310AC
:1015CC00A40C2408031DEB2AEC2AD82A2108F400C9
:1015DC002008F30008004001AD01AE01082B2C08D7
:1015EC00F500F6017508A0007608A1002B08A300F1
:1015FC002A08A2008D31B2258A3101304001AD0795
:10160C000030AE3D29082D07860001308700010807
:10161C00AC002C08031D132B142BF52A08004101D8
:10162C004A084B0403191B2B1C2B2F2B0130CA020D
:10163C000030CB3B480886004908870001084F0161
:10164C008C0001304101C8070030C93D0330F00067
:10165C003E2B50080319332B342B3A2BD0014F015E
:10166C0091140130F0003E2B89314C218B31F0006C
:10167C00700808000430F0004F010F1C462B472B5C
:10168C006F2B41014E084F0403194D2B4E2B5E2B33
:10169C004C0886004D0887004F010C088100013072
:1016AC004101CC070030CD3D0130CE020030CF3BA4
:1016BC004E084F040319632B642B682B4F019112B6
:1016CC001116702B4F019110911611160730F00066
:1016DC00702B911570080800410111114F010F1E5C
:1016EC00782B792B7D2B8931D3218B31982B8F1A29
:1016FC00802B812B8B2B111F842B852B8B2B053057
:10170C004101D2000130D100982B8F1E8E2B8F2BD4
:10171C00982B111F922B932B982B05304101D20043
:10172C000230D10041015208F100F201F135F20D05
:10173C000030710784001030723D80388500013F05
:10174C008A00003F0A008B314101D20008004001A1
:10175C00A6002608A200A3012208F3002308F40027
:10176C002008F5002108A400A5012408F60025088E
:10177C00F700BB30840090308500013F8A00003FA9
:10178C000A008B31C330840090308500013F8A0001
:10179C00003F0A008B31003A031DD52BD62BC82BEA
:1017AC00C130840090308500013F8A00003F0A0060
:1017BC008B31003A031DE32BE42BE62B0130E72B96
:1017CC00003008004001A6002608A200A301220850
:1017DC00F3002308F4002008F5002108A400A5015B
:1017EC002408F6002508F700B930840090308500F5
:1017FC00013F8A00003F0A008C31C33084009030D6
:10180C008500013F8A00003F0A008C31003A031D1D
:10181C00102C112C032CC130840090308500013F1A
:10182C008A00003F0A008C31003A031D1E2C1F2C2D
:10183C00212C0130222C00300800C9304001DA0084
:10184C009030DB008931B3218C3101304001E20052
:10185C00E10164004001A001A10162088B31AD23BC
:10186C008C31003A03193B2C3C2C4D2C013040019F
:10187C00E107DD30DA009030DB006208DF00E001C8
:10188C005F08DC006008DD008931B3218C31013048
:10189C004001E20780306202031C552C562C2F2C81
:1018AC009A30DA009030DB006108DF00E0015F085D
:1018BC00DC006008DD008931B3218C310800400167
:1018CC0098017030990010309A0037309200D03067
:1018DC009300EB30940037307D018C008030960003
:1018EC00C330A0008D0150309700A1018E019801EA
:1018FC00A20137308F00F0309900FF30A3003F3049
:10190C00900080309A00C330A40015307C01C200D6
:10191C0013307B01A0000E307C01C7001B307B0113
:10192C009A000C307C01C8001C307B0198007D01B2
:10193C009101920193019B019C019D01A501A601BE
:10194C00A70108004001A101F61FAD2CAE2CB52C4F
:10195C00F509F609F50A0319F60A0130A100F41F7E
:10196C00B82CB92CBE2CF309F409F30A0319F40AA8
:10197C00730874040319C32CC42CEB2C0130A00085
:10198C00CE2C0130F335F40D890BC82C0130A00797
:10199C00F41FD12CD22CC72C74087602031DD82C22
:1019AC0073087502031CDB2CDC2CE02C7308F5028D
:1019BC007408F63B0130F436F30C890BE12C013042
:1019CC00A002031DEA2CEB2CD22C21080319EF2CBE
:1019DC00F02CF52CF509F609F50A0319F60A760828
:1019EC00F4007508F30008004001A101F41FFF2C5E
:1019FC00002D072DF309F409F30A0319F40A013039
:101A0C00A100F61F0A2D0B2D122DF509F609F50A6A
:101A1C000319F60A0130A106A201A301730874048C
:101A2C000319192D1A2D472D0130A000242D01303A
:101A3C00F335F40D890B1E2D0130A007F41F272D53
:101A4C00282D1D2D0130A235A30D890B292D7408CD
:101A5C007602031D332D73087502031C362D372DAA
:101A6C003C2D7308F5027408F63B22140130F43651
:101A7C00F30C890B3D2D0130A002031D462D472D83
:101A8C00282D210803194B2D4C2D512DA209A309EA
:101A9C00A20A0319A30A2308F4002208F300080081
:101AAC004001A801A901220886008701403FA4003B
:101ABC00413FA500240884002508850012002A3A1D
:101ACC00031D692D6A2D992D22088600870101308E
:101ADC00810741310318810A230886008701010818
:101AEC008400850102308107003FA800013FA90056
:101AFC00AD2D2908F4002808F3000A30F500003059
:101B0C00F6008A31AB228D31400127087307A800FB
:101B1C000030743DA900220886008701013081073E
:101B2C0041310318810A220886008701403FA40036
:101B3C00413FA50024088400250885000008D03EFC
:101B4C00A7000A302702031CAC2DAD2D7F2D2908D0
:101B5C00A3002808A200080040012208230403194E
:101B6C00B82DB92DBF2D22082304031DBE2DBF2D6A
:101B7C00C42D2008893195218D310F2E2208860025
:101B8C00230887004931160001040319CE2DCF2DEF
:101B9C00EF2D22088600230887004931403FA4001E
:101BAC00413FA50022088600230887004231403FB0
:101BBC00A600413FA7002708803AA8002508803AD4
:101BCC002802031DEB2D240826020318EE2DEF2D01
:101BDC000F2E40012208860023088700423122087C
:101BEC00840023088500003FA400013FA500403F6E
:101BFC0024078400413F253D8500200880002208F1
:101C0C0086002308870042310130810741310318D7
:101C1C00810A08008931C3218E318B170B171530BF
:101C2C004001E4004B30E300BE30890B1B2EE30B6C
:101C3C001B2EE40B1B2E0000400199161230DA000B
:101C4C009030DB008931B3218E318C3123248E31DD
:101C5C006400031040011A1D03140318362E392E8C
:101C6C0040011A153B2E40011A11C030DF004B30D9
:101C7C0084318E248E31C2304001DF004F308431EC
:101C8C008E248E3103304101B8004008B90042085F
:101C9C00BA00FC30BB00C4014408B83E8600870182
:101CAC000108F30089310D218E31893111218E31DA
:101CBC00003A0319622E632E5B2E01304101C407DA
:101CCC0004304402031C6B2E6C2E522E0530400146
:101CDC00E4000F30E300F130890B722EE30B722E0F
:101CEC00E40B722E2E2E803128280310750D760DE4
:101CFC004001A5002508031D842E852E8E2E003054
:101D0C00F6000030F5000030F4000030F300E92E4E
:101D1C007308A0007408A1007508A2007608A3003F
:101D2C001F30A336A20CA10CA00C890B972E2008F7
:101D3C00A400F517FF30F305FF30F405FF30F5056F
:101D4C000030F6059630A502A51FAD2EAE2EC42E82
:101D5C002508803A973E0318B42EB52EB62E852E44
:101D6C000130F636F50CF40CF30C890BB72E013060
:101D7C00A507031DC22EC32EB62ED92E2030250248
:101D8C00031CC92ECA2ED42E852E0130F335F40D2A
:101D9C00F50DF60D890BCC2E0130A5022508031D7F
:101DAC00D82ED92ECB2E24080319DD2EDE2EE92EAB
:101DBC00F309F409F509F609F30A0319F40A0319EE
:101DCC00F50A0319F60A080001304001BB00790836
:101DDC00BD007808BC001F30BF000030C0004201BD
:101DEC00BF01202FFF304001BF07FF30C03D380836
:101DFC000F39BE000A303E020318052F062F092F9B
:101E0C003030BE070B2F3730BE073F08203E860010
:101E1C00013087003E088100BB01FF30BC07FF305A
:101E2C00BD3D380E0F39B800390EF039B804390EF3
:101E3C000F39B90040014008803ABA0080303A02AC
:101E4C00031D2A2F02303F02031C2D2F2E2F4B2F48
:101E5C00400138083904031D342F352FF82E3B0868
:101E6C00031D392F3A2FF82E3D08803ABA008030E6
:101E7C003A02031D432F01303C02031C462F472F0F
:101E8C004B2FFA184A2F4B2FF82E40013708B00071
:101E9C003608AF003F08203EB1003D08B3003C08B7
:101EAC00B2008731B9278E3108004001A400240804
:101EBC000319612F622F762FF61F652F662F762F51
:101ECC007309A6007409A7007509A8007609A90072
:101EDC00A60A0319A70A0319A80A0319A90A7E2F2F
:101EEC007608A9007508A8007408A7007308A60056
:101EFC007608750474047304031D852F862F8F2FA9
:101F0C000030F6000030F5000030F4000030F30033
:101F1C00FF2F9630A5009B2F0130A5070130A93665
:101F2C00A80CA70CA60C890B952FFE302905031DB8
:101F3C00A02FA12F922FB12F0130A5070130A6079A
:101F4C000030A73DA83DA93D0130A936A80CA70C2F
:101F5C00A60C890BAB2FFF302905031DB62FB72F0D
:101F6C00A22FC12F0130A5020130A635A70DA80D57
:101F7C00A90D890BBB2FA81BC42FC52FCB2F02304B
:101F8C0025020318CA2FCB2FB82F2518CE2FCF2FF1
:101F9C00D72FFF30A605FF30A7057F30A805FF30EF
:101FAC00A9050310A50C2508A000A101A201A301FD
:101FBC001830A035A10DA20DA30D890BDF2F200821
:101FCC00A6042108A7042208A8042308A9042408AD
:101FDC000319F12FF22FF72FF61FF52FF62FF72FEE
:101FEC00A9172908F6002808F5002708F400260888
:101FFC00F30008000134093445340934153409342C
:10200C0015340B3440340B341B340934213409346B
:10201C004C340934533409340D340A3441345434B7
:10202C003334303454345334373434342034493426
:10203C0032344334203454344834453452344D34DF
:10204C0041344C342034533445344E3453344F34AF
:10205C0052340D340A34003410340A340034003451
:10206C00003400340D34093400340034863409341F
:10207C00113409340034003400340034003400349A
:10208C0000340034003400340034003400340034A4
:10209C000034003400340034003400340034003494
:1020AC0000340034003400346E3409347A3409348A
:1020BC0000340034003400340A34413454343334A2
:1020CC00303454345334373434343A3420342534A3
:1020DC00303432345834203469346E3469347434C6
:1020EC00693461346C3469347A34653464340A3458
:1020FC0000340A344134543433343034543453348B
:10210C00373434343A34203425343034323458347F
:10211C0020346E346F347434203466346F34753438
:10212C006E3464340A3400340D340A3446346F345B
:10213C0075346E346434203474346F3474346134D4
:10214C006C3420342534643420346434653476346F
:10215C006934633465342834733429340034A4343A
:10216C000934003400346B340A344B340A340034F0
:10217C0000340034003427340934FE34083400347D
:10218C000034003400340D340A3453346334613475
:10219C006E342034493432344334203473346C3448
:1021AC0061347634653472343A3420340034253456
:0A21BC00303432345834203400343B
:020000040001F9
:0A000E008F3FFF3F9F07FF3FFF3FBA
:00000001FF
