:08000000803102288731FD2F39
:100E74002F0096019701980199019A019B0108009E
:100E8400603031008D008F01910106309300920192
:100E94000800803027008E008D018C0124001F087B
:100EA400F33904389F0008000130250090008F01B9
:100EB4009101FF308D008C012E009010D030250060
:100EC4008E00080087313A2787318731C12787315F
:100ED40087314227873187314B278731873156271E
:100EE400873108007108F3007008F200F336F20C41
:100EF400F336F20C720827008D0070080339F200F3
:100F04000530F235FF3E031D832F72358C00080037
:100F1400F501F601F7018731642787317508031954
:100F2400942F952FA12F0130F6020030F73B76085D
:100F34007704031D9E2F9F2FB02FF501B02F013092
:100F4400F6070030F73D03307702FF3003197602CD
:100F5400031CAD2FAE2FB02FF501F50A7708F10071
:100F64007608F0008731742787313430F400F2308A
:100F7400890BBA2FF40BBA2F902F8031022820004E
:100F84009A01990196019701980107309500FD3067
:100F94009100FF309200FF309300FF309400FF3047
:100FA4003E00D900FF30CE00FF30C3000730E4001C
:100FB400FD30B800DA01E501C401B901CF01E60151
:100FC400BA01C501D001DB01FF30BB00FF30C60010
:100FD400FF30D100FF30DC000730E700FF30BC00F9
:100FE400FF30C700FF30D200FF30DD000F30E800D3
:0C0FF4000E3091000800200087318A2F89
:020000040001F9
:0A000E00EC3FFF3F9F3FFF3FFF3F25
:00000001FF
