:060000000A128A1110280B
:10000800FE00030EF2000A08F300831203137F08B0
:10001800F4000A128A11D02E0A128A1113280A1221
:100028008A11AB270A128A11F8000A128A11AC2722
:100038000A128A11F90083134230840063300A12CD
:100048008A118727F501F601F70183010A128A113F
:10005800BB2B2D28FF0000308A007F088207332839
:100068000A128A119E2F0A128A11AE2F4808113ED1
:1000780084000A128A1145250A128A110A128A1165
:10008800B9250A128A112008B4002108B500B60162
:10009800B70148080F3E84000A128A1145250A1242
:1000A8008A110A128A11B9250A128A112008B00089
:1000B8002108B100B201B3013008B4023108031CB1
:1000C800310FB5023208031C320FB6023308031C85
:1000D800330FB7020030A3000030A2001330A10094
:1000E8008830A0003708A7003608A6003508A50004
:1000F8003408A4000A128A117A250A128A112308E0
:10010800B7002208B6002108B5002008B400003066
:10011800A3000030A2000430A1000030A00037087E
:10012800A7003608A6003508A5003408A4000A125E
:100138008A112E230A128A112308B7002208B60052
:100148002108B5002008B4000030A3000030A20048
:100158000030A1000A30A0003708A7003608A60022
:100168003508A5003408A4000A128A1134240A129A
:100178008A112308B3002208B2002108B100200820
:10018800B000B31BE6283308031DD6283208031D28
:10019800D6283108031DD62805303002031DD4287F
:1001A800031CE628053083120313B4070030031834
:1001B8000130B507003003180130B60700300318C6
:1001C8000130082983120313B31F0929FF303302B2
:1001D800031DFA28FF303202031DFA28FF303102CE
:1001E800031DFA28FC303002031DFA2803180929D8
:1001F800FB3083120313B407FF30031CB507FF302D
:10020800031CB607FF30031CB70700308312031323
:10021800A3000030A2000030A1000A30A000370877
:10022800A7003608A6003508A5003408A4000A125D
:100238008A112E230A128A114808AF002F07423E5E
:100248008400200883138000840A2108800001307C
:10025800AF002F08C80702304802031C0800C80175
:100268000800B9002F30B1003108B4000130AE07E2
:10027800FF302E0784000A128A1145250A128A11B6
:10028800B1003108BA003A080319FC2925303A06AA
:1002980003195A293A08B100390884003108831330
:1002A80080000130B1003108B9073A29B5010130A1
:1002B800AE07FF302E0784000A128A1145250A125C
:1002C8008A11BA00003A0319FC29643A0319702903
:1002D8000D3A031970293A29340884008313000859
:1002E800B700840A0008B8000230B1003108B4072A
:1002F800B81F87290330B1003108B504B709B80918
:10030800B70A0319B80ABA01BA0A3A08B10031079C
:10031800013E84000A128A1145250A128A11B20088
:100328000A128A1145250A128A11B30033083802C5
:10033800031DA02932083702031CAA290130B10085
:100348003108BA0705303A06031D892935080339EB
:100358000319B9292D30B1003908840031088313F5
:1003680080000130B1003108B9073A08B1003108FE
:10037800B600FF30B1003108B607360A03193A292A
:100388000A30A8000030A9003608B1003107013E44
:1003980084000A128A1145250A128A11A0000A123D
:1003A8008A1145250A128A11A1003808A3003708C6
:1003B800A2000A128A11F7250A128A112108AB0035
:1003C8002008AA000A128A1133260A128A1128085C
:1003D800303EB2003208BA003A08B1003908840049
:1003E8003108831380000130B1003108B907BD29F5
:1003F80039088400831380010800A6001C2A0230F3
:10040800A3002308F9000830182A02300C2A043007
:10041800A3002308F9001030182A0230142A0430E7
:10042800A3002308F9001430A3002308F800302A99
:100438002608003A0319032A013A0319032A033A42
:100448000319092A013A03190B2A073A0319112A31
:10045800013A0319132A972A023083120313A500BD
:100468000430A400B930A300A30B382AA40B382AFF
:10047800A50B382A3F2A03300A128A11B2260A121B
:100488008A110A128A11FD260A128A112130831252
:100498000313A4007530A300A30B502AA40B502A01
:1004A800552A0A128A11FD260A128A11A5308312CA
:1004B8000313A300A30B5E2A612A0A128A11FD26E0
:1004C8000A128A1102300A128A11B2260A128A11F5
:1004D8000A128A11FD260A128A1128300A128A1174
:1004E80090260A128A110C300A128A1190260A12D2
:1004F8008A1106300A128A1190260A128A110130CE
:100508000A128A1190260A128A11033083120313E1
:10051800A5008A30A4005530A300A30B912AA40B90
:10052800912AA50B912A0800C00040088400831373
:1005380000080319D82A4008840080013308A30062
:100548003208A2003108A1003008A0000030A7003E
:100558000030A6000230A5007130A4000A128A11EA
:100568007A250A128A114008053E84002008831360
:100578008000840A21088000840A22088000840AF6
:10058800230880000A128A11F7240A128A11400AE5
:10059800840020088000840A21088000840A220838
:1005A8008000840A230880004008053E8400000873
:1005B800B400840A0008B500840A0008B600840A5A
:1005C8000008B700400A84000008B800840A000840
:1005D800B900840A0008BA00840A0008BB000A129D
:1005E8008A11F7240A128A112008BC002108BD00CC
:1005F8002208BE002308BF003808BC023908031CC3
:10060800390F072B082BBD023A08031C3A0F0D2B94
:100618000E2BBE023B08031C3B0F132B142BBF02EF
:1006280037083F02031D222B36083E02031D222BEA
:1006380035083D02031D222B34083C02031C2C2BD9
:100648000130B400400884003408800001300800FC
:1006580000300800AA01A31F3E2BA009A109A20986
:10066800A309A00A0319A10A0319A20A0319A30AD4
:10067800AA01AA0AA71F4F2BA409A509A609A70919
:10068800A40A0319A50A0319A60A0319A70A01301F
:10069800A8002808AA060030AE000030AD000030DF
:1006A800AC000030AB002308220421042004031905
:1006B800A42BA901A90AA31B6F2B0130A8000310C2
:1006C800A00DA10DA20DA30DA80B632B0130A8004E
:1006D8002808A9075F2B0130A8000310AB0DAC0D4B
:1006E800AD0DAE0DA80B712B23082702031D862B19
:1006F80022082602031D862B21082502031D862BAE
:1007080020082402031C972B2008A4022108031C9C
:10071800210FA5022208031C220FA6022308031C8E
:10072800230FA7022B1401300310A30CA20CA10C59
:10073800A00CFF3E031D982B0130A902031D6F2B4F
:100748002A080319B22BAB09AC09AD09AE09AB0AEB
:100758000319AC0A0319AD0A0319AE0A2E08A3003F
:100768002D08A2002C08A1002B08A00008000A12DE
:100778008A1125270A128A110A128A1197270A1242
:100788008A110A128A11E8260A128A1102300A12FC
:100798008A1101220A128A11013083120313C1003F
:1007A8004108DA000B178B170030B3000030B20095
:1007B8000130B100F430B0005A300A128A11982280
:1007C8000A128A11003A03192E2C07080139C100B0
:1007D8000130C10607084106FE39410687000A12A2
:1007E8008A1138270A128A11243083120313C10090
:1007F8004108AE004308B0004208AF0049300A1271
:100808008A1135210A128A11A7014930A80000303F
:10081800A900AA0100300A128A11AB240A128A110F
:100828002A30C1004108AE004508B0004408AF00B6
:1008380049300A128A1135210A128A11A701493052
:10084800A8000030A900AA0101300A128A11AB24BD
:100858000A128A110A128A113A200A128A11D82B0E
:10086800AA01A71F442CA409A509A609A709A40A37
:100878000319A50A0319A60A0319A70AAA01AA0AAD
:10088800A31F512CA009A109A209A309A00A0319B1
:10089800A10A0319A20A0319A30A2308220421049E
:1008A80020040319942CA901A90AA31B692C01305F
:1008B800A8000310A00DA10DA20DA30DA80B5D2C7F
:1008C8000130A8002808A907592C23082702031D6E
:1008D800772C22082602031D772C21082502031DE8
:1008E800772C20082402031C872C2008A402210846
:1008F800031C210FA5022208031C220FA6022308AD
:10090800031C230FA70201300310A30CA20CA10C97
:10091800A00CFF3E031D882C0130A902031D692C81
:100928002A080319A22CA409A509A609A709A40A3B
:100938000319A50A0319A60A0319A70A2708A30079
:100948002608A2002508A1002408A0000800AC0081
:100958002708AB002B08A3002C080A128A11652669
:100968000A128A11831203132A080319D02CF32CB4
:100978002908FF00280884000A128A113B250A1258
:100988008A110A128A1173270A128A110130A807DC
:100998000318A90A0030A9072908FF0028088400BD
:1009A8000A128A113B250A128A11003A0319080013
:1009B800BC2C2908FF00280884000A128A113B254C
:1009C8000A128A110A128A1173270A128A1101302F
:1009D800A8070318A90A0030A9070130AA022A08A3
:1009E80003190800DD2C7508AC007608AD00AE01CF
:1009F800AF012F08AB002E08AA002D08A9002C086B
:100A0800A8001030A4000310A80DA90DAA0DAB0D65
:100A1800A40B072D0E08A4000F08A500A601A70126
:100A28002408A8042508A9042608AA042708AB0452
:100A38007508A4007608A500A601A7012F082706B7
:100A4800031D302D2E082606031D302D2D082506E2
:100A5800031D302D2C082406031DF72C2B08A3009A
:100A68002A08A2002908A1002808A0000800FF1BE6
:100A7800452D83137F1883170008840A0319FF0A7A
:100A8800080005308A000408840A8207003401340B
:100A980000340A34003464340034E8340334103445
:100AA80027348034C0349034D034013403340034D3
:100AB80002342034203420342034203420342034AC
:100AC800203420342034203420342034203420347E
:100AD80020340034543431343D3425346434003403
:100AE800543432343D342534643400340030AC009E
:100AF8000030AB000030AA000030A900201C982D5F
:100B08002408A907250803110318013E031DAA0795
:100B1800260803110318013E031DAB07270803111C
:100B28000318013E031DAC070130A8000310A40DF3
:100B3800A50DA60DA70DA80B9A2D01300310A30C27
:100B4800A20CA10CA00CFF3E031DA22D2308220419
:100B580021042004031D822D2C08A3002B08A200C9
:100B68002A08A1002908A0000800A3007708230686
:100B78000319E52D1F102308A200A20DA20DA20D36
:100B88001F082206C73922069F001F14203083122F
:100B98000313A200A20BCE2D0000831203131F150E
:100BA8002308A2002208F7001F19D82D1E08C70025
:100BB80083161E088312C600FF30C6050330C7051A
:100BC800F22D1F19F22D1E08C70083161E08831266
:100BD800C600FF30C6050330C7051F154708A1002A
:100BE8004608A0000800A601A7012008210403194F
:100BF8002E2EA501A50AA11B0D2E01300310A00D54
:100C0800A10DFF3E031D022E0130A4002408A507F4
:100C1800FF2D01300310A60DA70DFF3E031D0E2E5C
:100C280021082302031D1A2E20082202031C232E4A
:100C38002008A2022108031CA303A30226140130E2
:100C48000310A10CA00CFF3E031D242E0130A502A9
:100C5800031D0D2E2708A1002608A000080028085B
:100C680029040319602EAD01AD0AA91B472E0130D6
:100C78000310A80DA90DFF3E031D3C2E0130AC004A
:100C88002C08AD07392E29082B02031D4D2E2808E4
:100C98002A02031C552E2808AA022908031CAB03A4
:100CA800AB0201300310A90CA80CFF3E031D562E01
:100CB8000130AD02031D472E2B08A9002A08A80001
:100CC8000800A6002608790203186E2E7908A400E9
:100CD8002408A600230878020318762E7808A400B2
:100CE8002408A30026080B3E84000A128A11452511
:100CF8000A128A112307A4002408A50025080A124D
:100D08008A1190260A128A11523083120313A40002
:100D1800A40B8C2E0000080083120313A2002208E3
:100D2800A10004300310A10CFF3E031D962E2108DC
:100D38000A128A11B2260A128A110A128A11FD268B
:100D48000A128A118312031322080A128A11B22680
:100D58000A128A110A128A11FD2608008312031347
:100D6800A000201CB92E0815BA2E08110310A00CDB
:100D7800201CC02E8815C12E88110310A00C201C21
:100D8800C72E0816C82E08120310A00C201CCE2E41
:100D980088160800881208000B1FDD2E83160C1C0D
:100DA800DD2E83120C1CDD2E0A128A1157270A1217
:100DB8008A11740883120313FF0073088A00720EE5
:100DC8008300FE0E7E0E0900C80102304802031897
:100DD800FB2E4808A0002007423E840083138001B0
:100DE800840A80010130A0002008C807E92EC80144
:100DF8000800831203138814043083120313A0001D
:100E0800A00B042F8312031388105230831203138C
:100E1800A000A00B0D2F00000800831210108F01F6
:100E28008E01343090000F08E4000E08E30004300F
:100E38000A128A11A5270C1083160C148312101499
:100E480008000A128A1149270A128A110A128A11FD
:100E5800AD270A128A110A128A1111270A128A1159
:100E68000A128A117D27080001300A128A11902679
:100E78000A128A110D3083120313A400FB30A30059
:100E8800A30B442FA40B442F0800FF308500FE302D
:100E98008700C0308800FF3083168500FE30870049
:100EA800C030880008000C106408F1006308F000E6
:100EB8000A128A1165270A128A110A128A118F27C3
:100EC8000800101D6E2F101071088F0070088E001A
:100ED8001014080071088F0070088E000800A30025
:100EE800081423080A128A11902683120313081083
:100EF8000800C0309F00C23083169F009E018312F5
:100F08009E011F14080064008001840A0406031966
:100F180000340406882F65080319080065080A12BA
:100F28008A112E200800F501F60101300A128A11F3
:100F3800A52708000130F5070318F60A0030F60760
:100F48000800A1002108A0002008E50008000834D6
:060F58000234080008004D
:02400E003A3F37
:00000001FF
