:08000000803102288731FD2F39
:100B72009A120800310096019630950008002F0065
:100B820096019701980199019A019B010800603032
:100B920031008D008F01910106309300920108000F
:100BA200F0007008230096002E000F1DD52D0F11A6
:100BB200230016080800933020009F009D019C012D
:100BC2001D08B4001C08B3002E008C1290302000C7
:100BD2009E00080001309B0028309C0004309D00DC
:100BE20004309E0004309F00A0010230A100A20147
:100BF200A30187309A00080001303C00910029309F
:100C0200920009309300043094000430950096015C
:100C12000A309700980199018730900008000B3044
:100C22003D00C8001F30C90016303E009B0017303F
:100C3200AE00230099010A309A000F30970020007D
:100C4200921123009A1208008531C025863186311F
:100C52001026863186319A2686318531C82586311D
:100C62008531FD2586318531EB2586318531DC25BF
:100C720086318531BB25080020001C08F20072086D
:100C8200F9001D08F2007208FA007908F200F30177
:100C92007A08F400F5017408F500F401720874078B
:100CA200F7007308753DF8007808F1007708F00046
:100CB2000800F80000308731312786313100951362
:100CC200E030F7007708F80400308531D12586310D
:100CD20000308531D125863100308531D1258631EC
:100CE20000308531D125863178088531D12586318C
:100CF20076088531D125863175088531D125863131
:100D020074088531D1258631FF308531D125863170
:100D1200FF308531D1258631FF308531D1258631AD
:100D2200FF308531D12586318531B92531009517BE
:100D3200080020009A01403099009601093097007E
:100D4200980107309500CD309100F6309200FF30C7
:100D52009300BF3094003F303E00D900BF30CE0038
:100D6200F630C3000730E400CD30B800DA01E50107
:100D7200C401B901CF01E601BA01C501D001DB010D
:100D8200FF30BB00FF30C600FF30D100FF30DC0077
:100D92000730E700FF30BC00FF30C700FF30D20051
:100DA200FF30DD000F30E8001F303D00C900013088
:100DB2003E0094000230950016309B001730AE00C2
:100DC2000B303D00C8000800FD007D088600870149
:100DD2000103031D0A2F86313D2686317D0A8600D6
:100DE20087017008C03F7108C13F7C08A1007B08E1
:100DF200A000A035A10DA035A10D7D08033E8600FF
:100E020087012008C03F2108C13F7D088600870175
:100E120081017D08033E86008701403F2000A0003B
:100E2200413FA1007D0A8600870186313D26863139
:100E3200403F7002A200413F713BA3002108230200
:100E4200031D252F20082202031C2C2F7D0886005B
:100E520087018101810A7D08860087010108080057
:100E6200F30023009A1A08007308F000F101F0352C
:100E7200F10DF035F10D0130700784008830713DBD
:100E82008500000899007308F000F101F035F10DBA
:100E9200F035F10D0030700784008830713D850017
:100EA20000089A009B017308F000F101F035F10D82
:100EB200F035F10D0230700784008830713D8500F5
:100EC200000897007308F000F101F035F10DF035DC
:100ED200F10D0330700784008830713D85000008F1
:100EE200F200F20DF20DF20D200012087206F7392F
:100EF2007206920023009A160800B001B00A03306D
:100F0200A4002408B1000530A4002408B200A701FF
:100F1200A801A901AA018631252687312000AB014B
:100F2200AB0A1E30FB000030FC002B308631E52678
:100F32008731003A0319922F3008A4002408A80729
:100F42003108A4002408A9073208A4002408AA072B
:100F5200280829042A04031DE22F3003031DB32F9E
:100F62000330B82F03303006031DBC2F0530A40018
:100F72002408B000BE2FB001B00A3103031DC32FF5
:100F82000330C82F03303106031DCC2F0530A400D7
:100F92002408B100CE2FB101B10A3203031DD32FB1
:100FA2000330D82F03303206031DDC2F0530A40096
:100FB2002408B200DE2FB201B20A0130A4002408D4
:100FC200A7070310961C0314031CEA2F2000961493
:100FD200EC2F200096102808A4002408F400290809
:100FE200A5002508F5002A08A6002608F60027080D
:100FF20086315A268731922F200087317E2F0A347C
:0610020000340F3400343D
:020000040001F9
:0A000E00EC3FFF3F9F3FFF3FFF3F25
:00000001FF
