:060000000A128A1110280B
:10000800FE00030EF2000A08F300831203137F08B0
:10001800F4000A128A11982C0A128A1113288313E1
:100028007030FD000530FE003930FF006730840075
:100038000A128A11FE240A128A11203084004530DF
:100048000A128A114B25F801F90183010A128A1153
:10005800022A2D28FF0000308A007F0882073328F3
:100068000A128A116A2D0A128A11722D003083121F
:100078000313D8000030D7000030D6000230D50076
:1000880067300A128A11E1200A128A11003A03190C
:100098000800FF3083160313A400240883120313F7
:1000A800C80000300A128A1136240A128A118312F3
:1000B80003134408323E8400831300088316031395
:1000C800A4008312031344083A3E840000088316F0
:1000D80003132405A500250883120313C800013063
:1000E8000A128A1136240A128A1101308316031360
:1000F800A40083120313440A8316031385280310EC
:10010800A40DFF3E031D83282408FF3AA5002508F7
:1001180083120313C80000300A128A1136240A1207
:100128008A11013083160313A400240883120313D1
:10013800C407083044020318C401013083160313AE
:10014800A400240883120313A00764302002031CB0
:10015800080083160313A70127082A3E8400831387
:100168000008A4002708323E84000008240603196A
:10017800D5282708323E84000008A4002408A600D9
:1001880027082A3E84000008A4002708323E84007D
:10019800240880002608A40027082A3E8400240892
:1001A80080000130A4002408A70708302702031C98
:1001B800B02883120313A001080083120313E5007B
:1001C800650884008313000803192829650884003A
:1001D80080015808C8005708C7005608C6005508C7
:1001E800C5000030CC000030CB000230CA007130AE
:1001F800C9000A128A11C4230A128A11831203132E
:100208006508053E8400450883138000840A460873
:100218008000840A47088000840A480880000A127F
:100228008A117E230A128A1183120313650A840035
:10023800450883138000840A46088000840A47081A
:100248008000840A480880006508053E840000088C
:10025800D900840A0008DA00840A0008DB00840A4E
:100268000008DC00650A84000008DD00840A000834
:10027800DE00840A0008DF00840A0008E0000A1291
:100288008A117E230A128A11831203134508E1009A
:100298004608E2004708E3004808E4005D08E10278
:1002A8005E08031C5E0F59295A29E2025F08031CE5
:1002B8005F0F5F296029E3026008031C600F65294E
:1002C8006629E4025C086402031D74295B08630262
:1002D800031D74295A086202031D74295908610212
:1002E800031C7F290130D90065088400590883134D
:1002F8008000013008000030080007308312031323
:10030800D7005708D800D9010030C8000030C7000E
:100318000030C6000A30C5005608CC005508CB008E
:100328005408CA005308C9000A128A1130230A1255
:100338008A11831203134508013E84000A128A11A8
:10034800B2240A128A11D70058083A3E8400570886
:10035800831380000030C8000030C7000030C6009A
:100368000A30C5005608CC005508CB005408CA000E
:100378005308C9000A128A1180220A128A118312AC
:1003880003134808D6004708D5004608D400450896
:10039800D3000130D8020130D7005708D9070830F8
:1003A8005902031C8829D901013084000A128A11D4
:1003B800B2240A128A11D70059083A3E84008313DE
:1003C80000085706031D0800073059020318F929C9
:1003D800123084000A128A11B2240A128A11D70034
:1003E80059083A3E8400570880000130D700570862
:1003F800D9070830590203180800D8290A128A11A7
:100408002B250A128A110A128A1163250A128A11E7
:10041800003083160313A3009830A2009630A10081
:100428007630A000013083120313E6006608A100AD
:100438000A128A1105240A128A110A128A11E02264
:100448000A128A1105300A128A117B240A128A11AB
:100458000B178B17003083120313D8000030D70016
:100468000030D6006430D50021300A128A11E1200C
:100478000A128A11003A03197A2A83120313070809
:100488000139E6000130E60607086606FE39660609
:10049800870083160313230883120313D6008316D9
:1004A8000313220883120313D500831603132108AC
:1004B80083120313D4008316031320088312031333
:1004C800D3000A128A1181210A128A110130831677
:1004D8000313A007003003180130A10700300318E8
:1004E8000130A207003003180130A3070A128A114D
:1004F8003A200A128A112E2A003083120313D100DF
:100508000030D0000030CF000030CE00480847044B
:10051800460445040319D72AD201D20AC81BA22AC5
:100528000130CD000310C50DC60DC70DC80DCD0B8C
:10053800962A0130CD004D08D207922A0130CD000D
:100548000310CE0DCF0DD00DD10DCD0BA42A480828
:100558004C02031DB92A47084B02031DB92A460855
:100568004A02031DB92A45084902031CCA2A45083C
:10057800C9024608031C460FCA024708031C470F56
:10058800CB024808031C480FCC024E14013003105C
:10059800C80CC70CC60CC50CFF3E031DCB2A013086
:1005A800D202031DA22A5108C8005008C7004F08EC
:1005B800C6004E08C50008008B13123084000A12CA
:1005C8008A11B2240A128A1183120313CC00CD01B6
:1005D8004C08C5004D08C6000830C7000030C800E8
:1005E8003A300A128A115D240A128A1113308400E3
:1005F8000A128A11B2240A128A1183120313CC0038
:10060800CD014C08C5004D08C6000830C7000030B1
:10061800C80032300A128A115D240A128A11133076
:1006280084000A128A11B2240A128A11831203134F
:10063800CC00CD014C08C5004D08C6000830C700E5
:100648000030C8002A300A128A115D24831203136D
:10065800C401A0018B17080083120313480847043C
:10066800460445040319752BCE01CE0AC81B4A2B34
:100678000130CD000310C50DC60DC70DC80DCD0B3B
:100688003E2B0130CD004D08CE073A2B48084C02CE
:10069800031D582B47084B02031D582B46084A02D6
:1006A800031D582B45084902031C682B4508C9023D
:1006B8004608031C460FCA024708031C470FCB0213
:1006C8004808031C480FCC0201300310C80CC70CA3
:1006D800C60CC50CFF3E031D692B0130CE02031D5D
:1006E8004A2B4C08C8004B08C7004A08C6004908EE
:1006F800C5000800780883120313D1007908D200D6
:10070800D301D4015408D0005308CF005208CE00BA
:100718005108CD001030C9000310CD0DCE0DCF0DFE
:10072800D00DC90B902B0E08C9000F08CA00CB01C9
:10073800CC014908CD044A08CE044B08CF044C0824
:10074800D0047808C9007908CA00CB01CC01540844
:100758004C06031DB92B53084B06031DB92B520831
:100768004A06031DB92B51084906031D7E2B500864
:10077800C8004F08C7004E08C6004D08C50008004D
:10078800003083120313D1000030D0000030CF00B6
:100798000030CE00451CE42B4908CE074A08031157
:1007A8000318013E031DCF074B0803110318013E30
:1007B800031DD0074C0803110318013E031DD10780
:1007C8000130CD000310C90DCA0DCB0DCC0DCD0BDA
:1007D800E62B01300310C80CC70CC60CC50CFF3E35
:1007E800031DEE2B4808470446044504031DCE2B81
:1007F8005108C8005008C7004F08C6004E08C50079
:1008080008008312031307150030C500C600023024
:10081800C7000030C80042300A128A115D240A124B
:100828008A1183120313CC01CD0183120313C8016B
:100838004C080A128A1136240A128A1101308312CE
:100848000313CC070318CD0A0030CD074D08803AB2
:10085800FF0080307F02031D332C02304C02031846
:100868000800192C83120313CA0002304A02031825
:1008780008004808C9004A08423E84004908831312
:1008880080000711CB014B08423E84008313000807
:100898000A128A11E4240A128A11013083120313FE
:1008A800C9004908CB0702304B02031C472C071527
:1008B800080083120313CB004B08C9004908CA007B
:1008C8000130C7020030031CC803C802470A0319D5
:1008D800480A031908004508C9004A08840049085D
:1008E800831380000130C9004908CA07642C8312A9
:1008F8000313C600123084000A128A11B2240A12A5
:100908008A11C5004608323E8400450883138000DA
:10091800133084000A128A11B224C50046082A3E00
:1009280084004508800008000B1FA72C83160313BA
:100938000C1CA72C831203130C1CA72C0A128A1157
:100948000B250A128A11740883120313FF00730817
:100958008A00720E8300FE0E7E0E090004308A00A3
:100968000408840A820700343F3406345B344F3469
:1009780066346D347D3427347F346F3477347C3477
:1009880039345E347934713480340034FF3483125E
:10099800031310108F018E01343090000F08F600F9
:1009A8000E08F50004300A128A1153258312031326
:1009B8000C10831603130C1483120313101408006D
:1009C80083120313C600C7018711C61FED2C8716B3
:1009D800EE2C87120310C60D87150130C500450897
:1009E800C7070830470203180800E82C7E088A0069
:1009F8007F088200FA240A128A118000840A0408F7
:100A08007D0603190034FF0A0319FE0AFE2C83121F
:100A180003130C107608F1007508F0000A128A1109
:100A28001B250A128A110A128A115B2508008312F3
:100A38000313101D262D101071088F0070088E00EA
:100A48001014080071088F0070088E0008000A1240
:100A58008A1142250A128A110A128A1171250A126C
:100A68008A110A128A11CB24080001340034003498
:100A7800003400340034003400340034FF30831272
:100A880003138700D230831603138700080064001D
:100A98008001840A04060319003404064C2D8312CD
:100AA8000313C6004608C5004508F7000800770884
:100AB8000319080077080A128A112E200800F80185
:100AC800F90101300A128A11532508000130F8078C
:0E0AD8000318F90A0030F907080008000800AA
:02400E003A3F37
:00000001FF
