:100000000A128A111028FF3FFE00030EF0000A08B2
:10001000F100831203137F08F2000A128A11792972
:100020000A128A111328F801F90183010A128A11B0
:100030009A281928FF0000308A007F0882071F28AD
:100040000A128A11A929F700770884000003031D0A
:1000500058280A128A11F7200A128A11770A840096
:1000600073088000840A74088000840A7508800080
:100070002A08F4002908F3001330F5000030F600D8
:100080000A128A112C210A128A117308AB00740813
:10009000AC00AD017708043E84002B088000840A80
:1000A0002C088000840A2D088000770884008001D5
:1000B0007708043E84000008AB00840A0008AC0006
:1000C000840A0008AD00770A84000008AE00840AA4
:1000D0000008AF00840A0008B0000A128A11F72055
:1000E0000A128A117308B1007408B2007508B300CF
:1000F0002E08B1022F08031C2F0F7F288028B20280
:100100003008031C300F85288628B3022D083302DF
:10011000031D90282C083202031D90282B08310261
:10012000031C9628770884008001800A77088400E1
:10013000000808000A128A1199210A128A110A126B
:100140008A11A2210A128A11B501B50ABC01BC0AA2
:10015000C301C30A8B170B176430A9000030AA0033
:1001600035300A128A1123200A128A11003A031923
:10017000C32809080139B4000130B406090834065F
:10018000FE3934068900C830A9000030AA003C308E
:100190000A128A1123200A128A11003A0319DB2855
:1001A000090C0139B4000130B406B40D0908340655
:1001B000FD3934068900F430A9000130AA0043302B
:1001C0000A128A1123200A128A11003A0319AC2854
:1001D000090CB400340C0139B4000130B406B40D7C
:1001E000B40D09083406FB3934068900AC287808B8
:1001F000A6007908A700A8012608A3002708A400E4
:100200002808A50008300310A30DA40DA50DFF3E7E
:10021000031D03290108A000A101A2012008A304D5
:100220002108A4042208A5047808A0007908A100E8
:10023000A20128082206031D232927082106031DE1
:10024000232926082006031DF7282308F300240885
:10025000F4002508F5000800A001A101731C36294F
:100260007508A0070318A10A7608A107013003103A
:10027000F50DF60DFF3E031D372901300310F40C78
:10028000F30CFF3E031D3E2973087404031D2E2941
:100290002108F4002008F30008000108C039F30029
:1002A0007308FA000730F3007308FA047A08810033
:1002B0003D30831281003D30F3007308FA00CA011B
:1002C0000B118B16080085018601870188018901C1
:1002D000FF3083168500FF308600FF308700FF3037
:1002E0008800890183129F01063083169F008117C1
:1002F00008008B1A0B1D81290A128A118C210A12FF
:100300008A11720883120313FF0071088A00700EAD
:100310008300FE0E7E0E09000B117A088312031370
:1003200081004A08031908004A080A128A111A2093
:1003300008000A128A1163210A128A110A128A110C
:100340004D210800F801F9010130F3007308CA00DB
:1003500008000130F8070318F90A0030F90708000F
:02400E003A3F37
:00000001FF
