:1000000001308A0018290000453B65377410B1069D
:100010000A00453B65377410B2060A000F08FA0063
:100020000E08F7000F087A02031D0E2877080C1C33
:100030002B280130A0070318A10A0319A20A0319EB
:10004000A30A0C100F08FA000E08F7000F087A0236
:10005000031D222877087A08F7002008F8002108F5
:10006000F9002208FA002308AB00AB0CFA0CF90CDB
:10007000F80CF70C0800AA01831606148312061860
:100080008528A408031D5628A508031D5628A60880
:10009000031D5628A708031D56280E207A08A7001E
:1000A0007908A6007808A5007708A4000E207A0831
:1000B000AE007908AD007808AC007708AB002408E2
:1000C000AB022508031C250FAC022608031C260FD3
:1000D000AD022708031C270FAE02AE08031D7E28C1
:1000E000AD08031D7E282C08023C03188428FF3A23
:1000F000031D7E282B08E83C031884280230AA0040
:10010000A701A601A501A401BB28A408031D9128ED
:10011000A508031D9128A608031D9128A708031907
:10012000BB280E207A08AE007908AD007808AC0034
:100130007708AB002408AB022508031C250FAC028E
:100140002608031C260FAD022708031C270FAE024A
:10015000AE08031DB528AD08031DB528AC08031D66
:10016000B5282B08643C0318B7280130AA00A70162
:10017000A601A501A4012A08F8008A110A12412942
:100180000B08AA008B13831603178C170C1400009E
:10019000000083120313AA1B8B1703170C087F3967
:1001A000031916290313AA0003170D080313AB0044
:1001B00003170F080313AC002A080C1EDD28990052
:1001C0002B0803178D0003132C0803178F0003134C
:1001D0000B08AD008B13831603178C170C1400004B
:1001E000000083120313AD1B8B1703170C0D0E0DAC
:1001F0007F39031916290313AA0003170D080313E7
:10020000AB0003170F080313AC002A080C1E0629C5
:1002100099002B0803178D0003132C0803178F0078
:100220008D0A03198F0A0313C0280317031308004C
:1002300003081F398300813083169900A630980087
:10024000903083129800A301A201A101A001101017
:10025000B53090008E018F018E010C10A901A8010C
:1002600083161F149F141F159F1107309C008313C2
:100270008312A401A501A601A7018316811383128D
:100280003B287808013A03194929033A03195129EF
:100290005829043003178D0000308F000313C0204D
:1002A0005829093003178D0000308F000313C02038
:0402B000402963007E
:02400E00723FFF
:00000001FF
